{
  "contractName": "CreatureFactory",
  "abi": [
    {
      "inputs": [
        {
          "internalType": "uint256",
          "name": "",
          "type": "uint256"
        }
      ],
      "name": "creatures",
      "outputs": [
        {
          "internalType": "uint16",
          "name": "attack",
          "type": "uint16"
        },
        {
          "internalType": "uint16",
          "name": "defence",
          "type": "uint16"
        },
        {
          "internalType": "uint32",
          "name": "readyTime",
          "type": "uint32"
        },
        {
          "internalType": "bool",
          "name": "isDefending",
          "type": "bool"
        }
      ],
      "stateMutability": "view",
      "type": "function"
    },
    {
      "inputs": [
        {
          "internalType": "uint256",
          "name": "_id",
          "type": "uint256"
        }
      ],
      "name": "getCreatureInfoByIndex",
      "outputs": [
        {
          "internalType": "uint16",
          "name": "attack",
          "type": "uint16"
        },
        {
          "internalType": "uint16",
          "name": "defence",
          "type": "uint16"
        },
        {
          "internalType": "uint32",
          "name": "readyTime",
          "type": "uint32"
        },
        {
          "internalType": "bool",
          "name": "isDefending",
          "type": "bool"
        }
      ],
      "stateMutability": "view",
      "type": "function"
    }
  ],
  "bytecode": "0x608060405234801561001057600080fd5b5061026b806100206000396000f3fe608060405234801561001057600080fd5b50600436106100365760003560e01c80636e81bbc01461003b5780638f8930da146100a2575b600080fd5b6100676004803603602081101561005157600080fd5b8101908080359060200190929190505050610109565b604051808561ffff1681526020018461ffff1681526020018363ffffffff168152602001821515815260200194505050505060405180910390f35b6100ce600480360360208110156100b857600080fd5b81019080803590602001909291905050506101c3565b604051808561ffff1681526020018461ffff1681526020018363ffffffff168152602001821515815260200194505050505060405180910390f35b6000806000806002858154811061011c57fe5b9060005260206000200160000160009054906101000a900461ffff166002868154811061014557fe5b9060005260206000200160000160029054906101000a900461ffff166002878154811061016e57fe5b9060005260206000200160000160049054906101000a900463ffffffff166002888154811061019957fe5b9060005260206000200160000160089054906101000a900460ff1693509350935093509193509193565b600281815481106101d057fe5b906000526020600020016000915090508060000160009054906101000a900461ffff16908060000160029054906101000a900461ffff16908060000160049054906101000a900463ffffffff16908060000160089054906101000a900460ff1690508456fea2646970667358221220607a34efeae029dd1cb87dcaa26ca3bdaaa0467d64c72c2b47c462ce3b74693f64736f6c634300060c0033",
  "immutableReferences": {},
  "source": "pragma solidity >=0.4.22 <0.7.0;\n\nimport \"./SafeMath.sol\";\n\n/**\n * @dev Creatures are one of the main spells that a plainswalker can cast.\n * Right now I want each creature to be connected to the plainswalker that summoned it.\n * Not a tradeable asset (it stays with the plainswalker it it is traded though).\n */\ncontract CreatureFactory{\n    \n    using SafeMath for uint256;\n    using SafeMath for uint16;\n    \n    // Struct for the creature.\n    struct Creature{\n        // attack calculated based on spent Mana.\n        uint16 attack;\n        // defence calculated based on spent Mana.\n        uint16 defence;\n        // readyTime is set for 6 hours after creation and 6 hours after each attack\n        uint32 readyTime;\n        // Bool to tell if the creature is defending its plainswalker. If it is it can't attack.\n        bool isDefending;\n    }\n    \n    // The next id is used if there are no ids in deletedCreatureIds.\n    uint nextId;\n    // Keep track of ids that have died in order to reduce the the amount of complex array manipulations required.\n    uint[] deletedCreatureIds;\n    // An array of Creatures.\n    Creature[] public creatures;\n    \n    /**\n     * @dev Constructs a creature based on an array of mana. It creates the features of\n     * the creature based on the types of mana used.\n     */\n    function createCreature(uint16[5] memory _mana) internal returns (uint creatureId) {\n        // mana should be in this order ['Red', 'Green', 'Blue', 'Black', 'White'].\n        uint totalCost;\n        \n        for (uint i = 0; i < _mana.length; i++) {\n            totalCost += _mana[i];\n        }\n        \n        require(totalCost > 0);\n        uint attack = totalCost.div(2);\n        uint defence = attack;\n        \n        // Red adds to attack\n        attack = attack.add(_mana[0].div(2));\n        // Green adds to attack and defence\n        attack = attack.add(_mana[1].div(3));\n        defence = defence.add(_mana[1].div(3));\n        // Blue adds to defence\n        defence = defence.add(_mana[2].div(2));\n        // Black adds to attack and defence\n        attack = attack.add(_mana[3].div(2));\n        defence = defence.add(_mana[3].div(4));\n        // White adds to defence\n        defence += defence.add(_mana[4].div(2));\n        \n        // If somehow a creature (pure red 1 cost maybe...) ends up with 0 defence add 1\n        if (defence == 0){\n            defence ++;\n        }\n\n        // Find an open id or add a new one.\n        uint id;\n        if (deletedCreatureIds.length == 0){\n            id = nextId;\n            nextId ++;\n        } else {\n            id = deletedCreatureIds[deletedCreatureIds.length - 1];\n            deletedCreatureIds.pop();\n        }\n\n        // Place creature into array at an open position.\n        \n        creatures[id] = Creature(uint16(attack), uint16(defence), uint32(block.timestamp + 6 hours), false);\n        \n        // Return the new creatureId to be kept track of by a plainswalker.\n        return id;\n    }\n\n    /**\n     * @dev A getter function for creature info.\n     */\n    function getCreatureInfoByIndex(uint _id) public view returns (uint16 attack, uint16 defence, uint32 readyTime, bool isDefending){\n        return (creatures[_id].attack, creatures[_id].defence, creatures[_id].readyTime, creatures[_id].isDefending);\n    }\n}\n",
  "sourcePath": "/Users/johnminer/dev/mtg_on_blockchain/contracts/CreatureFactory.sol",
  "compiler": {
    "name": "solc",
    "version": "0.6.12+commit.27d51765.Emscripten.clang"
  },
  "schemaVersion": "3.3.0",
  "updatedAt": "2020-10-15T01:51:22.725Z",
  "devdoc": {
    "details": "Creatures are one of the main spells that a plainswalker can cast. Right now I want each creature to be connected to the plainswalker that summoned it. Not a tradeable asset (it stays with the plainswalker it it is traded though).",
    "kind": "dev",
    "methods": {
      "getCreatureInfoByIndex(uint256)": {
        "details": "A getter function for creature info."
      }
    },
    "version": 1
  },
  "userdoc": {
    "kind": "user",
    "methods": {},
    "version": 1
  }
}