{
  "contractName": "CreatureFactory",
  "abi": [
    {
      "inputs": [
        {
          "internalType": "uint256",
          "name": "_id",
          "type": "uint256"
        }
      ],
      "name": "getCreatureInfoByIndex",
      "outputs": [
        {
          "internalType": "uint16",
          "name": "attack",
          "type": "uint16"
        },
        {
          "internalType": "uint16",
          "name": "defence",
          "type": "uint16"
        },
        {
          "internalType": "uint32",
          "name": "readyTime",
          "type": "uint32"
        },
        {
          "internalType": "bool",
          "name": "isDefending",
          "type": "bool"
        }
      ],
      "stateMutability": "view",
      "type": "function"
    }
  ],
  "bytecode": "0x60806040526000805534801561001457600080fd5b50610187806100246000396000f3fe608060405234801561001057600080fd5b506004361061002b5760003560e01c80636e81bbc014610030575b600080fd5b61005c6004803603602081101561004657600080fd5b8101908080359060200190929190505050610097565b604051808561ffff1681526020018461ffff1681526020018363ffffffff168152602001821515815260200194505050505060405180910390f35b600080600080600285815481106100aa57fe5b9060005260206000200160000160009054906101000a900461ffff16600286815481106100d357fe5b9060005260206000200160000160029054906101000a900461ffff16600287815481106100fc57fe5b9060005260206000200160000160049054906101000a900463ffffffff166002888154811061012757fe5b9060005260206000200160000160089054906101000a900460ff169350935093509350919350919356fea264697066735822122062e3e479e5b7c49a8a732a1653ffc62d09eaf0784d3c508b1e3461de2b1a4ebc64736f6c634300060c0033",
  "immutableReferences": {},
  "source": "pragma solidity >=0.4.22 <0.7.0;\n\nimport \"./SafeMath.sol\";\n\n/**\n * @dev Creatures are one of the main spells that a plainswalker can cast.\n * Right now I want each creature to be connected to the plainswalker that summoned it.\n * Not a tradeable asset (it stays with the plainswalker it it is traded though).\n */\ncontract CreatureFactory{\n    \n    using SafeMath for uint256;\n    using SafeMath for uint16;\n    \n    // Struct for the creature.\n    struct Creature{\n        // attack calculated based on spent Mana.\n        uint16 attack;\n        // defence calculated based on spent Mana.\n        uint16 defence;\n        // readyTime is set for 6 hours after creation and 6 hours after each attack\n        uint32 readyTime;\n        // Bool to tell if the creature is defending its plainswalker. If it is it can't attack.\n        bool isDefending;\n    }\n    \n    // The next id is used if there are no ids in deletedCreatureIds.\n    uint nextId = 0;\n    // Keep track of ids that have died in order to reduce the the amount of complex array manipulations required.\n    uint[] deletedCreatureIds;\n    // An array of Creatures.\n    Creature[] creatures;\n    \n    /**\n     * @dev Constructs a creature based on an array of mana. It creates the features of\n     * the creature based on the types of mana used.\n     */\n    function createCreature(uint16[5] memory _mana) internal returns (uint creatureId) {\n        // mana should be in this order ['Red', 'Green', 'Blue', 'Black', 'White'].\n        uint totalCost;\n        \n        for (uint i = 0; i < _mana.length; i++) {\n            totalCost += _mana[i];\n        }\n        \n        require(totalCost > 0);\n        uint attack = totalCost.div(2);\n        uint defence = attack;\n        \n        // Red adds to attack\n        attack = attack.add(_mana[0].div(2));\n        // Green adds to attack and defence\n        attack = attack.add(_mana[1].div(3));\n        defence = defence.add(_mana[1].div(3));\n        // Blue adds to defence\n        defence = defence.add(_mana[2].div(2));\n        // Black adds to attack and defence\n        attack = attack.add(_mana[3].div(2));\n        defence = defence.add(_mana[3].div(4));\n        // White adds to defence\n        defence += defence.add(_mana[4].div(2));\n        \n        // If somehow a creature (pure red 1 cost maybe...) ends up with 0 defence add 1\n        if (defence == 0){\n            defence ++;\n        }\n\n        // Find an open id or add a new one.\n        uint id;\n        if (deletedCreatureIds.length == 0){\n            id = nextId;\n            // Place creature into array at an open position.\n            uint32 readyTime = uint32(block.timestamp + 6 hours);\n            \n            creatures.push(Creature(uint16(attack), uint16(defence), readyTime, false));\n            nextId ++;\n        } else {\n            id = deletedCreatureIds[deletedCreatureIds.length - 1];\n            // Place creature into array at an open position.\n            uint32 readyTime = uint32(block.timestamp + 6 hours);\n            \n            creatures[id] = Creature(uint16(attack), uint16(defence), readyTime, false);\n            deletedCreatureIds.pop();\n        }\n        // Return the new creatureId to be kept track of by a plainswalker.\n        return id;\n    }\n\n    /**\n     * @dev A getter function for creature info.\n     */\n    function getCreatureInfoByIndex(uint _id) public view returns (uint16 attack, uint16 defence, uint32 readyTime, bool isDefending){\n        return (creatures[_id].attack, creatures[_id].defence, creatures[_id].readyTime, creatures[_id].isDefending);\n    }\n}\n",
  "sourcePath": "/Users/johnminer/dev/mtg_on_blockchain/contracts/CreatureFactory.sol",
  "compiler": {
    "name": "solc",
    "version": "0.6.12+commit.27d51765.Emscripten.clang"
  },
  "schemaVersion": "3.3.0",
  "updatedAt": "2020-10-15T18:10:34.833Z",
  "devdoc": {
    "details": "Creatures are one of the main spells that a plainswalker can cast. Right now I want each creature to be connected to the plainswalker that summoned it. Not a tradeable asset (it stays with the plainswalker it it is traded though).",
    "kind": "dev",
    "methods": {
      "getCreatureInfoByIndex(uint256)": {
        "details": "A getter function for creature info."
      }
    },
    "version": 1
  },
  "userdoc": {
    "kind": "user",
    "methods": {},
    "version": 1
  }
}