{
  "contractName": "GameLogic",
  "abi": [
    {
      "anonymous": false,
      "inputs": [
        {
          "indexed": false,
          "internalType": "uint256",
          "name": "PlainsWalkerId",
          "type": "uint256"
        },
        {
          "indexed": false,
          "internalType": "string",
          "name": "name",
          "type": "string"
        },
        {
          "indexed": false,
          "internalType": "uint256",
          "name": "dna",
          "type": "uint256"
        }
      ],
      "name": "NewPlainswalker",
      "type": "event"
    },
    {
      "anonymous": false,
      "inputs": [
        {
          "indexed": true,
          "internalType": "address",
          "name": "previousOwner",
          "type": "address"
        },
        {
          "indexed": true,
          "internalType": "address",
          "name": "newOwner",
          "type": "address"
        }
      ],
      "name": "OwnershipTransferred",
      "type": "event"
    },
    {
      "inputs": [
        {
          "internalType": "uint256",
          "name": "_plainsWalkerId",
          "type": "uint256"
        },
        {
          "internalType": "string",
          "name": "_newName",
          "type": "string"
        }
      ],
      "name": "changeName",
      "outputs": [],
      "stateMutability": "nonpayable",
      "type": "function"
    },
    {
      "inputs": [
        {
          "internalType": "string",
          "name": "_name",
          "type": "string"
        }
      ],
      "name": "createRandomPlainsWalker",
      "outputs": [],
      "stateMutability": "nonpayable",
      "type": "function"
    },
    {
      "inputs": [
        {
          "internalType": "uint256",
          "name": "",
          "type": "uint256"
        }
      ],
      "name": "creatures",
      "outputs": [
        {
          "internalType": "uint16",
          "name": "attack",
          "type": "uint16"
        },
        {
          "internalType": "uint16",
          "name": "defence",
          "type": "uint16"
        },
        {
          "internalType": "uint32",
          "name": "readyTime",
          "type": "uint32"
        },
        {
          "internalType": "bool",
          "name": "isDefending",
          "type": "bool"
        }
      ],
      "stateMutability": "view",
      "type": "function"
    },
    {
      "inputs": [
        {
          "internalType": "uint256",
          "name": "_id",
          "type": "uint256"
        }
      ],
      "name": "getCreatureInfoByIndex",
      "outputs": [
        {
          "internalType": "uint16",
          "name": "attack",
          "type": "uint16"
        },
        {
          "internalType": "uint16",
          "name": "defence",
          "type": "uint16"
        },
        {
          "internalType": "uint32",
          "name": "readyTime",
          "type": "uint32"
        },
        {
          "internalType": "bool",
          "name": "isDefending",
          "type": "bool"
        }
      ],
      "stateMutability": "view",
      "type": "function"
    },
    {
      "inputs": [],
      "name": "getPlainsWalkerFee",
      "outputs": [
        {
          "internalType": "uint256",
          "name": "",
          "type": "uint256"
        }
      ],
      "stateMutability": "view",
      "type": "function"
    },
    {
      "inputs": [
        {
          "internalType": "address",
          "name": "_owner",
          "type": "address"
        }
      ],
      "name": "getPlainsWalkersByOwner",
      "outputs": [
        {
          "internalType": "uint256[]",
          "name": "",
          "type": "uint256[]"
        }
      ],
      "stateMutability": "view",
      "type": "function"
    },
    {
      "inputs": [
        {
          "internalType": "uint256",
          "name": "_id",
          "type": "uint256"
        }
      ],
      "name": "getPlainswalkerInfoById",
      "outputs": [
        {
          "internalType": "string",
          "name": "name",
          "type": "string"
        },
        {
          "internalType": "bool",
          "name": "isActive",
          "type": "bool"
        },
        {
          "internalType": "uint16",
          "name": "health",
          "type": "uint16"
        },
        {
          "internalType": "uint16[5]",
          "name": "mana",
          "type": "uint16[5]"
        }
      ],
      "stateMutability": "view",
      "type": "function"
    },
    {
      "inputs": [],
      "name": "isOwner",
      "outputs": [
        {
          "internalType": "bool",
          "name": "",
          "type": "bool"
        }
      ],
      "stateMutability": "view",
      "type": "function"
    },
    {
      "inputs": [],
      "name": "owner",
      "outputs": [
        {
          "internalType": "address",
          "name": "",
          "type": "address"
        }
      ],
      "stateMutability": "view",
      "type": "function"
    },
    {
      "inputs": [
        {
          "internalType": "address",
          "name": "",
          "type": "address"
        }
      ],
      "name": "ownerPlainsWalkerCount",
      "outputs": [
        {
          "internalType": "uint256",
          "name": "",
          "type": "uint256"
        }
      ],
      "stateMutability": "view",
      "type": "function"
    },
    {
      "inputs": [
        {
          "internalType": "uint256",
          "name": "",
          "type": "uint256"
        }
      ],
      "name": "plainsWalkerToOwner",
      "outputs": [
        {
          "internalType": "address",
          "name": "",
          "type": "address"
        }
      ],
      "stateMutability": "view",
      "type": "function"
    },
    {
      "inputs": [
        {
          "internalType": "string",
          "name": "_name",
          "type": "string"
        }
      ],
      "name": "purchasePlainsWalker",
      "outputs": [],
      "stateMutability": "payable",
      "type": "function"
    },
    {
      "inputs": [],
      "name": "renounceOwnership",
      "outputs": [],
      "stateMutability": "nonpayable",
      "type": "function"
    },
    {
      "inputs": [
        {
          "internalType": "uint256",
          "name": "_fee",
          "type": "uint256"
        }
      ],
      "name": "setPlainsWalkerFee",
      "outputs": [],
      "stateMutability": "nonpayable",
      "type": "function"
    },
    {
      "inputs": [
        {
          "internalType": "address",
          "name": "newOwner",
          "type": "address"
        }
      ],
      "name": "transferOwnership",
      "outputs": [],
      "stateMutability": "nonpayable",
      "type": "function"
    },
    {
      "inputs": [
        {
          "internalType": "address",
          "name": "_address",
          "type": "address"
        }
      ],
      "name": "setLandContractAddress",
      "outputs": [],
      "stateMutability": "nonpayable",
      "type": "function"
    },
    {
      "inputs": [
        {
          "internalType": "uint256",
          "name": "_plainsWalkerId",
          "type": "uint256"
        }
      ],
      "name": "revivePlainsWalker",
      "outputs": [],
      "stateMutability": "payable",
      "type": "function"
    },
    {
      "inputs": [
        {
          "internalType": "uint256",
          "name": "_plainsWalkerId",
          "type": "uint256"
        },
        {
          "internalType": "uint256",
          "name": "_landId",
          "type": "uint256"
        }
      ],
      "name": "collectManaFromLands",
      "outputs": [],
      "stateMutability": "nonpayable",
      "type": "function"
    },
    {
      "inputs": [
        {
          "internalType": "uint256",
          "name": "_plainsWalkerId",
          "type": "uint256"
        },
        {
          "internalType": "uint16",
          "name": "red",
          "type": "uint16"
        },
        {
          "internalType": "uint16",
          "name": "green",
          "type": "uint16"
        },
        {
          "internalType": "uint16",
          "name": "blue",
          "type": "uint16"
        },
        {
          "internalType": "uint16",
          "name": "black",
          "type": "uint16"
        },
        {
          "internalType": "uint16",
          "name": "white",
          "type": "uint16"
        }
      ],
      "name": "summonCreature",
      "outputs": [],
      "stateMutability": "nonpayable",
      "type": "function"
    },
    {
      "inputs": [
        {
          "internalType": "uint256",
          "name": "_plainsWalkerId",
          "type": "uint256"
        },
        {
          "internalType": "uint256",
          "name": "_creatureIndex",
          "type": "uint256"
        }
      ],
      "name": "setCreatureToDefend",
      "outputs": [],
      "stateMutability": "nonpayable",
      "type": "function"
    },
    {
      "inputs": [
        {
          "internalType": "uint256",
          "name": "_plainsWalkerId",
          "type": "uint256"
        },
        {
          "internalType": "uint256",
          "name": "_creatureIndex",
          "type": "uint256"
        }
      ],
      "name": "setCreatureToAttack",
      "outputs": [],
      "stateMutability": "nonpayable",
      "type": "function"
    },
    {
      "inputs": [
        {
          "internalType": "uint256",
          "name": "_plainsWalkerId",
          "type": "uint256"
        },
        {
          "internalType": "uint256",
          "name": "_creatureIndex",
          "type": "uint256"
        },
        {
          "internalType": "uint256",
          "name": "_targetPlainsWalkerId",
          "type": "uint256"
        }
      ],
      "name": "attackWithCreature",
      "outputs": [],
      "stateMutability": "nonpayable",
      "type": "function"
    }
  ],
  "bytecode": "0x6080604052620186a060015566470de4df82000060065534801561002257600080fd5b50336000806101000a81548173ffffffffffffffffffffffffffffffffffffffff021916908373ffffffffffffffffffffffffffffffffffffffff16021790555060008054906101000a900473ffffffffffffffffffffffffffffffffffffffff1673ffffffffffffffffffffffffffffffffffffffff16600073ffffffffffffffffffffffffffffffffffffffff167f8be0079c531659141344cd1fd0a4f28419497f9722a3daafe3b4186f6b6457e060405160405180910390a36131fd806100ed6000396000f3fe6080604052600436106101355760003560e01c80639421c7ca116100ab578063d09e51bc1161006f578063d09e51bc146106d5578063e22ee8041461071a578063e90a2ea3146107c0578063f0e27093146107eb578063f2fde38b146108e2578063fed31d4c1461093357610135565b80639421c7ca146104e4578063b1f0522f1461056a578063b74f7ded146105a5578063c39cbef1146105f6578063cfeb4c061461068657610135565b80637bba53e0116100fd5780637bba53e0146102b457806384cd63bb1461036f5780638da5cb5b1461039d5780638dab6beb146103de5780638f32d59b146104435780638f8930da1461047057610135565b806362032dff1461013a5780636e81bbc01461017f578063715018a6146101f3578063745c79a71461020a578063785c09161461026f575b600080fd5b34801561014657600080fd5b5061017d6004803603604081101561015d57600080fd5b8101908080359060200190929190803590602001909291905050506109b4565b005b34801561018b57600080fd5b506101b8600480360360208110156101a257600080fd5b8101908080359060200190929190505050610ba4565b604051808561ffff1681526020018461ffff1681526020018363ffffffff168152602001821515815260200194505050505060405180910390f35b3480156101ff57600080fd5b50610208610c5e565b005b34801561021657600080fd5b506102596004803603602081101561022d57600080fd5b81019080803573ffffffffffffffffffffffffffffffffffffffff169060200190929190505050610d2d565b6040518082815260200191505060405180910390f35b34801561027b57600080fd5b506102b26004803603604081101561029257600080fd5b810190808035906020019092919080359060200190929190505050610d45565b005b61036d600480360360208110156102ca57600080fd5b81019080803590602001906401000000008111156102e757600080fd5b8201836020820111156102f957600080fd5b8035906020019184600183028401116401000000008311171561031b57600080fd5b91908080601f016020809104026020016040519081016040528093929190818152602001838380828437600081840152601f19601f820116905080830192505050505050509192919290505050611117565b005b61039b6004803603602081101561038557600080fd5b8101908080359060200190929190505050611145565b005b3480156103a957600080fd5b506103b261126f565b604051808273ffffffffffffffffffffffffffffffffffffffff16815260200191505060405180910390f35b3480156103ea57600080fd5b506104176004803603602081101561040157600080fd5b8101908080359060200190929190505050611298565b604051808273ffffffffffffffffffffffffffffffffffffffff16815260200191505060405180910390f35b34801561044f57600080fd5b506104586112cb565b60405180821515815260200191505060405180910390f35b34801561047c57600080fd5b506104a96004803603602081101561049357600080fd5b8101908080359060200190929190505050611322565b604051808561ffff1681526020018461ffff1681526020018363ffffffff168152602001821515815260200194505050505060405180910390f35b3480156104f057600080fd5b506105686004803603602081101561050757600080fd5b810190808035906020019064010000000081111561052457600080fd5b82018360208201111561053657600080fd5b8035906020019184600183028401116401000000008311171561055857600080fd5b9091929391929390505050611394565b005b34801561057657600080fd5b506105a36004803603602081101561058d57600080fd5b810190808035906020019092919050505061149b565b005b3480156105b157600080fd5b506105f4600480360360208110156105c857600080fd5b81019080803573ffffffffffffffffffffffffffffffffffffffff1690602001909291905050506114b6565b005b34801561060257600080fd5b506106846004803603604081101561061957600080fd5b81019080803590602001909291908035906020019064010000000081111561064057600080fd5b82018360208201111561065257600080fd5b8035906020019184600183028401116401000000008311171561067457600080fd5b909192939192939050505061150b565b005b34801561069257600080fd5b506106d3600480360360608110156106a957600080fd5b810190808035906020019092919080359060200190929190803590602001909291905050506115ab565b005b3480156106e157600080fd5b50610718600480360360408110156106f857600080fd5b810190808035906020019092919080359060200190929190505050611c2e565b005b34801561072657600080fd5b506107696004803603602081101561073d57600080fd5b81019080803573ffffffffffffffffffffffffffffffffffffffff169060200190929190505050611dae565b6040518080602001828103825283818151815260200191508051906020019060200280838360005b838110156107ac578082015181840152602081019050610791565b505050509050019250505060405180910390f35b3480156107cc57600080fd5b506107d5611eeb565b6040518082815260200191505060405180910390f35b3480156107f757600080fd5b506108246004803603602081101561080e57600080fd5b8101908080359060200190929190505050611ef5565b604051808060200185151581526020018461ffff16815260200183600560200280838360005b8381101561086557808201518184015260208101905061084a565b50505050905001828103825286818151815260200191508051906020019080838360005b838110156108a4578082015181840152602081019050610889565b50505050905090810190601f1680156108d15780820380516001836020036101000a031916815260200191505b509550505050505060405180910390f35b3480156108ee57600080fd5b506109316004803603602081101561090557600080fd5b81019080803573ffffffffffffffffffffffffffffffffffffffff169060200190929190505050612116565b005b34801561093f57600080fd5b506109b2600480360360c081101561095657600080fd5b8101908080359060200190929190803561ffff169060200190929190803561ffff169060200190929190803561ffff169060200190929190803561ffff169060200190929190803561ffff169060200190929190505050612133565b005b816003600082815260200190815260200160002060009054906101000a900473ffffffffffffffffffffffffffffffffffffffff1673ffffffffffffffffffffffffffffffffffffffff163373ffffffffffffffffffffffffffffffffffffffff1614610a2057600080fd5b826001151560028281548110610a3257fe5b906000526020600020906004020160010160009054906101000a900460ff16151514610a5d57600080fd5b60001515600960028681548110610a7057fe5b90600052602060002090600402016003018581548110610a8c57fe5b906000526020600020015481548110610aa157fe5b9060005260206000200160000160089054906101000a900460ff16151514610ac857600080fd5b42600960028681548110610ad857fe5b90600052602060002090600402016003018581548110610af457fe5b906000526020600020015481548110610b0957fe5b9060005260206000200160000160049054906101000a900463ffffffff1663ffffffff161115610b3857600080fd5b6001600960028681548110610b4957fe5b90600052602060002090600402016003018581548110610b6557fe5b906000526020600020015481548110610b7a57fe5b9060005260206000200160000160086101000a81548160ff02191690831515021790555050505050565b60008060008060098581548110610bb757fe5b9060005260206000200160000160009054906101000a900461ffff1660098681548110610be057fe5b9060005260206000200160000160029054906101000a900461ffff1660098781548110610c0957fe5b9060005260206000200160000160049054906101000a900463ffffffff1660098881548110610c3457fe5b9060005260206000200160000160089054906101000a900460ff1693509350935093509193509193565b610c666112cb565b610c6f57600080fd5b600073ffffffffffffffffffffffffffffffffffffffff1660008054906101000a900473ffffffffffffffffffffffffffffffffffffffff1673ffffffffffffffffffffffffffffffffffffffff167f8be0079c531659141344cd1fd0a4f28419497f9722a3daafe3b4186f6b6457e060405160405180910390a360008060006101000a81548173ffffffffffffffffffffffffffffffffffffffff021916908373ffffffffffffffffffffffffffffffffffffffff160217905550565b60046020528060005260406000206000915090505481565b816003600082815260200190815260200160002060009054906101000a900473ffffffffffffffffffffffffffffffffffffffff1673ffffffffffffffffffffffffffffffffffffffff163373ffffffffffffffffffffffffffffffffffffffff1614610db157600080fd5b826001151560028281548110610dc357fe5b906000526020600020906004020160010160009054906101000a900460ff16151514610dee57600080fd5b610df6612f75565b600a60009054906101000a900473ffffffffffffffffffffffffffffffffffffffff1673ffffffffffffffffffffffffffffffffffffffff166316c38de933866040518363ffffffff1660e01b8152600401808373ffffffffffffffffffffffffffffffffffffffff1681526020018281526020019250505060a060405180830381600087803b158015610e8957600080fd5b505af1158015610e9d573d6000803e3d6000fd5b505050506040513d601f19601f8201168201806040525060a0811015610ec257600080fd5b8101908091905050905080600060058110610ed957fe5b602002015160028681548110610eeb57fe5b9060005260206000209060040201600201600060058110610f0857fe5b601091828204019190066002028282829054906101000a900461ffff160192506101000a81548161ffff021916908361ffff16021790555080600160058110610f4d57fe5b602002015160028681548110610f5f57fe5b9060005260206000209060040201600201600160058110610f7c57fe5b601091828204019190066002028282829054906101000a900461ffff160192506101000a81548161ffff021916908361ffff16021790555080600260058110610fc157fe5b602002015160028681548110610fd357fe5b9060005260206000209060040201600201600260058110610ff057fe5b601091828204019190066002028282829054906101000a900461ffff160192506101000a81548161ffff021916908361ffff1602179055508060036005811061103557fe5b60200201516002868154811061104757fe5b906000526020600020906004020160020160036005811061106457fe5b601091828204019190066002028282829054906101000a900461ffff160192506101000a81548161ffff021916908361ffff160217905550806004600581106110a957fe5b6020020151600286815481106110bb57fe5b90600052602060002090600402016002016004600581106110d857fe5b601091828204019190066002028282829054906101000a900461ffff160192506101000a81548161ffff021916908361ffff1602179055505050505050565b600654341461112557600080fd5b600061113182336123a0565b905061114182600083600061245d565b5050565b806003600082815260200190815260200160002060009054906101000a900473ffffffffffffffffffffffffffffffffffffffff1673ffffffffffffffffffffffffffffffffffffffff163373ffffffffffffffffffffffffffffffffffffffff16146111b157600080fd5b66038d7ea4c680003410156111c557600080fd5b6000600283815481106111d457fe5b906000526020600020906004020160010160099054906101000a900461ffff1661ffff161461120257600080fd5b60646002838154811061121157fe5b906000526020600020906004020160010160096101000a81548161ffff021916908361ffff160217905550600115156002838154811061124d57fe5b906000526020600020906004020160010160009054906101000a905050505050565b60008060009054906101000a900473ffffffffffffffffffffffffffffffffffffffff16905090565b60036020528060005260406000206000915054906101000a900473ffffffffffffffffffffffffffffffffffffffff1681565b60008060009054906101000a900473ffffffffffffffffffffffffffffffffffffffff1673ffffffffffffffffffffffffffffffffffffffff163373ffffffffffffffffffffffffffffffffffffffff1614905090565b6009818154811061132f57fe5b906000526020600020016000915090508060000160009054906101000a900461ffff16908060000160029054906101000a900461ffff16908060000160049054906101000a900463ffffffff16908060000160089054906101000a900460ff16905084565b60011515600560003373ffffffffffffffffffffffffffffffffffffffff1673ffffffffffffffffffffffffffffffffffffffff16815260200190815260200160002060009054906101000a900460ff16151514156113f257600080fd5b600061144283838080601f016020809104026020016040519081016040528093929190818152602001838380828437600081840152601f19601f82011690508083019250505050505050336123a0565b905061149683838080601f016020809104026020016040519081016040528093929190818152602001838380828437600081840152601f19601f82011690508083019250505050505050600183606461245d565b505050565b6114a36112cb565b6114ac57600080fd5b8060068190555050565b6114be6112cb565b6114c757600080fd5b80600a60006101000a81548173ffffffffffffffffffffffffffffffffffffffff021916908373ffffffffffffffffffffffffffffffffffffffff16021790555050565b826003600082815260200190815260200160002060009054906101000a900473ffffffffffffffffffffffffffffffffffffffff1673ffffffffffffffffffffffffffffffffffffffff163373ffffffffffffffffffffffffffffffffffffffff161461157757600080fd5b82826002868154811061158657fe5b906000526020600020906004020160000191906115a4929190612f97565b5050505050565b826003600082815260200190815260200160002060009054906101000a900473ffffffffffffffffffffffffffffffffffffffff1673ffffffffffffffffffffffffffffffffffffffff163373ffffffffffffffffffffffffffffffffffffffff161461161757600080fd5b83600115156002828154811061162957fe5b906000526020600020906004020160010160009054906101000a900460ff1615151461165457600080fd5b600115156002848154811061166557fe5b906000526020600020906004020160010160009054906101000a900460ff1615151461169057600080fd5b8285141561169d57600080fd5b60008080600090505b600286815481106116b357fe5b90600052602060002090600402016003018054905081101561175457600115156009600288815481106116e257fe5b906000526020600020906004020160030183815481106116fe57fe5b90600052602060002001548154811061171357fe5b9060005260206000200160000160089054906101000a900460ff161515141561173f5760019250611754565b818060010192505080806001019150506116a6565b506000151582151514156118b3576002858154811061176f57fe5b906000526020600020906004020160010160099054906101000a900461ffff1661ffff166009600289815481106117a257fe5b906000526020600020906004020160030188815481106117be57fe5b9060005260206000200154815481106117d357fe5b9060005260206000200160000160009054906101000a900461ffff1661ffff1610611806576118018561275a565b6118ae565b60096002888154811061181557fe5b9060005260206000209060040201600301878154811061183157fe5b90600052602060002001548154811061184657fe5b9060005260206000200160000160009054906101000a900461ffff166002868154811061186f57fe5b906000526020600020906004020160010160098282829054906101000a900461ffff160392506101000a81548161ffff021916908361ffff1602179055505b611c25565b6000806009600288815481106118c557fe5b906000526020600020906004020160030184815481106118e157fe5b9060005260206000200154815481106118f657fe5b9060005260206000200160000160029054906101000a900461ffff1661ffff16600960028b8154811061192557fe5b90600052602060002090600402016003018a8154811061194157fe5b90600052602060002001548154811061195657fe5b9060005260206000200160000160009054906101000a900461ffff1661ffff16106119845760019050611a5b565b600960028a8154811061199357fe5b906000526020600020906004020160030189815481106119af57fe5b9060005260206000200154815481106119c457fe5b9060005260206000200160000160009054906101000a900461ffff166009600289815481106119ef57fe5b90600052602060002090600402016003018581548110611a0b57fe5b906000526020600020015481548110611a2057fe5b9060005260206000200160000160028282829054906101000a900461ffff160392506101000a81548161ffff021916908361ffff1602179055505b600960028a81548110611a6a57fe5b90600052602060002090600402016003018981548110611a8657fe5b906000526020600020015481548110611a9b57fe5b9060005260206000200160000160029054906101000a900461ffff1661ffff16600960028981548110611aca57fe5b90600052602060002090600402016003018581548110611ae657fe5b906000526020600020015481548110611afb57fe5b9060005260206000200160000160009054906101000a900461ffff1661ffff1610611b295760019150611c00565b600960028881548110611b3857fe5b90600052602060002090600402016003018481548110611b5457fe5b906000526020600020015481548110611b6957fe5b9060005260206000200160000160009054906101000a900461ffff16600960028b81548110611b9457fe5b90600052602060002090600402016003018a81548110611bb057fe5b906000526020600020015481548110611bc557fe5b9060005260206000200160000160028282829054906101000a900461ffff160392506101000a81548161ffff021916908361ffff1602179055505b8115611c1157611c108989612938565b5b8015611c2257611c218784612938565b5b50505b50505050505050565b816003600082815260200190815260200160002060009054906101000a900473ffffffffffffffffffffffffffffffffffffffff1673ffffffffffffffffffffffffffffffffffffffff163373ffffffffffffffffffffffffffffffffffffffff1614611c9a57600080fd5b826001151560028281548110611cac57fe5b906000526020600020906004020160010160009054906101000a900460ff16151514611cd757600080fd5b60011515600960028681548110611cea57fe5b90600052602060002090600402016003018581548110611d0657fe5b906000526020600020015481548110611d1b57fe5b9060005260206000200160000160089054906101000a900460ff16151514611d4257600080fd5b6000600960028681548110611d5357fe5b90600052602060002090600402016003018581548110611d6f57fe5b906000526020600020015481548110611d8457fe5b9060005260206000200160000160086101000a81548160ff02191690831515021790555050505050565b606080600460008473ffffffffffffffffffffffffffffffffffffffff1673ffffffffffffffffffffffffffffffffffffffff1681526020019081526020016000205467ffffffffffffffff81118015611e0757600080fd5b50604051908082528060200260200182016040528015611e365781602001602082028036833780820191505090505b5090506000805b600280549050811015611ee0578473ffffffffffffffffffffffffffffffffffffffff166003600083815260200190815260200160002060009054906101000a900473ffffffffffffffffffffffffffffffffffffffff1673ffffffffffffffffffffffffffffffffffffffff161415611ed35780838381518110611ebe57fe5b60200260200101818152505081806001019250505b8080600101915050611e3d565b508192505050919050565b6000600654905090565b6060600080611f02612f75565b846003600082815260200190815260200160002060009054906101000a900473ffffffffffffffffffffffffffffffffffffffff1673ffffffffffffffffffffffffffffffffffffffff163373ffffffffffffffffffffffffffffffffffffffff1614611f6e57600080fd5b60028681548110611f7b57fe5b906000526020600020906004020160000160028781548110611f9957fe5b906000526020600020906004020160010160009054906101000a900460ff1660028881548110611fc557fe5b906000526020600020906004020160010160099054906101000a900461ffff1660028981548110611ff257fe5b9060005260206000209060040201600201838054600181600116156101000203166002900480601f0160208091040260200160405190810160405280929190818152602001828054600181600116156101000203166002900480156120985780601f1061206d57610100808354040283529160200191612098565b820191906000526020600020905b81548152906001019060200180831161207b57829003601f168201915b50505050509350806005806020026040519081016040528092919082600580156120ff576020028201916000905b82829054906101000a900461ffff1661ffff16815260200190600201906020826001010492830192600103820291508084116120c65790505b505050505090509450945094509450509193509193565b61211e6112cb565b61212757600080fd5b61213081612a64565b50565b856003600082815260200190815260200160002060009054906101000a900473ffffffffffffffffffffffffffffffffffffffff1673ffffffffffffffffffffffffffffffffffffffff163373ffffffffffffffffffffffffffffffffffffffff161461219f57600080fd5b8660011515600282815481106121b157fe5b906000526020600020906004020160010160009054906101000a900460ff161515146121dc57600080fd5b6121e4612f75565b6040518060a001604052808961ffff1661ffff1681526020018861ffff1661ffff1681526020018761ffff1661ffff1681526020018661ffff1661ffff1681526020018561ffff1661ffff16815250905060005b60058110156122b55781816005811061224d57fe5b602002015161ffff1660028b8154811061226357fe5b9060005260206000209060040201600201826005811061227f57fe5b601091828204019190066002029054906101000a900461ffff1661ffff1610156122a857600080fd5b8080600101915050612238565b5060005b6005811015612341578181600581106122ce57fe5b602002015160028b815481106122e057fe5b906000526020600020906004020160020182600581106122fc57fe5b601091828204019190066002028282829054906101000a900461ffff160392506101000a81548161ffff021916908361ffff16021790555080806001019150506122b9565b50600061234d82612b5b565b905060028a8154811061235c57fe5b906000526020600020906004020160030181908060018154018082558091505060019003906000526020600020016000909190919091505550505050505050505050565b60008083836002805490506040516020018084805190602001908083835b602083106123e157805182526020820191506020810190506020830392506123be565b6001836020036101000a0380198251168184511680821785525050505050509050018373ffffffffffffffffffffffffffffffffffffffff1660601b815260140182815260200193505050506040516020818303038152906040528051906020012060001c9050600154818161245357fe5b0691505092915050565b612465612f75565b606060026040518060c0016040528088815260200187151581526020018667ffffffffffffffff1681526020018561ffff16815260200184815260200183815250908060018154018082558091505060019003906000526020600020906004020160009091909190915060008201518160000190805190602001906124eb929190613017565b5060208201518160010160006101000a81548160ff02191690831515021790555060408201518160010160016101000a81548167ffffffffffffffff021916908367ffffffffffffffff16021790555060608201518160010160096101000a81548161ffff021916908361ffff160217905550608082015181600201906005612575929190613097565b5060a0820151816003019080519060200190612592929190613134565b50505060006001600280549050039050336003600083815260200190815260200160002060006101000a81548173ffffffffffffffffffffffffffffffffffffffff021916908373ffffffffffffffffffffffffffffffffffffffff1602179055506001600560003373ffffffffffffffffffffffffffffffffffffffff1673ffffffffffffffffffffffffffffffffffffffff16815260200190815260200160002060006101000a81548160ff021916908315150217905550600460003373ffffffffffffffffffffffffffffffffffffffff1673ffffffffffffffffffffffffffffffffffffffff168152602001908152602001600020600081548092919060010191905055507fd6481780172941270ed8b26ea7ea362972fa87c40e168becbfe47dc366ba45eb81888760405180848152602001806020018367ffffffffffffffff168152602001828103825284818151815260200191508051906020019080838360005b838110156127155780820151818401526020810190506126fa565b50505050905090810190601f1680156127425780820380516001836020036101000a031916815260200191505b5094505050505060405180910390a150505050505050565b612762612f75565b806002838154811061277057fe5b906000526020600020906004020160020190600561278f929190613097565b5060006002838154811061279f57fe5b906000526020600020906004020160010160096101000a81548161ffff021916908361ffff16021790555060005b600283815481106127da57fe5b9060005260206000209060040201600301805490508110156128ce5760086002848154811061280557fe5b9060005260206000209060040201600301828154811061282157fe5b906000526020600020015490806001815401808255809150506001900390600052602060002001600090919091909150556009818154811061285f57fe5b90600052602060002001600080820160006101000a81549061ffff02191690556000820160026101000a81549061ffff02191690556000820160046101000a81549063ffffffff02191690556000820160086101000a81549060ff0219169055505080806001019150506127cd565b50606080600284815481106128df57fe5b90600052602060002090600402016003019080519060200190612903929190613134565b50600015156002848154811061291557fe5b906000526020600020906004020160010160009054906101000a90505050505050565b60086002838154811061294757fe5b9060005260206000209060040201600301828154811061296357fe5b90600052602060002001549080600181540180825580915050600190039060005260206000200160009091909190915055600282815481106129a157fe5b90600052602060002090600402016003016001600284815481106129c157fe5b90600052602060002090600402016003018054905003815481106129e157fe5b9060005260206000200154600283815481106129f957fe5b90600052602060002090600402016003018281548110612a1557fe5b906000526020600020018190555060028281548110612a3057fe5b9060005260206000209060040201600301805480612a4a57fe5b600190038181906000526020600020016000905590555050565b600073ffffffffffffffffffffffffffffffffffffffff168173ffffffffffffffffffffffffffffffffffffffff161415612a9e57600080fd5b8073ffffffffffffffffffffffffffffffffffffffff1660008054906101000a900473ffffffffffffffffffffffffffffffffffffffff1673ffffffffffffffffffffffffffffffffffffffff167f8be0079c531659141344cd1fd0a4f28419497f9722a3daafe3b4186f6b6457e060405160405180910390a3806000806101000a81548173ffffffffffffffffffffffffffffffffffffffff021916908373ffffffffffffffffffffffffffffffffffffffff16021790555050565b60008060005b6005811015612b9057838160058110612b7657fe5b602002015161ffff16820191508080600101915050612b61565b5060008111612b9e57600080fd5b6000612bb4600283612ed290919063ffffffff16565b90506000819050612bf6612be7600287600060058110612bd057fe5b602002015161ffff16612ed290919063ffffffff16565b83612ef290919063ffffffff16565b9150612c33612c24600387600160058110612c0d57fe5b602002015161ffff16612ed290919063ffffffff16565b83612ef290919063ffffffff16565b9150612c70612c61600387600160058110612c4a57fe5b602002015161ffff16612ed290919063ffffffff16565b82612ef290919063ffffffff16565b9050612cad612c9e600287600260058110612c8757fe5b602002015161ffff16612ed290919063ffffffff16565b82612ef290919063ffffffff16565b9050612cea612cdb600287600360058110612cc457fe5b602002015161ffff16612ed290919063ffffffff16565b83612ef290919063ffffffff16565b9150612d27612d18600487600360058110612d0157fe5b602002015161ffff16612ed290919063ffffffff16565b82612ef290919063ffffffff16565b9050612d64612d55600287600460058110612d3e57fe5b602002015161ffff16612ed290919063ffffffff16565b82612ef290919063ffffffff16565b810190506000811415612d7a5780806001019150505b6000806008805490501415612da5576007549050600760008154809291906001019190505550612de9565b600860016008805490500381548110612dba57fe5b906000526020600020015490506008805480612dd257fe5b600190038181906000526020600020016000905590555b60405180608001604052808461ffff1681526020018361ffff168152602001615460420163ffffffff1681526020016000151581525060098281548110612e2c57fe5b9060005260206000200160008201518160000160006101000a81548161ffff021916908361ffff16021790555060208201518160000160026101000a81548161ffff021916908361ffff16021790555060408201518160000160046101000a81548163ffffffff021916908363ffffffff16021790555060608201518160000160086101000a81548160ff02191690831515021790555090505080945050505050919050565b6000808211612ee057600080fd5b818381612ee957fe5b04905092915050565b6000818301905082811015612f6f576040517f08c379a00000000000000000000000000000000000000000000000000000000081526004018080602001828103825260158152602001807f55696e74204f766572666c6f77204f636375726564000000000000000000000081525060200191505060405180910390fd5b92915050565b6040518060a00160405280600590602082028036833780820191505090505090565b828054600181600116156101000203166002900490600052602060002090601f016020900481019282601f10612fd857803560ff1916838001178555613006565b82800160010185558215613006579182015b82811115613005578235825591602001919060010190612fea565b5b5090506130139190613181565b5090565b828054600181600116156101000203166002900490600052602060002090601f016020900481019282601f1061305857805160ff1916838001178555613086565b82800160010185558215613086579182015b8281111561308557825182559160200191906001019061306a565b5b5090506130939190613181565b5090565b826005600f016010900481019282156131235791602002820160005b838211156130f357835183826101000a81548161ffff021916908361ffff16021790555092602001926002016020816001010492830192600103026130b3565b80156131215782816101000a81549061ffff02191690556002016020816001010492830192600103026130f3565b505b509050613130919061319e565b5090565b828054828255906000526020600020908101928215613170579160200282015b8281111561316f578251825591602001919060010190613154565b5b50905061317d9190613181565b5090565b5b8082111561319a576000816000905550600101613182565b5090565b5b808211156131c357600081816101000a81549061ffff02191690555060010161319f565b509056fea264697066735822122094526f64a9bcd8db92e08d363882a489226bad0f1cb1d24998d0e994e176790a64736f6c634300060c0033",
  "immutableReferences": {},
  "source": "pragma solidity >=0.4.22 <0.7.0;\n\nimport \"./PlainsWalkerHelper.sol\";\nimport \"./CreatureFactory.sol\";\n\ninterface LandInterface{\n    function _collectManaFromLand(address _owner, uint _landId) external returns(uint16[5] memory);\n}\n\n/**\n * @dev This contract holds most of the logic witten for MTG on the blockchain.\n */\ncontract GameLogic is PlainsWalkerHelper, CreatureFactory{\n\n    // The land contract so that plainsWalkers can harvest mana.\n    LandInterface landContract;\n\n    /**\n     * @dev A function so the owner of the contract can set the address of the land contract.\n     */\n    function setLandContractAddress(address _address) external onlyOwner {\n        landContract = LandInterface(_address);\n    }\n    \n    /**\n     * @dev A modifier to require that a plainsWalker is alive before takin any actions.\n     */\n    modifier isActive(uint _plainsWalkerId) {\n        require(plainsWalkers[_plainsWalkerId].isActive == true);\n        _;\n    }\n\n    /**\n     * @dev A function that resets all of a plainsWalkers attributes when they die.\n     */\n    function _plainsWalkerDied(uint _plainsWalkerId) internal {\n        uint16[5] memory mana;\n        plainsWalkers[_plainsWalkerId].mana = mana;\n        plainsWalkers[_plainsWalkerId].health = 0;\n        for (uint i; i < plainsWalkers[_plainsWalkerId].creatureList.length; i++){\n            deletedCreatureIds.push(plainsWalkers[_plainsWalkerId].creatureList[i]);\n            delete creatures[i];\n        }\n        uint[] memory creatureList;\n        plainsWalkers[_plainsWalkerId].creatureList = creatureList;\n        plainsWalkers[_plainsWalkerId].isActive == false;\n    }\n\n    /**\n     * @dev A function that revives a plainsWalker after it has died.\n     */\n    function revivePlainsWalker(uint _plainsWalkerId) external payable ownerOfPlainsWalker(_plainsWalkerId){\n        require(msg.value >= 0.001 ether);\n        require(plainsWalkers[_plainsWalkerId].health == 0);\n        plainsWalkers[_plainsWalkerId].health = 100;\n        plainsWalkers[_plainsWalkerId].isActive == true;\n    }\n    \n    /**\n     * @dev A function that intefaces with the land contract and collects mana from the land.\n     */\n    function collectManaFromLands(uint _plainsWalkerId, uint _landId) external ownerOfPlainsWalker(_plainsWalkerId) isActive(_plainsWalkerId){\n        uint16[5] memory mana = landContract._collectManaFromLand(msg.sender, _landId);\n        plainsWalkers[_plainsWalkerId].mana[0] += mana[0];\n        plainsWalkers[_plainsWalkerId].mana[1] += mana[1];\n        plainsWalkers[_plainsWalkerId].mana[2] += mana[2];\n        plainsWalkers[_plainsWalkerId].mana[3] += mana[3];\n        plainsWalkers[_plainsWalkerId].mana[4] += mana[4];\n    }\n    \n    /**\n     * @dev A function that summons a creature with by spending mana and assocciates the id of the creature with the \n     *  plainsWalker that summoned it.\n     */\n   function summonCreature(uint _plainsWalkerId, uint16 red,  uint16 green, uint16 blue, uint16 black, uint16 white) external ownerOfPlainsWalker(_plainsWalkerId) isActive(_plainsWalkerId){\n        // mana should be in this order ['Red', 'Green', 'Blue', 'Black', 'White'].\n        uint16[5] memory mana = [red, green, blue, black, white];\n        for (uint i; i < mana.length; i++){\n            require( plainsWalkers[_plainsWalkerId].mana[i] >= mana[i]);\n        }\n        for (uint i; i < mana.length; i++){\n            plainsWalkers[_plainsWalkerId].mana[i] -= mana[i];\n        }\n        uint id;\n        id = createCreature(mana);\n        plainsWalkers[_plainsWalkerId].creatureList.push(id);\n    }\n\n    /**\n     * @dev Sets a creature to defend \n     */\n    function setCreatureToDefend(uint _plainsWalkerId, uint _creatureIndex) external ownerOfPlainsWalker(_plainsWalkerId) isActive(_plainsWalkerId){\n        require(creatures[plainsWalkers[_plainsWalkerId].creatureList[_creatureIndex]].isDefending == false);\n        require(creatures[plainsWalkers[_plainsWalkerId].creatureList[_creatureIndex]].readyTime <= block.timestamp);\n        creatures[plainsWalkers[_plainsWalkerId].creatureList[_creatureIndex]].isDefending = true;\n    }\n    /**\n     * @dev Sets a creature to be able to attack\n     */\n    function setCreatureToAttack(uint _plainsWalkerId, uint _creatureIndex) external ownerOfPlainsWalker(_plainsWalkerId) isActive(_plainsWalkerId){\n        require(creatures[plainsWalkers[_plainsWalkerId].creatureList[_creatureIndex]].isDefending == true);\n        creatures[plainsWalkers[_plainsWalkerId].creatureList[_creatureIndex]].isDefending = false;\n    }\n    /**\n     * @dev Removes a creature, normally after it or a plainsWalker has died.\n     */\n    function delCreature(uint _plainsWalkerId, uint _creatureIndex) internal {\n        deletedCreatureIds.push(plainsWalkers[_plainsWalkerId].creatureList[_creatureIndex]);\n        plainsWalkers[_plainsWalkerId].creatureList[_creatureIndex] = plainsWalkers[_plainsWalkerId].creatureList[plainsWalkers[_plainsWalkerId].creatureList.length - 1];\n        plainsWalkers[_plainsWalkerId].creatureList.pop();\n    }\n    /**\n     * @dev A function that allows a plainswalker to command one of it's creatures to attack another plainswalker\n     */\n    function attackWithCreature(uint _plainsWalkerId, uint _creatureIndex, uint _targetPlainsWalkerId) external ownerOfPlainsWalker(_plainsWalkerId) isActive(_plainsWalkerId){\n        require(plainsWalkers[_targetPlainsWalkerId].isActive == true);\n        //  defender creatures[plainsWalkers[_targetPlainsWalkerId].creatureList[index]]\n        // attacker creatures[plainsWalkers[_plainsWalkerId].creatureList[_creatureIndex]]\n        require (_plainsWalkerId != _targetPlainsWalkerId);\n        bool foundCreature = false;\n        uint index;\n        for (uint i = 0; i < plainsWalkers[_targetPlainsWalkerId].creatureList.length; i++) {\n            if (creatures[plainsWalkers[_targetPlainsWalkerId].creatureList[i]].isDefending == true) {\n                foundCreature = true;\n                break;\n            }\n        index++;\n        }\n        if (foundCreature == false){\n            if (creatures[plainsWalkers[_plainsWalkerId].creatureList[_creatureIndex]].attack >= plainsWalkers[_targetPlainsWalkerId].health){\n                _plainsWalkerDied(_targetPlainsWalkerId);\n            } else {\n                plainsWalkers[_targetPlainsWalkerId].health -= creatures[plainsWalkers[_plainsWalkerId].creatureList[_creatureIndex]].attack;\n            }\n        } else {\n            bool attackerDied = false;\n            bool defenderDied = false;\n            if (creatures[plainsWalkers[_plainsWalkerId].creatureList[_creatureIndex]].attack >= creatures[plainsWalkers[_targetPlainsWalkerId].creatureList[index]].defence){\n                defenderDied = true;\n            } else {\n                creatures[plainsWalkers[_targetPlainsWalkerId].creatureList[index]].defence -= creatures[plainsWalkers[_plainsWalkerId].creatureList[_creatureIndex]].attack;\n            }\n            if (creatures[plainsWalkers[_targetPlainsWalkerId].creatureList[index]].attack >= creatures[plainsWalkers[_plainsWalkerId].creatureList[_creatureIndex]].defence){\n                attackerDied = true;\n            } else {\n                creatures[plainsWalkers[_plainsWalkerId].creatureList[_creatureIndex]].defence -= creatures[plainsWalkers[_targetPlainsWalkerId].creatureList[index]].attack;\n            }\n            if (attackerDied){\n                delCreature(_plainsWalkerId, _creatureIndex);\n            }\n            if (defenderDied){\n                delCreature(_targetPlainsWalkerId, index);\n            }\n        }\n\n    }\n}\n\n\n\n\n",
  "sourcePath": "/Users/johnminer/dev/mtg_on_blockchain/contracts/GameLogic.sol",
  "compiler": {
    "name": "solc",
    "version": "0.6.12+commit.27d51765.Emscripten.clang"
  },
  "schemaVersion": "3.3.0",
  "updatedAt": "2020-10-15T01:51:22.732Z",
  "devdoc": {
    "details": "This contract holds most of the logic witten for MTG on the blockchain.",
    "kind": "dev",
    "methods": {
      "attackWithCreature(uint256,uint256,uint256)": {
        "details": "A function that allows a plainswalker to command one of it's creatures to attack another plainswalker"
      },
      "changeName(uint256,string)": {
        "details": "change the name of a plainsWalker if you own it."
      },
      "collectManaFromLands(uint256,uint256)": {
        "details": "A function that intefaces with the land contract and collects mana from the land."
      },
      "createRandomPlainsWalker(string)": {
        "details": "External function to create a persons first plainsWalker"
      },
      "getCreatureInfoByIndex(uint256)": {
        "details": "A getter function for creature info."
      },
      "getPlainsWalkerFee()": {
        "details": "A function to tell users how much a plainsWalker costs"
      },
      "getPlainsWalkersByOwner(address)": {
        "details": "Find plainsWalkers by owner addresses."
      },
      "getPlainswalkerInfoById(uint256)": {
        "details": "Get information on a plainsWalker through its id."
      },
      "isOwner()": {
        "returns": {
          "_0": "true if `msg.sender` is the owner of the contract."
        }
      },
      "owner()": {
        "returns": {
          "_0": "the address of the owner."
        }
      },
      "purchasePlainsWalker(string)": {
        "details": "A function to purchase another plainswalker"
      },
      "renounceOwnership()": {
        "details": "Allows the current owner to relinquish control of the contract."
      },
      "revivePlainsWalker(uint256)": {
        "details": "A function that revives a plainsWalker after it has died."
      },
      "setCreatureToAttack(uint256,uint256)": {
        "details": "Sets a creature to be able to attack"
      },
      "setCreatureToDefend(uint256,uint256)": {
        "details": "Sets a creature to defend "
      },
      "setLandContractAddress(address)": {
        "details": "A function so the owner of the contract can set the address of the land contract."
      },
      "setPlainsWalkerFee(uint256)": {
        "details": "A function to set how much a plainsWalker costs"
      },
      "summonCreature(uint256,uint16,uint16,uint16,uint16,uint16)": {
        "details": "A function that summons a creature with by spending mana and assocciates the id of the creature with the   plainsWalker that summoned it."
      },
      "transferOwnership(address)": {
        "details": "Allows the current owner to transfer control of the contract to a newOwner.",
        "params": {
          "newOwner": "The address to transfer ownership to."
        }
      }
    },
    "version": 1
  },
  "userdoc": {
    "kind": "user",
    "methods": {
      "renounceOwnership()": {
        "notice": "Renouncing to ownership will leave the contract without an owner. It will not be possible to call the functions with the `onlyOwner` modifier anymore."
      }
    },
    "version": 1
  }
}