{
  "contractName": "GameLogicAs_ERC721",
  "abi": [
    {
      "anonymous": false,
      "inputs": [
        {
          "indexed": true,
          "internalType": "address",
          "name": "_owner",
          "type": "address"
        },
        {
          "indexed": true,
          "internalType": "address",
          "name": "_approved",
          "type": "address"
        },
        {
          "indexed": true,
          "internalType": "uint256",
          "name": "_tokenId",
          "type": "uint256"
        }
      ],
      "name": "Approval",
      "type": "event"
    },
    {
      "anonymous": false,
      "inputs": [
        {
          "indexed": false,
          "internalType": "uint256",
          "name": "PlainsWalkerId",
          "type": "uint256"
        },
        {
          "indexed": false,
          "internalType": "string",
          "name": "name",
          "type": "string"
        },
        {
          "indexed": false,
          "internalType": "uint256",
          "name": "dna",
          "type": "uint256"
        }
      ],
      "name": "NewPlainswalker",
      "type": "event"
    },
    {
      "anonymous": false,
      "inputs": [
        {
          "indexed": true,
          "internalType": "address",
          "name": "previousOwner",
          "type": "address"
        },
        {
          "indexed": true,
          "internalType": "address",
          "name": "newOwner",
          "type": "address"
        }
      ],
      "name": "OwnershipTransferred",
      "type": "event"
    },
    {
      "anonymous": false,
      "inputs": [
        {
          "indexed": true,
          "internalType": "address",
          "name": "_from",
          "type": "address"
        },
        {
          "indexed": true,
          "internalType": "address",
          "name": "_to",
          "type": "address"
        },
        {
          "indexed": true,
          "internalType": "uint256",
          "name": "_tokenId",
          "type": "uint256"
        }
      ],
      "name": "Transfer",
      "type": "event"
    },
    {
      "inputs": [
        {
          "internalType": "uint256",
          "name": "_plainsWalkerId",
          "type": "uint256"
        },
        {
          "internalType": "uint256",
          "name": "_creatureIndex",
          "type": "uint256"
        },
        {
          "internalType": "uint256",
          "name": "_targetPlainsWalkerId",
          "type": "uint256"
        }
      ],
      "name": "attackWithCreature",
      "outputs": [],
      "stateMutability": "nonpayable",
      "type": "function"
    },
    {
      "inputs": [
        {
          "internalType": "uint256",
          "name": "_plainsWalkerId",
          "type": "uint256"
        },
        {
          "internalType": "string",
          "name": "_newName",
          "type": "string"
        }
      ],
      "name": "changeName",
      "outputs": [],
      "stateMutability": "nonpayable",
      "type": "function"
    },
    {
      "inputs": [
        {
          "internalType": "uint256",
          "name": "_plainsWalkerId",
          "type": "uint256"
        },
        {
          "internalType": "uint256",
          "name": "_landId",
          "type": "uint256"
        }
      ],
      "name": "collectManaFromLands",
      "outputs": [],
      "stateMutability": "nonpayable",
      "type": "function"
    },
    {
      "inputs": [
        {
          "internalType": "string",
          "name": "_name",
          "type": "string"
        }
      ],
      "name": "createRandomPlainsWalker",
      "outputs": [],
      "stateMutability": "nonpayable",
      "type": "function"
    },
    {
      "inputs": [
        {
          "internalType": "uint256",
          "name": "",
          "type": "uint256"
        }
      ],
      "name": "creatures",
      "outputs": [
        {
          "internalType": "uint16",
          "name": "attack",
          "type": "uint16"
        },
        {
          "internalType": "uint16",
          "name": "defence",
          "type": "uint16"
        },
        {
          "internalType": "uint32",
          "name": "readyTime",
          "type": "uint32"
        },
        {
          "internalType": "bool",
          "name": "isDefending",
          "type": "bool"
        }
      ],
      "stateMutability": "view",
      "type": "function"
    },
    {
      "inputs": [
        {
          "internalType": "uint256",
          "name": "_id",
          "type": "uint256"
        }
      ],
      "name": "getCreatureInfoByIndex",
      "outputs": [
        {
          "internalType": "uint16",
          "name": "attack",
          "type": "uint16"
        },
        {
          "internalType": "uint16",
          "name": "defence",
          "type": "uint16"
        },
        {
          "internalType": "uint32",
          "name": "readyTime",
          "type": "uint32"
        },
        {
          "internalType": "bool",
          "name": "isDefending",
          "type": "bool"
        }
      ],
      "stateMutability": "view",
      "type": "function"
    },
    {
      "inputs": [],
      "name": "getPlainsWalkerFee",
      "outputs": [
        {
          "internalType": "uint256",
          "name": "",
          "type": "uint256"
        }
      ],
      "stateMutability": "view",
      "type": "function"
    },
    {
      "inputs": [
        {
          "internalType": "address",
          "name": "_owner",
          "type": "address"
        }
      ],
      "name": "getPlainsWalkersByOwner",
      "outputs": [
        {
          "internalType": "uint256[]",
          "name": "",
          "type": "uint256[]"
        }
      ],
      "stateMutability": "view",
      "type": "function"
    },
    {
      "inputs": [
        {
          "internalType": "uint256",
          "name": "_id",
          "type": "uint256"
        }
      ],
      "name": "getPlainswalkerInfoById",
      "outputs": [
        {
          "internalType": "string",
          "name": "name",
          "type": "string"
        },
        {
          "internalType": "bool",
          "name": "isActive",
          "type": "bool"
        },
        {
          "internalType": "uint16",
          "name": "health",
          "type": "uint16"
        },
        {
          "internalType": "uint16[5]",
          "name": "mana",
          "type": "uint16[5]"
        }
      ],
      "stateMutability": "view",
      "type": "function"
    },
    {
      "inputs": [],
      "name": "isOwner",
      "outputs": [
        {
          "internalType": "bool",
          "name": "",
          "type": "bool"
        }
      ],
      "stateMutability": "view",
      "type": "function"
    },
    {
      "inputs": [],
      "name": "owner",
      "outputs": [
        {
          "internalType": "address",
          "name": "",
          "type": "address"
        }
      ],
      "stateMutability": "view",
      "type": "function"
    },
    {
      "inputs": [
        {
          "internalType": "address",
          "name": "",
          "type": "address"
        }
      ],
      "name": "ownerPlainsWalkerCount",
      "outputs": [
        {
          "internalType": "uint256",
          "name": "",
          "type": "uint256"
        }
      ],
      "stateMutability": "view",
      "type": "function"
    },
    {
      "inputs": [
        {
          "internalType": "uint256",
          "name": "",
          "type": "uint256"
        }
      ],
      "name": "plainsWalkerToOwner",
      "outputs": [
        {
          "internalType": "address",
          "name": "",
          "type": "address"
        }
      ],
      "stateMutability": "view",
      "type": "function"
    },
    {
      "inputs": [
        {
          "internalType": "string",
          "name": "_name",
          "type": "string"
        }
      ],
      "name": "purchasePlainsWalker",
      "outputs": [],
      "stateMutability": "payable",
      "type": "function"
    },
    {
      "inputs": [],
      "name": "renounceOwnership",
      "outputs": [],
      "stateMutability": "nonpayable",
      "type": "function"
    },
    {
      "inputs": [
        {
          "internalType": "uint256",
          "name": "_plainsWalkerId",
          "type": "uint256"
        }
      ],
      "name": "revivePlainsWalker",
      "outputs": [],
      "stateMutability": "payable",
      "type": "function"
    },
    {
      "inputs": [
        {
          "internalType": "uint256",
          "name": "_plainsWalkerId",
          "type": "uint256"
        },
        {
          "internalType": "uint256",
          "name": "_creatureIndex",
          "type": "uint256"
        }
      ],
      "name": "setCreatureToAttack",
      "outputs": [],
      "stateMutability": "nonpayable",
      "type": "function"
    },
    {
      "inputs": [
        {
          "internalType": "uint256",
          "name": "_plainsWalkerId",
          "type": "uint256"
        },
        {
          "internalType": "uint256",
          "name": "_creatureIndex",
          "type": "uint256"
        }
      ],
      "name": "setCreatureToDefend",
      "outputs": [],
      "stateMutability": "nonpayable",
      "type": "function"
    },
    {
      "inputs": [
        {
          "internalType": "address",
          "name": "_address",
          "type": "address"
        }
      ],
      "name": "setLandContractAddress",
      "outputs": [],
      "stateMutability": "nonpayable",
      "type": "function"
    },
    {
      "inputs": [
        {
          "internalType": "uint256",
          "name": "_fee",
          "type": "uint256"
        }
      ],
      "name": "setPlainsWalkerFee",
      "outputs": [],
      "stateMutability": "nonpayable",
      "type": "function"
    },
    {
      "inputs": [
        {
          "internalType": "uint256",
          "name": "_plainsWalkerId",
          "type": "uint256"
        },
        {
          "internalType": "uint16",
          "name": "red",
          "type": "uint16"
        },
        {
          "internalType": "uint16",
          "name": "green",
          "type": "uint16"
        },
        {
          "internalType": "uint16",
          "name": "blue",
          "type": "uint16"
        },
        {
          "internalType": "uint16",
          "name": "black",
          "type": "uint16"
        },
        {
          "internalType": "uint16",
          "name": "white",
          "type": "uint16"
        }
      ],
      "name": "summonCreature",
      "outputs": [],
      "stateMutability": "nonpayable",
      "type": "function"
    },
    {
      "inputs": [
        {
          "internalType": "address",
          "name": "newOwner",
          "type": "address"
        }
      ],
      "name": "transferOwnership",
      "outputs": [],
      "stateMutability": "nonpayable",
      "type": "function"
    },
    {
      "inputs": [
        {
          "internalType": "address",
          "name": "_owner",
          "type": "address"
        }
      ],
      "name": "balanceOf",
      "outputs": [
        {
          "internalType": "uint256",
          "name": "",
          "type": "uint256"
        }
      ],
      "stateMutability": "view",
      "type": "function"
    },
    {
      "inputs": [
        {
          "internalType": "uint256",
          "name": "_tokenId",
          "type": "uint256"
        }
      ],
      "name": "ownerOf",
      "outputs": [
        {
          "internalType": "address",
          "name": "",
          "type": "address"
        }
      ],
      "stateMutability": "view",
      "type": "function"
    },
    {
      "inputs": [
        {
          "internalType": "address",
          "name": "_from",
          "type": "address"
        },
        {
          "internalType": "address",
          "name": "_to",
          "type": "address"
        },
        {
          "internalType": "uint256",
          "name": "_tokenId",
          "type": "uint256"
        }
      ],
      "name": "safeTransferFrom",
      "outputs": [],
      "stateMutability": "nonpayable",
      "type": "function"
    },
    {
      "inputs": [
        {
          "internalType": "address",
          "name": "_approved",
          "type": "address"
        },
        {
          "internalType": "uint256",
          "name": "_tokenId",
          "type": "uint256"
        }
      ],
      "name": "approve",
      "outputs": [],
      "stateMutability": "payable",
      "type": "function"
    }
  ],
  "bytecode": "0x6080604052620186a060015566470de4df82000060065534801561002257600080fd5b50336000806101000a81548173ffffffffffffffffffffffffffffffffffffffff021916908373ffffffffffffffffffffffffffffffffffffffff16021790555060008054906101000a900473ffffffffffffffffffffffffffffffffffffffff1673ffffffffffffffffffffffffffffffffffffffff16600073ffffffffffffffffffffffffffffffffffffffff167f8be0079c531659141344cd1fd0a4f28419497f9722a3daafe3b4186f6b6457e060405160405180910390a361385c806100ed6000396000f3fe6080604052600436106101815760003560e01c80638f32d59b116100d1578063cfeb4c061161008a578063e90a2ea311610064578063e90a2ea31461099f578063f0e27093146109ca578063f2fde38b14610ac1578063fed31d4c14610b1257610181565b8063cfeb4c0614610865578063d09e51bc146108b4578063e22ee804146108f957610181565b80638f32d59b146106225780638f8930da1461064f5780639421c7ca146106c3578063b1f0522f14610749578063b74f7ded14610784578063c39cbef1146107d557610181565b8063715018a61161013e5780637bba53e0116101185780637bba53e01461049357806384cd63bb1461054e5780638da5cb5b1461057c5780638dab6beb146105bd57610181565b8063715018a6146103d2578063745c79a7146103e9578063785c09161461044e57610181565b8063095ea7b31461018657806342842e0e146101d457806362032dff1461024f5780636352211e146102945780636e81bbc0146102f957806370a082311461036d575b600080fd5b6101d26004803603604081101561019c57600080fd5b81019080803573ffffffffffffffffffffffffffffffffffffffff16906020019092919080359060200190929190505050610b93565b005b3480156101e057600080fd5b5061024d600480360360608110156101f757600080fd5b81019080803573ffffffffffffffffffffffffffffffffffffffff169060200190929190803573ffffffffffffffffffffffffffffffffffffffff16906020019092919080359060200190929190505050610cb1565b005b34801561025b57600080fd5b506102926004803603604081101561027257600080fd5b810190808035906020019092919080359060200190929190505050610d95565b005b3480156102a057600080fd5b506102cd600480360360208110156102b757600080fd5b8101908080359060200190929190505050610f85565b604051808273ffffffffffffffffffffffffffffffffffffffff16815260200191505060405180910390f35b34801561030557600080fd5b506103326004803603602081101561031c57600080fd5b8101908080359060200190929190505050610fc2565b604051808561ffff1681526020018461ffff1681526020018363ffffffff168152602001821515815260200194505050505060405180910390f35b34801561037957600080fd5b506103bc6004803603602081101561039057600080fd5b81019080803573ffffffffffffffffffffffffffffffffffffffff16906020019092919050505061107c565b6040518082815260200191505060405180910390f35b3480156103de57600080fd5b506103e76110c5565b005b3480156103f557600080fd5b506104386004803603602081101561040c57600080fd5b81019080803573ffffffffffffffffffffffffffffffffffffffff169060200190929190505050611194565b6040518082815260200191505060405180910390f35b34801561045a57600080fd5b506104916004803603604081101561047157600080fd5b8101908080359060200190929190803590602001909291905050506111ac565b005b61054c600480360360208110156104a957600080fd5b81019080803590602001906401000000008111156104c657600080fd5b8201836020820111156104d857600080fd5b803590602001918460018302840111640100000000831117156104fa57600080fd5b91908080601f016020809104026020016040519081016040528093929190818152602001838380828437600081840152601f19601f82011690508083019250505050505050919291929050505061157e565b005b61057a6004803603602081101561056457600080fd5b81019080803590602001909291905050506115ac565b005b34801561058857600080fd5b506105916116d6565b604051808273ffffffffffffffffffffffffffffffffffffffff16815260200191505060405180910390f35b3480156105c957600080fd5b506105f6600480360360208110156105e057600080fd5b81019080803590602001909291905050506116ff565b604051808273ffffffffffffffffffffffffffffffffffffffff16815260200191505060405180910390f35b34801561062e57600080fd5b50610637611732565b60405180821515815260200191505060405180910390f35b34801561065b57600080fd5b506106886004803603602081101561067257600080fd5b8101908080359060200190929190505050611789565b604051808561ffff1681526020018461ffff1681526020018363ffffffff168152602001821515815260200194505050505060405180910390f35b3480156106cf57600080fd5b50610747600480360360208110156106e657600080fd5b810190808035906020019064010000000081111561070357600080fd5b82018360208201111561071557600080fd5b8035906020019184600183028401116401000000008311171561073757600080fd5b90919293919293905050506117fb565b005b34801561075557600080fd5b506107826004803603602081101561076c57600080fd5b8101908080359060200190929190505050611902565b005b34801561079057600080fd5b506107d3600480360360208110156107a757600080fd5b81019080803573ffffffffffffffffffffffffffffffffffffffff16906020019092919050505061191d565b005b3480156107e157600080fd5b50610863600480360360408110156107f857600080fd5b81019080803590602001909291908035906020019064010000000081111561081f57600080fd5b82018360208201111561083157600080fd5b8035906020019184600183028401116401000000008311171561085357600080fd5b9091929391929390505050611972565b005b34801561087157600080fd5b506108b26004803603606081101561088857600080fd5b81019080803590602001909291908035906020019092919080359060200190929190505050611a12565b005b3480156108c057600080fd5b506108f7600480360360408110156108d757600080fd5b810190808035906020019092919080359060200190929190505050612095565b005b34801561090557600080fd5b506109486004803603602081101561091c57600080fd5b81019080803573ffffffffffffffffffffffffffffffffffffffff169060200190929190505050612215565b6040518080602001828103825283818151815260200191508051906020019060200280838360005b8381101561098b578082015181840152602081019050610970565b505050509050019250505060405180910390f35b3480156109ab57600080fd5b506109b4612352565b6040518082815260200191505060405180910390f35b3480156109d657600080fd5b50610a03600480360360208110156109ed57600080fd5b810190808035906020019092919050505061235c565b604051808060200185151581526020018461ffff16815260200183600560200280838360005b83811015610a44578082015181840152602081019050610a29565b50505050905001828103825286818151815260200191508051906020019080838360005b83811015610a83578082015181840152602081019050610a68565b50505050905090810190601f168015610ab05780820380516001836020036101000a031916815260200191505b509550505050505060405180910390f35b348015610acd57600080fd5b50610b1060048036036020811015610ae457600080fd5b81019080803573ffffffffffffffffffffffffffffffffffffffff16906020019092919050505061257d565b005b348015610b1e57600080fd5b50610b91600480360360c0811015610b3557600080fd5b8101908080359060200190929190803561ffff169060200190929190803561ffff169060200190929190803561ffff169060200190929190803561ffff169060200190929190803561ffff16906020019092919050505061259a565b005b806003600082815260200190815260200160002060009054906101000a900473ffffffffffffffffffffffffffffffffffffffff1673ffffffffffffffffffffffffffffffffffffffff163373ffffffffffffffffffffffffffffffffffffffff1614610bff57600080fd5b82600b600084815260200190815260200160002060006101000a81548173ffffffffffffffffffffffffffffffffffffffff021916908373ffffffffffffffffffffffffffffffffffffffff160217905550818373ffffffffffffffffffffffffffffffffffffffff163373ffffffffffffffffffffffffffffffffffffffff167f8c5be1e5ebec7d5bd14f71427d1e84f3dd0314c0f7b2291e5b200ac8c7c3b92560405160405180910390a4505050565b3373ffffffffffffffffffffffffffffffffffffffff166003600083815260200190815260200160002060009054906101000a900473ffffffffffffffffffffffffffffffffffffffff1673ffffffffffffffffffffffffffffffffffffffff161480610d7c57503373ffffffffffffffffffffffffffffffffffffffff16600b600083815260200190815260200160002060009054906101000a900473ffffffffffffffffffffffffffffffffffffffff1673ffffffffffffffffffffffffffffffffffffffff16145b610d8557600080fd5b610d90838383612807565b505050565b816003600082815260200190815260200160002060009054906101000a900473ffffffffffffffffffffffffffffffffffffffff1673ffffffffffffffffffffffffffffffffffffffff163373ffffffffffffffffffffffffffffffffffffffff1614610e0157600080fd5b826001151560028281548110610e1357fe5b906000526020600020906004020160010160009054906101000a900460ff16151514610e3e57600080fd5b60001515600960028681548110610e5157fe5b90600052602060002090600402016003018581548110610e6d57fe5b906000526020600020015481548110610e8257fe5b9060005260206000200160000160089054906101000a900460ff16151514610ea957600080fd5b42600960028681548110610eb957fe5b90600052602060002090600402016003018581548110610ed557fe5b906000526020600020015481548110610eea57fe5b9060005260206000200160000160049054906101000a900463ffffffff1663ffffffff161115610f1957600080fd5b6001600960028681548110610f2a57fe5b90600052602060002090600402016003018581548110610f4657fe5b906000526020600020015481548110610f5b57fe5b9060005260206000200160000160086101000a81548160ff02191690831515021790555050505050565b60006003600083815260200190815260200160002060009054906101000a900473ffffffffffffffffffffffffffffffffffffffff169050919050565b60008060008060098581548110610fd557fe5b9060005260206000200160000160009054906101000a900461ffff1660098681548110610ffe57fe5b9060005260206000200160000160029054906101000a900461ffff166009878154811061102757fe5b9060005260206000200160000160049054906101000a900463ffffffff166009888154811061105257fe5b9060005260206000200160000160089054906101000a900460ff1693509350935093509193509193565b6000600460008373ffffffffffffffffffffffffffffffffffffffff1673ffffffffffffffffffffffffffffffffffffffff168152602001908152602001600020549050919050565b6110cd611732565b6110d657600080fd5b600073ffffffffffffffffffffffffffffffffffffffff1660008054906101000a900473ffffffffffffffffffffffffffffffffffffffff1673ffffffffffffffffffffffffffffffffffffffff167f8be0079c531659141344cd1fd0a4f28419497f9722a3daafe3b4186f6b6457e060405160405180910390a360008060006101000a81548173ffffffffffffffffffffffffffffffffffffffff021916908373ffffffffffffffffffffffffffffffffffffffff160217905550565b60046020528060005260406000206000915090505481565b816003600082815260200190815260200160002060009054906101000a900473ffffffffffffffffffffffffffffffffffffffff1673ffffffffffffffffffffffffffffffffffffffff163373ffffffffffffffffffffffffffffffffffffffff161461121857600080fd5b82600115156002828154811061122a57fe5b906000526020600020906004020160010160009054906101000a900460ff1615151461125557600080fd5b61125d6135d4565b600a60009054906101000a900473ffffffffffffffffffffffffffffffffffffffff1673ffffffffffffffffffffffffffffffffffffffff166316c38de933866040518363ffffffff1660e01b8152600401808373ffffffffffffffffffffffffffffffffffffffff1681526020018281526020019250505060a060405180830381600087803b1580156112f057600080fd5b505af1158015611304573d6000803e3d6000fd5b505050506040513d601f19601f8201168201806040525060a081101561132957600080fd5b810190809190505090508060006005811061134057fe5b60200201516002868154811061135257fe5b906000526020600020906004020160020160006005811061136f57fe5b601091828204019190066002028282829054906101000a900461ffff160192506101000a81548161ffff021916908361ffff160217905550806001600581106113b457fe5b6020020151600286815481106113c657fe5b90600052602060002090600402016002016001600581106113e357fe5b601091828204019190066002028282829054906101000a900461ffff160192506101000a81548161ffff021916908361ffff1602179055508060026005811061142857fe5b60200201516002868154811061143a57fe5b906000526020600020906004020160020160026005811061145757fe5b601091828204019190066002028282829054906101000a900461ffff160192506101000a81548161ffff021916908361ffff1602179055508060036005811061149c57fe5b6020020151600286815481106114ae57fe5b90600052602060002090600402016002016003600581106114cb57fe5b601091828204019190066002028282829054906101000a900461ffff160192506101000a81548161ffff021916908361ffff1602179055508060046005811061151057fe5b60200201516002868154811061152257fe5b906000526020600020906004020160020160046005811061153f57fe5b601091828204019190066002028282829054906101000a900461ffff160192506101000a81548161ffff021916908361ffff1602179055505050505050565b600654341461158c57600080fd5b600061159882336129e5565b90506115a8826000836000612aa2565b5050565b806003600082815260200190815260200160002060009054906101000a900473ffffffffffffffffffffffffffffffffffffffff1673ffffffffffffffffffffffffffffffffffffffff163373ffffffffffffffffffffffffffffffffffffffff161461161857600080fd5b66038d7ea4c6800034101561162c57600080fd5b60006002838154811061163b57fe5b906000526020600020906004020160010160099054906101000a900461ffff1661ffff161461166957600080fd5b60646002838154811061167857fe5b906000526020600020906004020160010160096101000a81548161ffff021916908361ffff16021790555060011515600283815481106116b457fe5b906000526020600020906004020160010160009054906101000a905050505050565b60008060009054906101000a900473ffffffffffffffffffffffffffffffffffffffff16905090565b60036020528060005260406000206000915054906101000a900473ffffffffffffffffffffffffffffffffffffffff1681565b60008060009054906101000a900473ffffffffffffffffffffffffffffffffffffffff1673ffffffffffffffffffffffffffffffffffffffff163373ffffffffffffffffffffffffffffffffffffffff1614905090565b6009818154811061179657fe5b906000526020600020016000915090508060000160009054906101000a900461ffff16908060000160029054906101000a900461ffff16908060000160049054906101000a900463ffffffff16908060000160089054906101000a900460ff16905084565b60011515600560003373ffffffffffffffffffffffffffffffffffffffff1673ffffffffffffffffffffffffffffffffffffffff16815260200190815260200160002060009054906101000a900460ff161515141561185957600080fd5b60006118a983838080601f016020809104026020016040519081016040528093929190818152602001838380828437600081840152601f19601f82011690508083019250505050505050336129e5565b90506118fd83838080601f016020809104026020016040519081016040528093929190818152602001838380828437600081840152601f19601f820116905080830192505050505050506001836064612aa2565b505050565b61190a611732565b61191357600080fd5b8060068190555050565b611925611732565b61192e57600080fd5b80600a60006101000a81548173ffffffffffffffffffffffffffffffffffffffff021916908373ffffffffffffffffffffffffffffffffffffffff16021790555050565b826003600082815260200190815260200160002060009054906101000a900473ffffffffffffffffffffffffffffffffffffffff1673ffffffffffffffffffffffffffffffffffffffff163373ffffffffffffffffffffffffffffffffffffffff16146119de57600080fd5b8282600286815481106119ed57fe5b90600052602060002090600402016000019190611a0b9291906135f6565b5050505050565b826003600082815260200190815260200160002060009054906101000a900473ffffffffffffffffffffffffffffffffffffffff1673ffffffffffffffffffffffffffffffffffffffff163373ffffffffffffffffffffffffffffffffffffffff1614611a7e57600080fd5b836001151560028281548110611a9057fe5b906000526020600020906004020160010160009054906101000a900460ff16151514611abb57600080fd5b6001151560028481548110611acc57fe5b906000526020600020906004020160010160009054906101000a900460ff16151514611af757600080fd5b82851415611b0457600080fd5b60008080600090505b60028681548110611b1a57fe5b906000526020600020906004020160030180549050811015611bbb5760011515600960028881548110611b4957fe5b90600052602060002090600402016003018381548110611b6557fe5b906000526020600020015481548110611b7a57fe5b9060005260206000200160000160089054906101000a900460ff1615151415611ba65760019250611bbb565b81806001019250508080600101915050611b0d565b50600015158215151415611d1a5760028581548110611bd657fe5b906000526020600020906004020160010160099054906101000a900461ffff1661ffff16600960028981548110611c0957fe5b90600052602060002090600402016003018881548110611c2557fe5b906000526020600020015481548110611c3a57fe5b9060005260206000200160000160009054906101000a900461ffff1661ffff1610611c6d57611c6885612d9f565b611d15565b600960028881548110611c7c57fe5b90600052602060002090600402016003018781548110611c9857fe5b906000526020600020015481548110611cad57fe5b9060005260206000200160000160009054906101000a900461ffff1660028681548110611cd657fe5b906000526020600020906004020160010160098282829054906101000a900461ffff160392506101000a81548161ffff021916908361ffff1602179055505b61208c565b600080600960028881548110611d2c57fe5b90600052602060002090600402016003018481548110611d4857fe5b906000526020600020015481548110611d5d57fe5b9060005260206000200160000160029054906101000a900461ffff1661ffff16600960028b81548110611d8c57fe5b90600052602060002090600402016003018a81548110611da857fe5b906000526020600020015481548110611dbd57fe5b9060005260206000200160000160009054906101000a900461ffff1661ffff1610611deb5760019050611ec2565b600960028a81548110611dfa57fe5b90600052602060002090600402016003018981548110611e1657fe5b906000526020600020015481548110611e2b57fe5b9060005260206000200160000160009054906101000a900461ffff16600960028981548110611e5657fe5b90600052602060002090600402016003018581548110611e7257fe5b906000526020600020015481548110611e8757fe5b9060005260206000200160000160028282829054906101000a900461ffff160392506101000a81548161ffff021916908361ffff1602179055505b600960028a81548110611ed157fe5b90600052602060002090600402016003018981548110611eed57fe5b906000526020600020015481548110611f0257fe5b9060005260206000200160000160029054906101000a900461ffff1661ffff16600960028981548110611f3157fe5b90600052602060002090600402016003018581548110611f4d57fe5b906000526020600020015481548110611f6257fe5b9060005260206000200160000160009054906101000a900461ffff1661ffff1610611f905760019150612067565b600960028881548110611f9f57fe5b90600052602060002090600402016003018481548110611fbb57fe5b906000526020600020015481548110611fd057fe5b9060005260206000200160000160009054906101000a900461ffff16600960028b81548110611ffb57fe5b90600052602060002090600402016003018a8154811061201757fe5b90600052602060002001548154811061202c57fe5b9060005260206000200160000160028282829054906101000a900461ffff160392506101000a81548161ffff021916908361ffff1602179055505b8115612078576120778989612f7d565b5b8015612089576120888784612f7d565b5b50505b50505050505050565b816003600082815260200190815260200160002060009054906101000a900473ffffffffffffffffffffffffffffffffffffffff1673ffffffffffffffffffffffffffffffffffffffff163373ffffffffffffffffffffffffffffffffffffffff161461210157600080fd5b82600115156002828154811061211357fe5b906000526020600020906004020160010160009054906101000a900460ff1615151461213e57600080fd5b6001151560096002868154811061215157fe5b9060005260206000209060040201600301858154811061216d57fe5b90600052602060002001548154811061218257fe5b9060005260206000200160000160089054906101000a900460ff161515146121a957600080fd5b60006009600286815481106121ba57fe5b906000526020600020906004020160030185815481106121d657fe5b9060005260206000200154815481106121eb57fe5b9060005260206000200160000160086101000a81548160ff02191690831515021790555050505050565b606080600460008473ffffffffffffffffffffffffffffffffffffffff1673ffffffffffffffffffffffffffffffffffffffff1681526020019081526020016000205467ffffffffffffffff8111801561226e57600080fd5b5060405190808252806020026020018201604052801561229d5781602001602082028036833780820191505090505b5090506000805b600280549050811015612347578473ffffffffffffffffffffffffffffffffffffffff166003600083815260200190815260200160002060009054906101000a900473ffffffffffffffffffffffffffffffffffffffff1673ffffffffffffffffffffffffffffffffffffffff16141561233a578083838151811061232557fe5b60200260200101818152505081806001019250505b80806001019150506122a4565b508192505050919050565b6000600654905090565b60606000806123696135d4565b846003600082815260200190815260200160002060009054906101000a900473ffffffffffffffffffffffffffffffffffffffff1673ffffffffffffffffffffffffffffffffffffffff163373ffffffffffffffffffffffffffffffffffffffff16146123d557600080fd5b600286815481106123e257fe5b90600052602060002090600402016000016002878154811061240057fe5b906000526020600020906004020160010160009054906101000a900460ff166002888154811061242c57fe5b906000526020600020906004020160010160099054906101000a900461ffff166002898154811061245957fe5b9060005260206000209060040201600201838054600181600116156101000203166002900480601f0160208091040260200160405190810160405280929190818152602001828054600181600116156101000203166002900480156124ff5780601f106124d4576101008083540402835291602001916124ff565b820191906000526020600020905b8154815290600101906020018083116124e257829003601f168201915b5050505050935080600580602002604051908101604052809291908260058015612566576020028201916000905b82829054906101000a900461ffff1661ffff168152602001906002019060208260010104928301926001038202915080841161252d5790505b505050505090509450945094509450509193509193565b612585611732565b61258e57600080fd5b612597816130a9565b50565b856003600082815260200190815260200160002060009054906101000a900473ffffffffffffffffffffffffffffffffffffffff1673ffffffffffffffffffffffffffffffffffffffff163373ffffffffffffffffffffffffffffffffffffffff161461260657600080fd5b86600115156002828154811061261857fe5b906000526020600020906004020160010160009054906101000a900460ff1615151461264357600080fd5b61264b6135d4565b6040518060a001604052808961ffff1661ffff1681526020018861ffff1661ffff1681526020018761ffff1661ffff1681526020018661ffff1661ffff1681526020018561ffff1661ffff16815250905060005b600581101561271c578181600581106126b457fe5b602002015161ffff1660028b815481106126ca57fe5b906000526020600020906004020160020182600581106126e657fe5b601091828204019190066002029054906101000a900461ffff1661ffff16101561270f57600080fd5b808060010191505061269f565b5060005b60058110156127a85781816005811061273557fe5b602002015160028b8154811061274757fe5b9060005260206000209060040201600201826005811061276357fe5b601091828204019190066002028282829054906101000a900461ffff160392506101000a81548161ffff021916908361ffff1602179055508080600101915050612720565b5060006127b4826131a0565b905060028a815481106127c357fe5b906000526020600020906004020160030181908060018154018082558091505060019003906000526020600020016000909190919091505550505050505050505050565b61285a6001600460008573ffffffffffffffffffffffffffffffffffffffff1673ffffffffffffffffffffffffffffffffffffffff1681526020019081526020016000205461351790919063ffffffff16565b600460008473ffffffffffffffffffffffffffffffffffffffff1673ffffffffffffffffffffffffffffffffffffffff168152602001908152602001600020819055506128f06001600460003373ffffffffffffffffffffffffffffffffffffffff1673ffffffffffffffffffffffffffffffffffffffff1681526020019081526020016000205461359a90919063ffffffff16565b600460003373ffffffffffffffffffffffffffffffffffffffff1673ffffffffffffffffffffffffffffffffffffffff16815260200190815260200160002081905550816003600083815260200190815260200160002060006101000a81548173ffffffffffffffffffffffffffffffffffffffff021916908373ffffffffffffffffffffffffffffffffffffffff160217905550808273ffffffffffffffffffffffffffffffffffffffff168473ffffffffffffffffffffffffffffffffffffffff167fddf252ad1be2c89b69c2b068fc378daa952ba7f163c4a11628f55a4df523b3ef60405160405180910390a4505050565b60008083836002805490506040516020018084805190602001908083835b60208310612a265780518252602082019150602081019050602083039250612a03565b6001836020036101000a0380198251168184511680821785525050505050509050018373ffffffffffffffffffffffffffffffffffffffff1660601b815260140182815260200193505050506040516020818303038152906040528051906020012060001c90506001548181612a9857fe5b0691505092915050565b612aaa6135d4565b606060026040518060c0016040528088815260200187151581526020018667ffffffffffffffff1681526020018561ffff1681526020018481526020018381525090806001815401808255809150506001900390600052602060002090600402016000909190919091506000820151816000019080519060200190612b30929190613676565b5060208201518160010160006101000a81548160ff02191690831515021790555060408201518160010160016101000a81548167ffffffffffffffff021916908367ffffffffffffffff16021790555060608201518160010160096101000a81548161ffff021916908361ffff160217905550608082015181600201906005612bba9291906136f6565b5060a0820151816003019080519060200190612bd7929190613793565b50505060006001600280549050039050336003600083815260200190815260200160002060006101000a81548173ffffffffffffffffffffffffffffffffffffffff021916908373ffffffffffffffffffffffffffffffffffffffff1602179055506001600560003373ffffffffffffffffffffffffffffffffffffffff1673ffffffffffffffffffffffffffffffffffffffff16815260200190815260200160002060006101000a81548160ff021916908315150217905550600460003373ffffffffffffffffffffffffffffffffffffffff1673ffffffffffffffffffffffffffffffffffffffff168152602001908152602001600020600081548092919060010191905055507fd6481780172941270ed8b26ea7ea362972fa87c40e168becbfe47dc366ba45eb81888760405180848152602001806020018367ffffffffffffffff168152602001828103825284818151815260200191508051906020019080838360005b83811015612d5a578082015181840152602081019050612d3f565b50505050905090810190601f168015612d875780820380516001836020036101000a031916815260200191505b5094505050505060405180910390a150505050505050565b612da76135d4565b8060028381548110612db557fe5b9060005260206000209060040201600201906005612dd49291906136f6565b50600060028381548110612de457fe5b906000526020600020906004020160010160096101000a81548161ffff021916908361ffff16021790555060005b60028381548110612e1f57fe5b906000526020600020906004020160030180549050811015612f1357600860028481548110612e4a57fe5b90600052602060002090600402016003018281548110612e6657fe5b9060005260206000200154908060018154018082558091505060019003906000526020600020016000909190919091505560098181548110612ea457fe5b90600052602060002001600080820160006101000a81549061ffff02191690556000820160026101000a81549061ffff02191690556000820160046101000a81549063ffffffff02191690556000820160086101000a81549060ff021916905550508080600101915050612e12565b5060608060028481548110612f2457fe5b90600052602060002090600402016003019080519060200190612f48929190613793565b506000151560028481548110612f5a57fe5b906000526020600020906004020160010160009054906101000a90505050505050565b600860028381548110612f8c57fe5b90600052602060002090600402016003018281548110612fa857fe5b9060005260206000200154908060018154018082558091505060019003906000526020600020016000909190919091505560028281548110612fe657fe5b906000526020600020906004020160030160016002848154811061300657fe5b906000526020600020906004020160030180549050038154811061302657fe5b90600052602060002001546002838154811061303e57fe5b9060005260206000209060040201600301828154811061305a57fe5b90600052602060002001819055506002828154811061307557fe5b906000526020600020906004020160030180548061308f57fe5b600190038181906000526020600020016000905590555050565b600073ffffffffffffffffffffffffffffffffffffffff168173ffffffffffffffffffffffffffffffffffffffff1614156130e357600080fd5b8073ffffffffffffffffffffffffffffffffffffffff1660008054906101000a900473ffffffffffffffffffffffffffffffffffffffff1673ffffffffffffffffffffffffffffffffffffffff167f8be0079c531659141344cd1fd0a4f28419497f9722a3daafe3b4186f6b6457e060405160405180910390a3806000806101000a81548173ffffffffffffffffffffffffffffffffffffffff021916908373ffffffffffffffffffffffffffffffffffffffff16021790555050565b60008060005b60058110156131d5578381600581106131bb57fe5b602002015161ffff168201915080806001019150506131a6565b50600081116131e357600080fd5b60006131f96002836135b490919063ffffffff16565b9050600081905061323b61322c60028760006005811061321557fe5b602002015161ffff166135b490919063ffffffff16565b8361351790919063ffffffff16565b915061327861326960038760016005811061325257fe5b602002015161ffff166135b490919063ffffffff16565b8361351790919063ffffffff16565b91506132b56132a660038760016005811061328f57fe5b602002015161ffff166135b490919063ffffffff16565b8261351790919063ffffffff16565b90506132f26132e36002876002600581106132cc57fe5b602002015161ffff166135b490919063ffffffff16565b8261351790919063ffffffff16565b905061332f61332060028760036005811061330957fe5b602002015161ffff166135b490919063ffffffff16565b8361351790919063ffffffff16565b915061336c61335d60048760036005811061334657fe5b602002015161ffff166135b490919063ffffffff16565b8261351790919063ffffffff16565b90506133a961339a60028760046005811061338357fe5b602002015161ffff166135b490919063ffffffff16565b8261351790919063ffffffff16565b8101905060008114156133bf5780806001019150505b60008060088054905014156133ea57600754905060076000815480929190600101919050555061342e565b6008600160088054905003815481106133ff57fe5b90600052602060002001549050600880548061341757fe5b600190038181906000526020600020016000905590555b60405180608001604052808461ffff1681526020018361ffff168152602001615460420163ffffffff168152602001600015158152506009828154811061347157fe5b9060005260206000200160008201518160000160006101000a81548161ffff021916908361ffff16021790555060208201518160000160026101000a81548161ffff021916908361ffff16021790555060408201518160000160046101000a81548163ffffffff021916908363ffffffff16021790555060608201518160000160086101000a81548160ff02191690831515021790555090505080945050505050919050565b6000818301905082811015613594576040517f08c379a00000000000000000000000000000000000000000000000000000000081526004018080602001828103825260158152602001807f55696e74204f766572666c6f77204f636375726564000000000000000000000081525060200191505060405180910390fd5b92915050565b6000828211156135a957600080fd5b818303905092915050565b60008082116135c257600080fd5b8183816135cb57fe5b04905092915050565b6040518060a00160405280600590602082028036833780820191505090505090565b828054600181600116156101000203166002900490600052602060002090601f016020900481019282601f1061363757803560ff1916838001178555613665565b82800160010185558215613665579182015b82811115613664578235825591602001919060010190613649565b5b50905061367291906137e0565b5090565b828054600181600116156101000203166002900490600052602060002090601f016020900481019282601f106136b757805160ff19168380011785556136e5565b828001600101855582156136e5579182015b828111156136e45782518255916020019190600101906136c9565b5b5090506136f291906137e0565b5090565b826005600f016010900481019282156137825791602002820160005b8382111561375257835183826101000a81548161ffff021916908361ffff1602179055509260200192600201602081600101049283019260010302613712565b80156137805782816101000a81549061ffff0219169055600201602081600101049283019260010302613752565b505b50905061378f91906137fd565b5090565b8280548282559060005260206000209081019282156137cf579160200282015b828111156137ce5782518255916020019190600101906137b3565b5b5090506137dc91906137e0565b5090565b5b808211156137f95760008160009055506001016137e1565b5090565b5b8082111561382257600081816101000a81549061ffff0219169055506001016137fe565b509056fea2646970667358221220cf7833833d79aa43e5af6cf7f99cffadc4ec98e4d62ac2b1d3784fbea403fa6564736f6c634300060c0033",
  "immutableReferences": {},
  "source": "pragma solidity >=0.4.22 <0.7.0;\n\nimport \"./GameLogic.sol\";\n\ncontract GameLogicAs_ERC721 is GameLogic{\n    mapping (uint => address) plainsWalkerApprovals;\n\n  event Transfer(\n    address indexed _from,\n    address indexed _to,\n    uint256 indexed _tokenId\n  );\n \n \n  event Approval(\n    address indexed _owner,\n    address indexed _approved,\n    uint256 indexed _tokenId\n  );\n\n    function balanceOf(address _owner) external view returns (uint256) {\n        return ownerPlainsWalkerCount[_owner];\n    }\n\n    function ownerOf(uint256 _tokenId) external view returns (address) {\n        return plainsWalkerToOwner[_tokenId];\n    }\n    \n    function _transfer(address _from, address _to, uint256 _tokenId) private{\n        ownerPlainsWalkerCount[_to] = ownerPlainsWalkerCount[_to].add(1);\n        ownerPlainsWalkerCount[msg.sender] = ownerPlainsWalkerCount[msg.sender].sub(1);\n        plainsWalkerToOwner[_tokenId] = _to;\n        emit Transfer(_from, _to, _tokenId);\n    }\n      \n    function safeTransferFrom(address _from, address _to, uint256 _tokenId) external {\n        require (plainsWalkerToOwner[_tokenId] == msg.sender || plainsWalkerApprovals[_tokenId] == msg.sender);\n        _transfer(_from, _to, _tokenId);\n    }\n\n    function approve(address _approved, uint256 _tokenId) external payable ownerOfPlainsWalker(_tokenId){\n        plainsWalkerApprovals[_tokenId] = _approved;\n        emit Approval(msg.sender, _approved, _tokenId);\n    }\n}",
  "sourcePath": "/Users/johnminer/dev/mtg_on_blockchain/contracts/GamelogicAs_ERC721.sol",
  "compiler": {
    "name": "solc",
    "version": "0.6.12+commit.27d51765.Emscripten.clang"
  },
  "schemaVersion": "3.3.0",
  "updatedAt": "2020-10-15T01:51:22.763Z",
  "devdoc": {
    "kind": "dev",
    "methods": {
      "attackWithCreature(uint256,uint256,uint256)": {
        "details": "A function that allows a plainswalker to command one of it's creatures to attack another plainswalker"
      },
      "changeName(uint256,string)": {
        "details": "change the name of a plainsWalker if you own it."
      },
      "collectManaFromLands(uint256,uint256)": {
        "details": "A function that intefaces with the land contract and collects mana from the land."
      },
      "createRandomPlainsWalker(string)": {
        "details": "External function to create a persons first plainsWalker"
      },
      "getCreatureInfoByIndex(uint256)": {
        "details": "A getter function for creature info."
      },
      "getPlainsWalkerFee()": {
        "details": "A function to tell users how much a plainsWalker costs"
      },
      "getPlainsWalkersByOwner(address)": {
        "details": "Find plainsWalkers by owner addresses."
      },
      "getPlainswalkerInfoById(uint256)": {
        "details": "Get information on a plainsWalker through its id."
      },
      "isOwner()": {
        "returns": {
          "_0": "true if `msg.sender` is the owner of the contract."
        }
      },
      "owner()": {
        "returns": {
          "_0": "the address of the owner."
        }
      },
      "purchasePlainsWalker(string)": {
        "details": "A function to purchase another plainswalker"
      },
      "renounceOwnership()": {
        "details": "Allows the current owner to relinquish control of the contract."
      },
      "revivePlainsWalker(uint256)": {
        "details": "A function that revives a plainsWalker after it has died."
      },
      "setCreatureToAttack(uint256,uint256)": {
        "details": "Sets a creature to be able to attack"
      },
      "setCreatureToDefend(uint256,uint256)": {
        "details": "Sets a creature to defend "
      },
      "setLandContractAddress(address)": {
        "details": "A function so the owner of the contract can set the address of the land contract."
      },
      "setPlainsWalkerFee(uint256)": {
        "details": "A function to set how much a plainsWalker costs"
      },
      "summonCreature(uint256,uint16,uint16,uint16,uint16,uint16)": {
        "details": "A function that summons a creature with by spending mana and assocciates the id of the creature with the   plainsWalker that summoned it."
      },
      "transferOwnership(address)": {
        "details": "Allows the current owner to transfer control of the contract to a newOwner.",
        "params": {
          "newOwner": "The address to transfer ownership to."
        }
      }
    },
    "version": 1
  },
  "userdoc": {
    "kind": "user",
    "methods": {
      "renounceOwnership()": {
        "notice": "Renouncing to ownership will leave the contract without an owner. It will not be possible to call the functions with the `onlyOwner` modifier anymore."
      }
    },
    "version": 1
  }
}