{
  "contractName": "GameLogicAs_ERC721",
  "abi": [
    {
      "anonymous": false,
      "inputs": [
        {
          "indexed": true,
          "internalType": "address",
          "name": "_owner",
          "type": "address"
        },
        {
          "indexed": true,
          "internalType": "address",
          "name": "_approved",
          "type": "address"
        },
        {
          "indexed": true,
          "internalType": "uint256",
          "name": "_tokenId",
          "type": "uint256"
        }
      ],
      "name": "Approval",
      "type": "event"
    },
    {
      "anonymous": false,
      "inputs": [
        {
          "indexed": false,
          "internalType": "uint256",
          "name": "PlainsWalkerId",
          "type": "uint256"
        },
        {
          "indexed": false,
          "internalType": "string",
          "name": "name",
          "type": "string"
        },
        {
          "indexed": false,
          "internalType": "uint256",
          "name": "dna",
          "type": "uint256"
        }
      ],
      "name": "NewPlainswalker",
      "type": "event"
    },
    {
      "anonymous": false,
      "inputs": [
        {
          "indexed": true,
          "internalType": "address",
          "name": "previousOwner",
          "type": "address"
        },
        {
          "indexed": true,
          "internalType": "address",
          "name": "newOwner",
          "type": "address"
        }
      ],
      "name": "OwnershipTransferred",
      "type": "event"
    },
    {
      "anonymous": false,
      "inputs": [
        {
          "indexed": true,
          "internalType": "address",
          "name": "_from",
          "type": "address"
        },
        {
          "indexed": true,
          "internalType": "address",
          "name": "_to",
          "type": "address"
        },
        {
          "indexed": true,
          "internalType": "uint256",
          "name": "_tokenId",
          "type": "uint256"
        }
      ],
      "name": "Transfer",
      "type": "event"
    },
    {
      "inputs": [
        {
          "internalType": "uint256",
          "name": "_plainsWalkerId",
          "type": "uint256"
        },
        {
          "internalType": "uint256",
          "name": "_creatureIndex",
          "type": "uint256"
        },
        {
          "internalType": "uint256",
          "name": "_targetPlainsWalkerId",
          "type": "uint256"
        }
      ],
      "name": "attackWithCreature",
      "outputs": [],
      "stateMutability": "nonpayable",
      "type": "function"
    },
    {
      "inputs": [
        {
          "internalType": "uint256",
          "name": "_plainsWalkerId",
          "type": "uint256"
        },
        {
          "internalType": "string",
          "name": "_newName",
          "type": "string"
        }
      ],
      "name": "changeName",
      "outputs": [],
      "stateMutability": "nonpayable",
      "type": "function"
    },
    {
      "inputs": [
        {
          "internalType": "uint256",
          "name": "_plainsWalkerId",
          "type": "uint256"
        },
        {
          "internalType": "uint256",
          "name": "_landId",
          "type": "uint256"
        }
      ],
      "name": "collectManaFromLands",
      "outputs": [],
      "stateMutability": "nonpayable",
      "type": "function"
    },
    {
      "inputs": [
        {
          "internalType": "string",
          "name": "_name",
          "type": "string"
        }
      ],
      "name": "createRandomPlainsWalker",
      "outputs": [],
      "stateMutability": "nonpayable",
      "type": "function"
    },
    {
      "inputs": [
        {
          "internalType": "uint256",
          "name": "_id",
          "type": "uint256"
        }
      ],
      "name": "getCreatureInfoByIndex",
      "outputs": [
        {
          "internalType": "uint16",
          "name": "attack",
          "type": "uint16"
        },
        {
          "internalType": "uint16",
          "name": "defence",
          "type": "uint16"
        },
        {
          "internalType": "uint32",
          "name": "readyTime",
          "type": "uint32"
        },
        {
          "internalType": "bool",
          "name": "isDefending",
          "type": "bool"
        }
      ],
      "stateMutability": "view",
      "type": "function",
      "constant": true
    },
    {
      "inputs": [],
      "name": "getPlainsWalkerFee",
      "outputs": [
        {
          "internalType": "uint256",
          "name": "",
          "type": "uint256"
        }
      ],
      "stateMutability": "view",
      "type": "function",
      "constant": true
    },
    {
      "inputs": [
        {
          "internalType": "address",
          "name": "_owner",
          "type": "address"
        }
      ],
      "name": "getPlainsWalkersByOwner",
      "outputs": [
        {
          "internalType": "uint256[]",
          "name": "",
          "type": "uint256[]"
        }
      ],
      "stateMutability": "view",
      "type": "function",
      "constant": true
    },
    {
      "inputs": [
        {
          "internalType": "uint256",
          "name": "_id",
          "type": "uint256"
        }
      ],
      "name": "getPlainswalkerInfoById",
      "outputs": [
        {
          "internalType": "string",
          "name": "name",
          "type": "string"
        },
        {
          "internalType": "bool",
          "name": "isActive",
          "type": "bool"
        },
        {
          "internalType": "uint16",
          "name": "health",
          "type": "uint16"
        },
        {
          "internalType": "uint16[5]",
          "name": "mana",
          "type": "uint16[5]"
        },
        {
          "internalType": "uint256[]",
          "name": "creatureIndex",
          "type": "uint256[]"
        }
      ],
      "stateMutability": "view",
      "type": "function",
      "constant": true
    },
    {
      "inputs": [],
      "name": "isOwner",
      "outputs": [
        {
          "internalType": "bool",
          "name": "",
          "type": "bool"
        }
      ],
      "stateMutability": "view",
      "type": "function",
      "constant": true
    },
    {
      "inputs": [],
      "name": "owner",
      "outputs": [
        {
          "internalType": "address",
          "name": "",
          "type": "address"
        }
      ],
      "stateMutability": "view",
      "type": "function",
      "constant": true
    },
    {
      "inputs": [
        {
          "internalType": "address",
          "name": "",
          "type": "address"
        }
      ],
      "name": "ownerPlainsWalkerCount",
      "outputs": [
        {
          "internalType": "uint256",
          "name": "",
          "type": "uint256"
        }
      ],
      "stateMutability": "view",
      "type": "function",
      "constant": true
    },
    {
      "inputs": [
        {
          "internalType": "uint256",
          "name": "",
          "type": "uint256"
        }
      ],
      "name": "plainsWalkerToOwner",
      "outputs": [
        {
          "internalType": "address",
          "name": "",
          "type": "address"
        }
      ],
      "stateMutability": "view",
      "type": "function",
      "constant": true
    },
    {
      "inputs": [
        {
          "internalType": "string",
          "name": "_name",
          "type": "string"
        }
      ],
      "name": "purchasePlainsWalker",
      "outputs": [],
      "stateMutability": "payable",
      "type": "function",
      "payable": true
    },
    {
      "inputs": [],
      "name": "renounceOwnership",
      "outputs": [],
      "stateMutability": "nonpayable",
      "type": "function"
    },
    {
      "inputs": [
        {
          "internalType": "uint256",
          "name": "_plainsWalkerId",
          "type": "uint256"
        }
      ],
      "name": "revivePlainsWalker",
      "outputs": [],
      "stateMutability": "payable",
      "type": "function",
      "payable": true
    },
    {
      "inputs": [
        {
          "internalType": "uint256",
          "name": "_plainsWalkerId",
          "type": "uint256"
        },
        {
          "internalType": "uint256",
          "name": "_creatureIndex",
          "type": "uint256"
        }
      ],
      "name": "setCreatureToAttack",
      "outputs": [],
      "stateMutability": "nonpayable",
      "type": "function"
    },
    {
      "inputs": [
        {
          "internalType": "uint256",
          "name": "_plainsWalkerId",
          "type": "uint256"
        },
        {
          "internalType": "uint256",
          "name": "_creatureIndex",
          "type": "uint256"
        }
      ],
      "name": "setCreatureToDefend",
      "outputs": [],
      "stateMutability": "nonpayable",
      "type": "function"
    },
    {
      "inputs": [
        {
          "internalType": "address",
          "name": "_address",
          "type": "address"
        }
      ],
      "name": "setLandContractAddress",
      "outputs": [],
      "stateMutability": "nonpayable",
      "type": "function"
    },
    {
      "inputs": [
        {
          "internalType": "uint256",
          "name": "_fee",
          "type": "uint256"
        }
      ],
      "name": "setPlainsWalkerFee",
      "outputs": [],
      "stateMutability": "nonpayable",
      "type": "function"
    },
    {
      "inputs": [
        {
          "internalType": "uint256",
          "name": "_plainsWalkerId",
          "type": "uint256"
        },
        {
          "internalType": "uint16",
          "name": "red",
          "type": "uint16"
        },
        {
          "internalType": "uint16",
          "name": "green",
          "type": "uint16"
        },
        {
          "internalType": "uint16",
          "name": "blue",
          "type": "uint16"
        },
        {
          "internalType": "uint16",
          "name": "black",
          "type": "uint16"
        },
        {
          "internalType": "uint16",
          "name": "white",
          "type": "uint16"
        }
      ],
      "name": "summonCreature",
      "outputs": [],
      "stateMutability": "nonpayable",
      "type": "function"
    },
    {
      "inputs": [
        {
          "internalType": "address",
          "name": "newOwner",
          "type": "address"
        }
      ],
      "name": "transferOwnership",
      "outputs": [],
      "stateMutability": "nonpayable",
      "type": "function"
    },
    {
      "inputs": [
        {
          "internalType": "address",
          "name": "_owner",
          "type": "address"
        }
      ],
      "name": "balanceOf",
      "outputs": [
        {
          "internalType": "uint256",
          "name": "",
          "type": "uint256"
        }
      ],
      "stateMutability": "view",
      "type": "function",
      "constant": true
    },
    {
      "inputs": [
        {
          "internalType": "uint256",
          "name": "_tokenId",
          "type": "uint256"
        }
      ],
      "name": "ownerOf",
      "outputs": [
        {
          "internalType": "address",
          "name": "",
          "type": "address"
        }
      ],
      "stateMutability": "view",
      "type": "function",
      "constant": true
    },
    {
      "inputs": [
        {
          "internalType": "address",
          "name": "_from",
          "type": "address"
        },
        {
          "internalType": "address",
          "name": "_to",
          "type": "address"
        },
        {
          "internalType": "uint256",
          "name": "_tokenId",
          "type": "uint256"
        }
      ],
      "name": "safeTransferFrom",
      "outputs": [],
      "stateMutability": "nonpayable",
      "type": "function"
    },
    {
      "inputs": [
        {
          "internalType": "address",
          "name": "_approved",
          "type": "address"
        },
        {
          "internalType": "uint256",
          "name": "_tokenId",
          "type": "uint256"
        }
      ],
      "name": "approve",
      "outputs": [],
      "stateMutability": "payable",
      "type": "function",
      "payable": true
    }
  ],
  "bytecode": "0x6080604052620186a060015566470de4df820000600655600060075534801561002757600080fd5b50336000806101000a81548173ffffffffffffffffffffffffffffffffffffffff021916908373ffffffffffffffffffffffffffffffffffffffff16021790555060008054906101000a900473ffffffffffffffffffffffffffffffffffffffff1673ffffffffffffffffffffffffffffffffffffffff16600073ffffffffffffffffffffffffffffffffffffffff167f8be0079c531659141344cd1fd0a4f28419497f9722a3daafe3b4186f6b6457e060405160405180910390a3613874806100f26000396000f3fe6080604052600436106101665760003560e01c80638dab6beb116100d1578063cfeb4c061161008a578063e90a2ea311610064578063e90a2ea314610910578063f0e270931461093b578063f2fde38b14610a7a578063fed31d4c14610acb57610166565b8063cfeb4c06146107d6578063d09e51bc14610825578063e22ee8041461086a57610166565b80638dab6beb146105a25780638f32d59b146106075780639421c7ca14610634578063b1f0522f146106ba578063b74f7ded146106f5578063c39cbef11461074657610166565b8063715018a611610123578063715018a6146103b7578063745c79a7146103ce578063785c0916146104335780637bba53e01461047857806384cd63bb146105335780638da5cb5b1461056157610166565b8063095ea7b31461016b57806342842e0e146101b957806362032dff146102345780636352211e146102795780636e81bbc0146102de57806370a0823114610352575b600080fd5b6101b76004803603604081101561018157600080fd5b81019080803573ffffffffffffffffffffffffffffffffffffffff16906020019092919080359060200190929190505050610b4c565b005b3480156101c557600080fd5b50610232600480360360608110156101dc57600080fd5b81019080803573ffffffffffffffffffffffffffffffffffffffff169060200190929190803573ffffffffffffffffffffffffffffffffffffffff16906020019092919080359060200190929190505050610c6a565b005b34801561024057600080fd5b506102776004803603604081101561025757600080fd5b810190808035906020019092919080359060200190929190505050610d4e565b005b34801561028557600080fd5b506102b26004803603602081101561029c57600080fd5b8101908080359060200190929190505050610f3e565b604051808273ffffffffffffffffffffffffffffffffffffffff16815260200191505060405180910390f35b3480156102ea57600080fd5b506103176004803603602081101561030157600080fd5b8101908080359060200190929190505050610f7b565b604051808561ffff1681526020018461ffff1681526020018363ffffffff168152602001821515815260200194505050505060405180910390f35b34801561035e57600080fd5b506103a16004803603602081101561037557600080fd5b81019080803573ffffffffffffffffffffffffffffffffffffffff169060200190929190505050611035565b6040518082815260200191505060405180910390f35b3480156103c357600080fd5b506103cc61107e565b005b3480156103da57600080fd5b5061041d600480360360208110156103f157600080fd5b81019080803573ffffffffffffffffffffffffffffffffffffffff16906020019092919050505061114d565b6040518082815260200191505060405180910390f35b34801561043f57600080fd5b506104766004803603604081101561045657600080fd5b810190808035906020019092919080359060200190929190505050611165565b005b6105316004803603602081101561048e57600080fd5b81019080803590602001906401000000008111156104ab57600080fd5b8201836020820111156104bd57600080fd5b803590602001918460018302840111640100000000831117156104df57600080fd5b91908080601f016020809104026020016040519081016040528093929190818152602001838380828437600081840152601f19601f82011690508083019250505050505050919291929050505061137f565b005b61055f6004803603602081101561054957600080fd5b81019080803590602001909291905050506113ad565b005b34801561056d57600080fd5b506105766114d7565b604051808273ffffffffffffffffffffffffffffffffffffffff16815260200191505060405180910390f35b3480156105ae57600080fd5b506105db600480360360208110156105c557600080fd5b8101908080359060200190929190505050611500565b604051808273ffffffffffffffffffffffffffffffffffffffff16815260200191505060405180910390f35b34801561061357600080fd5b5061061c611533565b60405180821515815260200191505060405180910390f35b34801561064057600080fd5b506106b86004803603602081101561065757600080fd5b810190808035906020019064010000000081111561067457600080fd5b82018360208201111561068657600080fd5b803590602001918460018302840111640100000000831117156106a857600080fd5b909192939192939050505061158a565b005b3480156106c657600080fd5b506106f3600480360360208110156106dd57600080fd5b8101908080359060200190929190505050611691565b005b34801561070157600080fd5b506107446004803603602081101561071857600080fd5b81019080803573ffffffffffffffffffffffffffffffffffffffff1690602001909291905050506116ac565b005b34801561075257600080fd5b506107d46004803603604081101561076957600080fd5b81019080803590602001909291908035906020019064010000000081111561079057600080fd5b8201836020820111156107a257600080fd5b803590602001918460018302840111640100000000831117156107c457600080fd5b9091929391929390505050611701565b005b3480156107e257600080fd5b50610823600480360360608110156107f957600080fd5b810190808035906020019092919080359060200190929190803590602001909291905050506117a1565b005b34801561083157600080fd5b506108686004803603604081101561084857600080fd5b810190808035906020019092919080359060200190929190505050611f04565b005b34801561087657600080fd5b506108b96004803603602081101561088d57600080fd5b81019080803573ffffffffffffffffffffffffffffffffffffffff169060200190929190505050612084565b6040518080602001828103825283818151815260200191508051906020019060200280838360005b838110156108fc5780820151818401526020810190506108e1565b505050509050019250505060405180910390f35b34801561091c57600080fd5b506109256121c1565b6040518082815260200191505060405180910390f35b34801561094757600080fd5b506109746004803603602081101561095e57600080fd5b81019080803590602001909291905050506121cb565b604051808060200186151581526020018561ffff16815260200184600560200280838360005b838110156109b557808201518184015260208101905061099a565b5050505090500180602001838103835288818151815260200191508051906020019080838360005b838110156109f85780820151818401526020810190506109dd565b50505050905090810190601f168015610a255780820380516001836020036101000a031916815260200191505b50838103825284818151815260200191508051906020019060200280838360005b83811015610a61578082015181840152602081019050610a46565b5050505090500197505050505050505060405180910390f35b348015610a8657600080fd5b50610ac960048036036020811015610a9d57600080fd5b81019080803573ffffffffffffffffffffffffffffffffffffffff169060200190929190505050612462565b005b348015610ad757600080fd5b50610b4a600480360360c0811015610aee57600080fd5b8101908080359060200190929190803561ffff169060200190929190803561ffff169060200190929190803561ffff169060200190929190803561ffff169060200190929190803561ffff16906020019092919050505061247f565b005b806003600082815260200190815260200160002060009054906101000a900473ffffffffffffffffffffffffffffffffffffffff1673ffffffffffffffffffffffffffffffffffffffff163373ffffffffffffffffffffffffffffffffffffffff1614610bb857600080fd5b82600b600084815260200190815260200160002060006101000a81548173ffffffffffffffffffffffffffffffffffffffff021916908373ffffffffffffffffffffffffffffffffffffffff160217905550818373ffffffffffffffffffffffffffffffffffffffff163373ffffffffffffffffffffffffffffffffffffffff167f8c5be1e5ebec7d5bd14f71427d1e84f3dd0314c0f7b2291e5b200ac8c7c3b92560405160405180910390a4505050565b3373ffffffffffffffffffffffffffffffffffffffff166003600083815260200190815260200160002060009054906101000a900473ffffffffffffffffffffffffffffffffffffffff1673ffffffffffffffffffffffffffffffffffffffff161480610d3557503373ffffffffffffffffffffffffffffffffffffffff16600b600083815260200190815260200160002060009054906101000a900473ffffffffffffffffffffffffffffffffffffffff1673ffffffffffffffffffffffffffffffffffffffff16145b610d3e57600080fd5b610d498383836126ec565b505050565b816003600082815260200190815260200160002060009054906101000a900473ffffffffffffffffffffffffffffffffffffffff1673ffffffffffffffffffffffffffffffffffffffff163373ffffffffffffffffffffffffffffffffffffffff1614610dba57600080fd5b826001151560028281548110610dcc57fe5b906000526020600020906004020160010160009054906101000a900460ff16151514610df757600080fd5b60001515600960028681548110610e0a57fe5b90600052602060002090600402016003018581548110610e2657fe5b906000526020600020015481548110610e3b57fe5b9060005260206000200160000160089054906101000a900460ff16151514610e6257600080fd5b42600960028681548110610e7257fe5b90600052602060002090600402016003018581548110610e8e57fe5b906000526020600020015481548110610ea357fe5b9060005260206000200160000160049054906101000a900463ffffffff1663ffffffff161115610ed257600080fd5b6001600960028681548110610ee357fe5b90600052602060002090600402016003018581548110610eff57fe5b906000526020600020015481548110610f1457fe5b9060005260206000200160000160086101000a81548160ff02191690831515021790555050505050565b60006003600083815260200190815260200160002060009054906101000a900473ffffffffffffffffffffffffffffffffffffffff169050919050565b60008060008060098581548110610f8e57fe5b9060005260206000200160000160009054906101000a900461ffff1660098681548110610fb757fe5b9060005260206000200160000160029054906101000a900461ffff1660098781548110610fe057fe5b9060005260206000200160000160049054906101000a900463ffffffff166009888154811061100b57fe5b9060005260206000200160000160089054906101000a900460ff1693509350935093509193509193565b6000600460008373ffffffffffffffffffffffffffffffffffffffff1673ffffffffffffffffffffffffffffffffffffffff168152602001908152602001600020549050919050565b611086611533565b61108f57600080fd5b600073ffffffffffffffffffffffffffffffffffffffff1660008054906101000a900473ffffffffffffffffffffffffffffffffffffffff1673ffffffffffffffffffffffffffffffffffffffff167f8be0079c531659141344cd1fd0a4f28419497f9722a3daafe3b4186f6b6457e060405160405180910390a360008060006101000a81548173ffffffffffffffffffffffffffffffffffffffff021916908373ffffffffffffffffffffffffffffffffffffffff160217905550565b60046020528060005260406000206000915090505481565b816003600082815260200190815260200160002060009054906101000a900473ffffffffffffffffffffffffffffffffffffffff1673ffffffffffffffffffffffffffffffffffffffff163373ffffffffffffffffffffffffffffffffffffffff16146111d157600080fd5b8260011515600282815481106111e357fe5b906000526020600020906004020160010160009054906101000a900460ff1615151461120e57600080fd5b6112166135ec565b600a60009054906101000a900473ffffffffffffffffffffffffffffffffffffffff1673ffffffffffffffffffffffffffffffffffffffff166316c38de933866040518363ffffffff1660e01b8152600401808373ffffffffffffffffffffffffffffffffffffffff1681526020018281526020019250505060a060405180830381600087803b1580156112a957600080fd5b505af11580156112bd573d6000803e3d6000fd5b505050506040513d601f19601f8201168201806040525060a08110156112e257600080fd5b8101908091905050905060005b60058110156113775781816005811061130457fe5b60200201516002878154811061131657fe5b9060005260206000209060040201600201826005811061133257fe5b601091828204019190066002028282829054906101000a900461ffff160192506101000a81548161ffff021916908361ffff16021790555080806001019150506112ef565b505050505050565b600654341461138d57600080fd5b600061139982336128ca565b90506113a9826000836000612987565b5050565b806003600082815260200190815260200160002060009054906101000a900473ffffffffffffffffffffffffffffffffffffffff1673ffffffffffffffffffffffffffffffffffffffff163373ffffffffffffffffffffffffffffffffffffffff161461141957600080fd5b66038d7ea4c6800034101561142d57600080fd5b60006002838154811061143c57fe5b906000526020600020906004020160010160099054906101000a900461ffff1661ffff161461146a57600080fd5b60646002838154811061147957fe5b906000526020600020906004020160010160096101000a81548161ffff021916908361ffff16021790555060011515600283815481106114b557fe5b906000526020600020906004020160010160009054906101000a905050505050565b60008060009054906101000a900473ffffffffffffffffffffffffffffffffffffffff16905090565b60036020528060005260406000206000915054906101000a900473ffffffffffffffffffffffffffffffffffffffff1681565b60008060009054906101000a900473ffffffffffffffffffffffffffffffffffffffff1673ffffffffffffffffffffffffffffffffffffffff163373ffffffffffffffffffffffffffffffffffffffff1614905090565b60011515600560003373ffffffffffffffffffffffffffffffffffffffff1673ffffffffffffffffffffffffffffffffffffffff16815260200190815260200160002060009054906101000a900460ff16151514156115e857600080fd5b600061163883838080601f016020809104026020016040519081016040528093929190818152602001838380828437600081840152601f19601f82011690508083019250505050505050336128ca565b905061168c83838080601f016020809104026020016040519081016040528093929190818152602001838380828437600081840152601f19601f820116905080830192505050505050506001836064612987565b505050565b611699611533565b6116a257600080fd5b8060068190555050565b6116b4611533565b6116bd57600080fd5b80600a60006101000a81548173ffffffffffffffffffffffffffffffffffffffff021916908373ffffffffffffffffffffffffffffffffffffffff16021790555050565b826003600082815260200190815260200160002060009054906101000a900473ffffffffffffffffffffffffffffffffffffffff1673ffffffffffffffffffffffffffffffffffffffff163373ffffffffffffffffffffffffffffffffffffffff161461176d57600080fd5b82826002868154811061177c57fe5b9060005260206000209060040201600001919061179a92919061360e565b5050505050565b826003600082815260200190815260200160002060009054906101000a900473ffffffffffffffffffffffffffffffffffffffff1673ffffffffffffffffffffffffffffffffffffffff163373ffffffffffffffffffffffffffffffffffffffff161461180d57600080fd5b83600115156002828154811061181f57fe5b906000526020600020906004020160010160009054906101000a900460ff1615151461184a57600080fd5b600115156002848154811061185b57fe5b906000526020600020906004020160010160009054906101000a900460ff1615151461188657600080fd5b8285141561189357600080fd5b426009600285815481106118a357fe5b906000526020600020906004020160030186815481106118bf57fe5b9060005260206000200154815481106118d457fe5b9060005260206000200160000160049054906101000a900463ffffffff1663ffffffff16111561190357600080fd5b615460420160096002858154811061191757fe5b9060005260206000209060040201600301868154811061193357fe5b90600052602060002001548154811061194857fe5b9060005260206000200160000160046101000a81548163ffffffff021916908363ffffffff16021790555060008080600090505b6002868154811061198957fe5b906000526020600020906004020160030180549050811015611a2a57600115156009600288815481106119b857fe5b906000526020600020906004020160030183815481106119d457fe5b9060005260206000200154815481106119e957fe5b9060005260206000200160000160089054906101000a900460ff1615151415611a155760019250611a2a565b8180600101925050808060010191505061197c565b50600015158215151415611b895760028581548110611a4557fe5b906000526020600020906004020160010160099054906101000a900461ffff1661ffff16600960028981548110611a7857fe5b90600052602060002090600402016003018881548110611a9457fe5b906000526020600020015481548110611aa957fe5b9060005260206000200160000160009054906101000a900461ffff1661ffff1610611adc57611ad785612c84565b611b84565b600960028881548110611aeb57fe5b90600052602060002090600402016003018781548110611b0757fe5b906000526020600020015481548110611b1c57fe5b9060005260206000200160000160009054906101000a900461ffff1660028681548110611b4557fe5b906000526020600020906004020160010160098282829054906101000a900461ffff160392506101000a81548161ffff021916908361ffff1602179055505b611efb565b600080600960028881548110611b9b57fe5b90600052602060002090600402016003018481548110611bb757fe5b906000526020600020015481548110611bcc57fe5b9060005260206000200160000160029054906101000a900461ffff1661ffff16600960028b81548110611bfb57fe5b90600052602060002090600402016003018a81548110611c1757fe5b906000526020600020015481548110611c2c57fe5b9060005260206000200160000160009054906101000a900461ffff1661ffff1610611c5a5760019050611d31565b600960028a81548110611c6957fe5b90600052602060002090600402016003018981548110611c8557fe5b906000526020600020015481548110611c9a57fe5b9060005260206000200160000160009054906101000a900461ffff16600960028981548110611cc557fe5b90600052602060002090600402016003018581548110611ce157fe5b906000526020600020015481548110611cf657fe5b9060005260206000200160000160028282829054906101000a900461ffff160392506101000a81548161ffff021916908361ffff1602179055505b600960028a81548110611d4057fe5b90600052602060002090600402016003018981548110611d5c57fe5b906000526020600020015481548110611d7157fe5b9060005260206000200160000160029054906101000a900461ffff1661ffff16600960028981548110611da057fe5b90600052602060002090600402016003018581548110611dbc57fe5b906000526020600020015481548110611dd157fe5b9060005260206000200160000160009054906101000a900461ffff1661ffff1610611dff5760019150611ed6565b600960028881548110611e0e57fe5b90600052602060002090600402016003018481548110611e2a57fe5b906000526020600020015481548110611e3f57fe5b9060005260206000200160000160009054906101000a900461ffff16600960028b81548110611e6a57fe5b90600052602060002090600402016003018a81548110611e8657fe5b906000526020600020015481548110611e9b57fe5b9060005260206000200160000160028282829054906101000a900461ffff160392506101000a81548161ffff021916908361ffff1602179055505b8115611ee757611ee68989612e9d565b5b8015611ef857611ef78784612e9d565b5b50505b50505050505050565b816003600082815260200190815260200160002060009054906101000a900473ffffffffffffffffffffffffffffffffffffffff1673ffffffffffffffffffffffffffffffffffffffff163373ffffffffffffffffffffffffffffffffffffffff1614611f7057600080fd5b826001151560028281548110611f8257fe5b906000526020600020906004020160010160009054906101000a900460ff16151514611fad57600080fd5b60011515600960028681548110611fc057fe5b90600052602060002090600402016003018581548110611fdc57fe5b906000526020600020015481548110611ff157fe5b9060005260206000200160000160089054906101000a900460ff1615151461201857600080fd5b600060096002868154811061202957fe5b9060005260206000209060040201600301858154811061204557fe5b90600052602060002001548154811061205a57fe5b9060005260206000200160000160086101000a81548160ff02191690831515021790555050505050565b606080600460008473ffffffffffffffffffffffffffffffffffffffff1673ffffffffffffffffffffffffffffffffffffffff1681526020019081526020016000205467ffffffffffffffff811180156120dd57600080fd5b5060405190808252806020026020018201604052801561210c5781602001602082028036833780820191505090505b5090506000805b6002805490508110156121b6578473ffffffffffffffffffffffffffffffffffffffff166003600083815260200190815260200160002060009054906101000a900473ffffffffffffffffffffffffffffffffffffffff1673ffffffffffffffffffffffffffffffffffffffff1614156121a9578083838151811061219457fe5b60200260200101818152505081806001019250505b8080600101915050612113565b508192505050919050565b6000600654905090565b60606000806121d86135ec565b6060856003600082815260200190815260200160002060009054906101000a900473ffffffffffffffffffffffffffffffffffffffff1673ffffffffffffffffffffffffffffffffffffffff163373ffffffffffffffffffffffffffffffffffffffff161461224657600080fd5b6002878154811061225357fe5b90600052602060002090600402016000016002888154811061227157fe5b906000526020600020906004020160010160009054906101000a900460ff166002898154811061229d57fe5b906000526020600020906004020160010160099054906101000a900461ffff1660028a815481106122ca57fe5b906000526020600020906004020160020160028b815481106122e857fe5b9060005260206000209060040201600301848054600181600116156101000203166002900480601f01602080910402602001604051908101604052809291908181526020018280546001816001161561010002031660029004801561238e5780601f106123635761010080835404028352916020019161238e565b820191906000526020600020905b81548152906001019060200180831161237157829003601f168201915b50505050509450816005806020026040519081016040528092919082600580156123f5576020028201916000905b82829054906101000a900461ffff1661ffff16815260200190600201906020826001010492830192600103820291508084116123bc5790505b505050505091508080548060200260200160405190810160405280929190818152602001828054801561244757602002820191906000526020600020905b815481526020019060010190808311612433575b50505050509050955095509550955095505091939590929450565b61246a611533565b61247357600080fd5b61247c81612fc9565b50565b856003600082815260200190815260200160002060009054906101000a900473ffffffffffffffffffffffffffffffffffffffff1673ffffffffffffffffffffffffffffffffffffffff163373ffffffffffffffffffffffffffffffffffffffff16146124eb57600080fd5b8660011515600282815481106124fd57fe5b906000526020600020906004020160010160009054906101000a900460ff1615151461252857600080fd5b6125306135ec565b6040518060a001604052808961ffff1661ffff1681526020018861ffff1661ffff1681526020018761ffff1661ffff1681526020018661ffff1661ffff1681526020018561ffff1661ffff16815250905060005b60058110156126015781816005811061259957fe5b602002015161ffff1660028b815481106125af57fe5b906000526020600020906004020160020182600581106125cb57fe5b601091828204019190066002029054906101000a900461ffff1661ffff1610156125f457600080fd5b8080600101915050612584565b5060005b600581101561268d5781816005811061261a57fe5b602002015160028b8154811061262c57fe5b9060005260206000209060040201600201826005811061264857fe5b601091828204019190066002028282829054906101000a900461ffff160392506101000a81548161ffff021916908361ffff1602179055508080600101915050612605565b506000612699826130c0565b905060028a815481106126a857fe5b906000526020600020906004020160030181908060018154018082558091505060019003906000526020600020016000909190919091505550505050505050505050565b61273f6001600460008573ffffffffffffffffffffffffffffffffffffffff1673ffffffffffffffffffffffffffffffffffffffff1681526020019081526020016000205461352f90919063ffffffff16565b600460008473ffffffffffffffffffffffffffffffffffffffff1673ffffffffffffffffffffffffffffffffffffffff168152602001908152602001600020819055506127d56001600460003373ffffffffffffffffffffffffffffffffffffffff1673ffffffffffffffffffffffffffffffffffffffff168152602001908152602001600020546135b290919063ffffffff16565b600460003373ffffffffffffffffffffffffffffffffffffffff1673ffffffffffffffffffffffffffffffffffffffff16815260200190815260200160002081905550816003600083815260200190815260200160002060006101000a81548173ffffffffffffffffffffffffffffffffffffffff021916908373ffffffffffffffffffffffffffffffffffffffff160217905550808273ffffffffffffffffffffffffffffffffffffffff168473ffffffffffffffffffffffffffffffffffffffff167fddf252ad1be2c89b69c2b068fc378daa952ba7f163c4a11628f55a4df523b3ef60405160405180910390a4505050565b60008083836002805490506040516020018084805190602001908083835b6020831061290b57805182526020820191506020810190506020830392506128e8565b6001836020036101000a0380198251168184511680821785525050505050509050018373ffffffffffffffffffffffffffffffffffffffff1660601b815260140182815260200193505050506040516020818303038152906040528051906020012060001c9050600154818161297d57fe5b0691505092915050565b61298f6135ec565b606060026040518060c0016040528088815260200187151581526020018667ffffffffffffffff1681526020018561ffff1681526020018481526020018381525090806001815401808255809150506001900390600052602060002090600402016000909190919091506000820151816000019080519060200190612a1592919061368e565b5060208201518160010160006101000a81548160ff02191690831515021790555060408201518160010160016101000a81548167ffffffffffffffff021916908367ffffffffffffffff16021790555060608201518160010160096101000a81548161ffff021916908361ffff160217905550608082015181600201906005612a9f92919061370e565b5060a0820151816003019080519060200190612abc9291906137ab565b50505060006001600280549050039050336003600083815260200190815260200160002060006101000a81548173ffffffffffffffffffffffffffffffffffffffff021916908373ffffffffffffffffffffffffffffffffffffffff1602179055506001600560003373ffffffffffffffffffffffffffffffffffffffff1673ffffffffffffffffffffffffffffffffffffffff16815260200190815260200160002060006101000a81548160ff021916908315150217905550600460003373ffffffffffffffffffffffffffffffffffffffff1673ffffffffffffffffffffffffffffffffffffffff168152602001908152602001600020600081548092919060010191905055507fd6481780172941270ed8b26ea7ea362972fa87c40e168becbfe47dc366ba45eb81888760405180848152602001806020018367ffffffffffffffff168152602001828103825284818151815260200191508051906020019080838360005b83811015612c3f578082015181840152602081019050612c24565b50505050905090810190601f168015612c6c5780820380516001836020036101000a031916815260200191505b5094505050505060405180910390a150505050505050565b612c8c6135ec565b8060028381548110612c9a57fe5b9060005260206000209060040201600201906005612cb992919061370e565b50600060028381548110612cc957fe5b906000526020600020906004020160010160096101000a81548161ffff021916908361ffff16021790555060005b60028381548110612d0457fe5b906000526020600020906004020160030180549050811015612e2b57600860028481548110612d2f57fe5b90600052602060002090600402016003018281548110612d4b57fe5b90600052602060002001549080600181540180825580915050600190039060005260206000200160009091909190915055600960028481548110612d8b57fe5b90600052602060002090600402016003018281548110612da757fe5b906000526020600020015481548110612dbc57fe5b90600052602060002001600080820160006101000a81549061ffff02191690556000820160026101000a81549061ffff02191690556000820160046101000a81549063ffffffff02191690556000820160086101000a81549060ff021916905550508080600101915050612cf7565b5060608060028481548110612e3c57fe5b90600052602060002090600402016003019080519060200190612e609291906137ab565b50600060028481548110612e7057fe5b906000526020600020906004020160010160006101000a81548160ff021916908315150217905550505050565b600860028381548110612eac57fe5b90600052602060002090600402016003018281548110612ec857fe5b9060005260206000200154908060018154018082558091505060019003906000526020600020016000909190919091505560028281548110612f0657fe5b9060005260206000209060040201600301600160028481548110612f2657fe5b9060005260206000209060040201600301805490500381548110612f4657fe5b906000526020600020015460028381548110612f5e57fe5b90600052602060002090600402016003018281548110612f7a57fe5b906000526020600020018190555060028281548110612f9557fe5b9060005260206000209060040201600301805480612faf57fe5b600190038181906000526020600020016000905590555050565b600073ffffffffffffffffffffffffffffffffffffffff168173ffffffffffffffffffffffffffffffffffffffff16141561300357600080fd5b8073ffffffffffffffffffffffffffffffffffffffff1660008054906101000a900473ffffffffffffffffffffffffffffffffffffffff1673ffffffffffffffffffffffffffffffffffffffff167f8be0079c531659141344cd1fd0a4f28419497f9722a3daafe3b4186f6b6457e060405160405180910390a3806000806101000a81548173ffffffffffffffffffffffffffffffffffffffff021916908373ffffffffffffffffffffffffffffffffffffffff16021790555050565b60008060005b60058110156130f5578381600581106130db57fe5b602002015161ffff168201915080806001019150506130c6565b506000811161310357600080fd5b60006131196002836135cc90919063ffffffff16565b9050600081905061315b61314c60028760006005811061313557fe5b602002015161ffff166135cc90919063ffffffff16565b8361352f90919063ffffffff16565b915061319861318960038760016005811061317257fe5b602002015161ffff166135cc90919063ffffffff16565b8361352f90919063ffffffff16565b91506131d56131c66003876001600581106131af57fe5b602002015161ffff166135cc90919063ffffffff16565b8261352f90919063ffffffff16565b90506132126132036002876002600581106131ec57fe5b602002015161ffff166135cc90919063ffffffff16565b8261352f90919063ffffffff16565b905061324f61324060028760036005811061322957fe5b602002015161ffff166135cc90919063ffffffff16565b8361352f90919063ffffffff16565b915061328c61327d60048760036005811061326657fe5b602002015161ffff166135cc90919063ffffffff16565b8261352f90919063ffffffff16565b90506132c96132ba6002876004600581106132a357fe5b602002015161ffff166135cc90919063ffffffff16565b8261352f90919063ffffffff16565b8101905060008114156132df5780806001019150505b60008060088054905014156133fc576007549050600061546042019050600960405180608001604052808661ffff1681526020018561ffff1681526020018363ffffffff168152602001600015158152509080600181540180825580915050600190039060005260206000200160009091909190915060008201518160000160006101000a81548161ffff021916908361ffff16021790555060208201518160000160026101000a81548161ffff021916908361ffff16021790555060408201518160000160046101000a81548163ffffffff021916908363ffffffff16021790555060608201518160000160086101000a81548160ff021916908315150217905550505060076000815480929190600101919050555050613523565b60086001600880549050038154811061341157fe5b9060005260206000200154905060006154604201905060405180608001604052808561ffff1681526020018461ffff1681526020018263ffffffff168152602001600015158152506009838154811061346657fe5b9060005260206000200160008201518160000160006101000a81548161ffff021916908361ffff16021790555060208201518160000160026101000a81548161ffff021916908361ffff16021790555060408201518160000160046101000a81548163ffffffff021916908363ffffffff16021790555060608201518160000160086101000a81548160ff021916908315150217905550905050600880548061350b57fe5b60019003818190600052602060002001600090559055505b80945050505050919050565b60008183019050828110156135ac576040517f08c379a00000000000000000000000000000000000000000000000000000000081526004018080602001828103825260158152602001807f55696e74204f766572666c6f77204f636375726564000000000000000000000081525060200191505060405180910390fd5b92915050565b6000828211156135c157600080fd5b818303905092915050565b60008082116135da57600080fd5b8183816135e357fe5b04905092915050565b6040518060a00160405280600590602082028036833780820191505090505090565b828054600181600116156101000203166002900490600052602060002090601f016020900481019282601f1061364f57803560ff191683800117855561367d565b8280016001018555821561367d579182015b8281111561367c578235825591602001919060010190613661565b5b50905061368a91906137f8565b5090565b828054600181600116156101000203166002900490600052602060002090601f016020900481019282601f106136cf57805160ff19168380011785556136fd565b828001600101855582156136fd579182015b828111156136fc5782518255916020019190600101906136e1565b5b50905061370a91906137f8565b5090565b826005600f0160109004810192821561379a5791602002820160005b8382111561376a57835183826101000a81548161ffff021916908361ffff160217905550926020019260020160208160010104928301926001030261372a565b80156137985782816101000a81549061ffff021916905560020160208160010104928301926001030261376a565b505b5090506137a79190613815565b5090565b8280548282559060005260206000209081019282156137e7579160200282015b828111156137e65782518255916020019190600101906137cb565b5b5090506137f491906137f8565b5090565b5b808211156138115760008160009055506001016137f9565b5090565b5b8082111561383a57600081816101000a81549061ffff021916905550600101613816565b509056fea264697066735822122070b054d109dc060f1effabbe855b94dabb04e18c2da69f960da921a03930d32164736f6c634300060c0033",
  "immutableReferences": {},
  "source": "pragma solidity >=0.4.22 <0.7.0;\n\nimport \"./GameLogic.sol\";\n\ncontract GameLogicAs_ERC721 is GameLogic{\n    mapping (uint => address) plainsWalkerApprovals;\n\n  event Transfer(\n    address indexed _from,\n    address indexed _to,\n    uint256 indexed _tokenId\n  );\n \n \n  event Approval(\n    address indexed _owner,\n    address indexed _approved,\n    uint256 indexed _tokenId\n  );\n\n    function balanceOf(address _owner) external view returns (uint256) {\n        return ownerPlainsWalkerCount[_owner];\n    }\n\n    function ownerOf(uint256 _tokenId) external view returns (address) {\n        return plainsWalkerToOwner[_tokenId];\n    }\n    \n    function _transfer(address _from, address _to, uint256 _tokenId) private{\n        ownerPlainsWalkerCount[_to] = ownerPlainsWalkerCount[_to].add(1);\n        ownerPlainsWalkerCount[msg.sender] = ownerPlainsWalkerCount[msg.sender].sub(1);\n        plainsWalkerToOwner[_tokenId] = _to;\n        emit Transfer(_from, _to, _tokenId);\n    }\n      \n    function safeTransferFrom(address _from, address _to, uint256 _tokenId) external {\n        require (plainsWalkerToOwner[_tokenId] == msg.sender || plainsWalkerApprovals[_tokenId] == msg.sender);\n        _transfer(_from, _to, _tokenId);\n    }\n\n    function approve(address _approved, uint256 _tokenId) external payable ownerOfPlainsWalker(_tokenId){\n        plainsWalkerApprovals[_tokenId] = _approved;\n        emit Approval(msg.sender, _approved, _tokenId);\n    }\n}",
  "sourcePath": "/Users/johnminer/dev/mtg_on_blockchain/contracts/GamelogicAs_ERC721.sol",
  "compiler": {
    "name": "solc",
    "version": "0.6.12+commit.27d51765.Emscripten.clang"
  },
  "schemaVersion": "3.3.0",
  "updatedAt": "2020-10-16T20:35:36.819Z",
  "networkType": "ethereum",
  "devdoc": {
    "kind": "dev",
    "methods": {
      "attackWithCreature(uint256,uint256,uint256)": {
        "details": "A function that allows a plainswalker to command one of it's creatures to attack another plainswalker"
      },
      "changeName(uint256,string)": {
        "details": "change the name of a plainsWalker if you own it."
      },
      "collectManaFromLands(uint256,uint256)": {
        "details": "A function that intefaces with the land contract and collects mana from the land."
      },
      "createRandomPlainsWalker(string)": {
        "details": "External function to create a persons first plainsWalker"
      },
      "getCreatureInfoByIndex(uint256)": {
        "details": "A getter function for creature info."
      },
      "getPlainsWalkerFee()": {
        "details": "A function to tell users how much a plainsWalker costs"
      },
      "getPlainsWalkersByOwner(address)": {
        "details": "Find plainsWalkers by owner addresses."
      },
      "getPlainswalkerInfoById(uint256)": {
        "details": "Get information on a plainsWalker through its id."
      },
      "isOwner()": {
        "returns": {
          "_0": "true if `msg.sender` is the owner of the contract."
        }
      },
      "owner()": {
        "returns": {
          "_0": "the address of the owner."
        }
      },
      "purchasePlainsWalker(string)": {
        "details": "A function to purchase another plainswalker"
      },
      "renounceOwnership()": {
        "details": "Allows the current owner to relinquish control of the contract."
      },
      "revivePlainsWalker(uint256)": {
        "details": "A function that revives a plainsWalker after it has died."
      },
      "setCreatureToAttack(uint256,uint256)": {
        "details": "Sets a creature to be able to attack"
      },
      "setCreatureToDefend(uint256,uint256)": {
        "details": "Sets a creature to defend "
      },
      "setLandContractAddress(address)": {
        "details": "A function so the owner of the contract can set the address of the land contract."
      },
      "setPlainsWalkerFee(uint256)": {
        "details": "A function to set how much a plainsWalker costs"
      },
      "summonCreature(uint256,uint16,uint16,uint16,uint16,uint16)": {
        "details": "A function that summons a creature with by spending mana and assocciates the id of the creature with the   plainsWalker that summoned it."
      },
      "transferOwnership(address)": {
        "details": "Allows the current owner to transfer control of the contract to a newOwner.",
        "params": {
          "newOwner": "The address to transfer ownership to."
        }
      }
    },
    "version": 1
  },
  "userdoc": {
    "kind": "user",
    "methods": {
      "renounceOwnership()": {
        "notice": "Renouncing to ownership will leave the contract without an owner. It will not be possible to call the functions with the `onlyOwner` modifier anymore."
      }
    },
    "version": 1
  }
}