{
  "contractName": "LandFactory",
  "abi": [
    {
      "anonymous": false,
      "inputs": [
        {
          "indexed": true,
          "internalType": "address",
          "name": "previousOwner",
          "type": "address"
        },
        {
          "indexed": true,
          "internalType": "address",
          "name": "newOwner",
          "type": "address"
        }
      ],
      "name": "OwnershipTransferred",
      "type": "event"
    },
    {
      "inputs": [],
      "name": "isOwner",
      "outputs": [
        {
          "internalType": "bool",
          "name": "",
          "type": "bool"
        }
      ],
      "stateMutability": "view",
      "type": "function"
    },
    {
      "inputs": [
        {
          "internalType": "uint256",
          "name": "",
          "type": "uint256"
        }
      ],
      "name": "landNames",
      "outputs": [
        {
          "internalType": "string",
          "name": "",
          "type": "string"
        }
      ],
      "stateMutability": "view",
      "type": "function"
    },
    {
      "inputs": [
        {
          "internalType": "address",
          "name": "",
          "type": "address"
        }
      ],
      "name": "landOwnerCount",
      "outputs": [
        {
          "internalType": "uint256",
          "name": "",
          "type": "uint256"
        }
      ],
      "stateMutability": "view",
      "type": "function"
    },
    {
      "inputs": [
        {
          "internalType": "uint256",
          "name": "",
          "type": "uint256"
        }
      ],
      "name": "landToOwner",
      "outputs": [
        {
          "internalType": "address",
          "name": "",
          "type": "address"
        }
      ],
      "stateMutability": "view",
      "type": "function"
    },
    {
      "inputs": [],
      "name": "owner",
      "outputs": [
        {
          "internalType": "address",
          "name": "",
          "type": "address"
        }
      ],
      "stateMutability": "view",
      "type": "function"
    },
    {
      "inputs": [],
      "name": "renounceOwnership",
      "outputs": [],
      "stateMutability": "nonpayable",
      "type": "function"
    },
    {
      "inputs": [
        {
          "internalType": "address",
          "name": "newOwner",
          "type": "address"
        }
      ],
      "name": "transferOwnership",
      "outputs": [],
      "stateMutability": "nonpayable",
      "type": "function"
    },
    {
      "inputs": [],
      "name": "generateRandomLand",
      "outputs": [],
      "stateMutability": "payable",
      "type": "function"
    },
    {
      "inputs": [],
      "name": "withdraw",
      "outputs": [],
      "stateMutability": "nonpayable",
      "type": "function"
    },
    {
      "inputs": [
        {
          "internalType": "address",
          "name": "_owner",
          "type": "address"
        }
      ],
      "name": "getLandByOwner",
      "outputs": [
        {
          "internalType": "uint256[]",
          "name": "",
          "type": "uint256[]"
        }
      ],
      "stateMutability": "view",
      "type": "function"
    },
    {
      "inputs": [
        {
          "internalType": "address",
          "name": "_owner",
          "type": "address"
        },
        {
          "internalType": "uint256",
          "name": "_landId",
          "type": "uint256"
        }
      ],
      "name": "_collectManaFromLand",
      "outputs": [
        {
          "internalType": "uint16[5]",
          "name": "",
          "type": "uint16[5]"
        }
      ],
      "stateMutability": "nonpayable",
      "type": "function"
    },
    {
      "inputs": [
        {
          "internalType": "uint256",
          "name": "_id",
          "type": "uint256"
        }
      ],
      "name": "getWhatTypeIsLand",
      "outputs": [
        {
          "internalType": "string",
          "name": "landtype",
          "type": "string"
        }
      ],
      "stateMutability": "view",
      "type": "function"
    }
  ],
  "bytecode": "0x60806040526040518060a001604052806040518060400160405280600381526020017f526564000000000000000000000000000000000000000000000000000000000081525081526020016040518060400160405280600581526020017f477265656e00000000000000000000000000000000000000000000000000000081525081526020016040518060400160405280600481526020017f426c75650000000000000000000000000000000000000000000000000000000081525081526020016040518060400160405280600581526020017f426c61636b00000000000000000000000000000000000000000000000000000081525081526020016040518060400160405280600581526020017f576869746500000000000000000000000000000000000000000000000000000081525081525060039060056200014692919062000216565b503480156200015457600080fd5b50336000806101000a81548173ffffffffffffffffffffffffffffffffffffffff021916908373ffffffffffffffffffffffffffffffffffffffff16021790555060008054906101000a900473ffffffffffffffffffffffffffffffffffffffff1673ffffffffffffffffffffffffffffffffffffffff16600073ffffffffffffffffffffffffffffffffffffffff167f8be0079c531659141344cd1fd0a4f28419497f9722a3daafe3b4186f6b6457e060405160405180910390a36200038a565b82600581019282156200025d579160200282015b828111156200025c5782518290805190602001906200024b92919062000270565b50916020019190600101906200022a565b5b5090506200026c9190620002f7565b5090565b828054600181600116156101000203166002900490600052602060002090601f016020900481019282601f10620002b357805160ff1916838001178555620002e4565b82800160010185558215620002e4579182015b82811115620002e3578251825591602001919060010190620002c6565b5b509050620002f391906200031f565b5090565b5b808211156200031b57600081816200031191906200033e565b50600101620002f8565b5090565b5b808211156200033a57600081600090555060010162000320565b5090565b50805460018160011615610100020316600290046000825580601f1062000366575062000387565b601f0160209004906000526020600020908101906200038691906200031f565b5b50565b6110dd806200039a6000396000f3fe6080604052600436106100a75760003560e01c80638c3a54c3116100645780638c3a54c3146102e15780638da5cb5b146103955780638f32d59b146103d657806398b07a8f14610403578063c0271a1d1461040d578063f2fde38b146104c1576100a7565b806316c38de9146100ac5780633412e435146101435780633ccfd60b146101e95780635f28c6bf14610200578063715018a61461026557806382795acb1461027c575b600080fd5b3480156100b857600080fd5b50610105600480360360408110156100cf57600080fd5b81019080803573ffffffffffffffffffffffffffffffffffffffff16906020019092919080359060200190929190505050610512565b6040518082600560200280838360005b83811015610130578082015181840152602081019050610115565b5050505090500191505060405180910390f35b34801561014f57600080fd5b506101926004803603602081101561016657600080fd5b81019080803573ffffffffffffffffffffffffffffffffffffffff16906020019092919050505061077b565b6040518080602001828103825283818151815260200191508051906020019060200280838360005b838110156101d55780820151818401526020810190506101ba565b505050509050019250505060405180910390f35b3480156101f557600080fd5b506101fe6108b8565b005b34801561020c57600080fd5b506102396004803603602081101561022357600080fd5b810190808035906020019092919050505061091f565b604051808273ffffffffffffffffffffffffffffffffffffffff16815260200191505060405180910390f35b34801561027157600080fd5b5061027a610952565b005b34801561028857600080fd5b506102cb6004803603602081101561029f57600080fd5b81019080803573ffffffffffffffffffffffffffffffffffffffff169060200190929190505050610a21565b6040518082815260200191505060405180910390f35b3480156102ed57600080fd5b5061031a6004803603602081101561030457600080fd5b8101908080359060200190929190505050610a39565b6040518080602001828103825283818151815260200191508051906020019080838360005b8381101561035a57808201518184015260208101905061033f565b50505050905090810190601f1680156103875780820380516001836020036101000a031916815260200191505b509250505060405180910390f35b3480156103a157600080fd5b506103aa610af9565b604051808273ffffffffffffffffffffffffffffffffffffffff16815260200191505060405180910390f35b3480156103e257600080fd5b506103eb610b22565b60405180821515815260200191505060405180910390f35b61040b610b79565b005b34801561041957600080fd5b506104466004803603602081101561043057600080fd5b8101908080359060200190929190505050610e24565b6040518080602001828103825283818151815260200191508051906020019080838360005b8381101561048657808201518184015260208101905061046b565b50505050905090810190601f1680156104b35780820380516001836020036101000a031916815260200191505b509250505060405180910390f35b3480156104cd57600080fd5b50610510600480360360208110156104e457600080fd5b81019080803573ffffffffffffffffffffffffffffffffffffffff169060200190929190505050610ed4565b005b61051a610fe8565b8273ffffffffffffffffffffffffffffffffffffffff166001600084815260200190815260200160002060009054906101000a900473ffffffffffffffffffffffffffffffffffffffff1673ffffffffffffffffffffffffffffffffffffffff161461058557600080fd5b61058d610fe8565b60005b600581101561077057600884815481106105a657fe5b906000526020600020906002020160000160405160200180828054600181600116156101000203166002900480156106155780601f106105f3576101008083540402835291820191610615565b820191906000526020600020905b815481529060010190602001808311610601575b5050915050604051602081830303815290604052805190602001206003826005811061063d57fe5b01604051602001808280546001816001161561010002031660029004801561069c5780601f1061067a57610100808354040283529182019161069c565b820191906000526020600020905b815481529060010190602001808311610688575b5050915050604051602081830303815290604052805190602001201480156106f8575042600885815481106106cd57fe5b906000526020600020906002020160010160009054906101000a900463ffffffff1663ffffffff1611155b156107635781816005811061070957fe5b60200201805180919060010161ffff1661ffff168152505061546042016008858154811061073357fe5b906000526020600020906002020160010160006101000a81548163ffffffff021916908363ffffffff1602179055505b8080600101915050610590565b508091505092915050565b606080600260008473ffffffffffffffffffffffffffffffffffffffff1673ffffffffffffffffffffffffffffffffffffffff1681526020019081526020016000205467ffffffffffffffff811180156107d457600080fd5b506040519080825280602002602001820160405280156108035781602001602082028036833780820191505090505b5090506000805b6008805490508110156108ad578473ffffffffffffffffffffffffffffffffffffffff166001600083815260200190815260200160002060009054906101000a900473ffffffffffffffffffffffffffffffffffffffff1673ffffffffffffffffffffffffffffffffffffffff1614156108a0578083838151811061088b57fe5b60200260200101818152505081806001019250505b808060010191505061080a565b508192505050919050565b6108c0610b22565b6108c957600080fd5b60006108d3610af9565b90508073ffffffffffffffffffffffffffffffffffffffff166108fc479081150290604051600060405180830381858888f1935050505015801561091b573d6000803e3d6000fd5b5050565b60016020528060005260406000206000915054906101000a900473ffffffffffffffffffffffffffffffffffffffff1681565b61095a610b22565b61096357600080fd5b600073ffffffffffffffffffffffffffffffffffffffff1660008054906101000a900473ffffffffffffffffffffffffffffffffffffffff1673ffffffffffffffffffffffffffffffffffffffff167f8be0079c531659141344cd1fd0a4f28419497f9722a3daafe3b4186f6b6457e060405160405180910390a360008060006101000a81548173ffffffffffffffffffffffffffffffffffffffff021916908373ffffffffffffffffffffffffffffffffffffffff160217905550565b60026020528060005260406000206000915090505481565b606060088281548110610a4857fe5b90600052602060002090600202016000018054600181600116156101000203166002900480601f016020809104026020016040519081016040528092919081815260200182805460018160011615610100020316600290048015610aed5780601f10610ac257610100808354040283529160200191610aed565b820191906000526020600020905b815481529060010190602001808311610ad057829003601f168201915b50505050509050919050565b60008060009054906101000a900473ffffffffffffffffffffffffffffffffffffffff16905090565b60008060009054906101000a900473ffffffffffffffffffffffffffffffffffffffff1673ffffffffffffffffffffffffffffffffffffffff163373ffffffffffffffffffffffffffffffffffffffff1614905090565b6611c37937e0800034101580610bce57506000600260003373ffffffffffffffffffffffffffffffffffffffff1673ffffffffffffffffffffffffffffffffffffffff16815260200190815260200160002054145b610bd757600080fd5b60006008805490503342604051602001808481526020018373ffffffffffffffffffffffffffffffffffffffff1660601b815260140182815260200193505050506040516020818303038152906040528051906020012060001c905060058181610c3d57fe5b0690506008604051806040016040528060038460058110610c5a57fe5b018054600181600116156101000203166002900480601f016020809104026020016040519081016040528092919081815260200182805460018160011615610100020316600290048015610cef5780601f10610cc457610100808354040283529160200191610cef565b820191906000526020600020905b815481529060010190602001808311610cd257829003601f168201915b505050505081526020014263ffffffff1681525090806001815401808255809150506001900390600052602060002090600202016000909190919091506000820151816000019080519060200190610d4892919061100a565b5060208201518160010160006101000a81548163ffffffff021916908363ffffffff160217905550505060006001600880549050039050336001600083815260200190815260200160002060006101000a81548173ffffffffffffffffffffffffffffffffffffffff021916908373ffffffffffffffffffffffffffffffffffffffff160217905550600260003373ffffffffffffffffffffffffffffffffffffffff1673ffffffffffffffffffffffffffffffffffffffff168152602001908152602001600020600081548092919060010191905055505050565b60038160058110610e3157fe5b016000915090508054600181600116156101000203166002900480601f016020809104026020016040519081016040528092919081815260200182805460018160011615610100020316600290048015610ecc5780601f10610ea157610100808354040283529160200191610ecc565b820191906000526020600020905b815481529060010190602001808311610eaf57829003601f168201915b505050505081565b610edc610b22565b610ee557600080fd5b610eee81610ef1565b50565b600073ffffffffffffffffffffffffffffffffffffffff168173ffffffffffffffffffffffffffffffffffffffff161415610f2b57600080fd5b8073ffffffffffffffffffffffffffffffffffffffff1660008054906101000a900473ffffffffffffffffffffffffffffffffffffffff1673ffffffffffffffffffffffffffffffffffffffff167f8be0079c531659141344cd1fd0a4f28419497f9722a3daafe3b4186f6b6457e060405160405180910390a3806000806101000a81548173ffffffffffffffffffffffffffffffffffffffff021916908373ffffffffffffffffffffffffffffffffffffffff16021790555050565b6040518060a00160405280600590602082028036833780820191505090505090565b828054600181600116156101000203166002900490600052602060002090601f016020900481019282601f1061104b57805160ff1916838001178555611079565b82800160010185558215611079579182015b8281111561107857825182559160200191906001019061105d565b5b509050611086919061108a565b5090565b5b808211156110a357600081600090555060010161108b565b509056fea264697066735822122045479d487a13aa45a81ee2b2c03936ebee1241f78217827272de0aa4b24d0d4364736f6c634300060c0033",
  "immutableReferences": {},
  "source": "pragma solidity >=0.4.22 <0.7.0;\n\nimport \"./Ownable.sol\";\nimport \"./SafeMath.sol\";\n/**\n * @dev A contract that keeps track of lands. Lands generate mana that is harvested and used by plainsWalkers.\n */\ncontract LandFactory is Ownable{\n\n    using SafeMath for uint256;\n    \n    /**\n     * @dev A struct for lands\n     */\n    struct Land {\n        // What type of mana it generates.\n        string landType;\n        // When you can harvest this land again.\n        uint32 readyTime;\n    }\n\n    // Maps lands to owners.\n    mapping (uint => address) public landToOwner;\n    // Keeps count of how many lands each owner has.\n    mapping (address => uint) public landOwnerCount;\n    // A list of the land names to simplify som code.\n    string[5] public landNames = ['Red', 'Green', 'Blue', 'Black', 'White'];\n    // The list of all lands.\n    Land[] lands;\n\n    /**\n     * @dev This function generates a land of a random type\n     */\n    function generateRandomLand() external payable {\n        // require that they send some ether or that they have no lands.\n        require(msg.value >= 0.005 ether || landOwnerCount[msg.sender] == 0);\n        // generate random number\n        uint rand = uint(keccak256(abi.encodePacked(lands.length, msg.sender, block.timestamp)));\n        // mod it by five to get a land type\n        rand = rand % 5;\n\n        // add land to our list\n        lands.push(Land(landNames[rand], uint32(block.timestamp)));\n\n        // associate it with our sender\n        uint id = lands.length -1;\n        landToOwner[id] = msg.sender;\n        landOwnerCount[msg.sender]++;\n    }\n\n    /**\n     * @dev Allows the owner of LandFactory to withdraw ether spent on lands\n     */\n    function withdraw() external onlyOwner {\n        address payable _owner = payable(owner());\n        _owner.transfer(address(this).balance);\n    }\n\n    /**\n     * @dev This funtion returns the indexes of the lands that the address owns\n     */\n    function getLandByOwner(address _owner) external view returns(uint[] memory) {\n        uint[] memory result = new uint[](landOwnerCount[_owner]);\n        uint counter = 0;\n        for (uint i = 0; i < lands.length; i++) {\n            if (landToOwner[i] == _owner) {\n                result[counter] = i;\n                counter++;\n            }\n        }\n        return result;\n    }\n    \n    /**\n     * @dev Requires you to be the owner of a land\n     */\n    modifier ownerOfLand(uint _landId) {\n        require(msg.sender == landToOwner[_landId]);\n        _;\n    }\n    \n    /**\n     * @dev this function collects mana from one land based on its id and returns the array of that mana\n     */\n    function _collectManaFromLand(address _owner, uint _landId) external returns(uint16[5] memory) {\n        require(landToOwner[_landId] == _owner);\n        uint16[5] memory result;\n        for (uint j = 0; j < landNames.length; j++){\n            if (keccak256(abi.encodePacked(landNames[j])) == keccak256(abi.encodePacked(lands[_landId].landType)) && lands[_landId].readyTime <= block.timestamp){\n                result[j]++;\n                lands[_landId].readyTime = uint32(block.timestamp + 6 hours);\n                }\n            }\n        return result;\n    }\n    \n    function getWhatTypeIsLand(uint _id) external view returns(string memory landtype){\n        return lands[_id].landType;\n    }\n}\n\n",
  "sourcePath": "/Users/johnminer/dev/mtg_on_blockchain/contracts/LandFactory.sol",
  "compiler": {
    "name": "solc",
    "version": "0.6.12+commit.27d51765.Emscripten.clang"
  },
  "schemaVersion": "3.3.0",
  "updatedAt": "2020-10-16T20:35:17.000Z",
  "devdoc": {
    "details": "A contract that keeps track of lands. Lands generate mana that is harvested and used by plainsWalkers.",
    "kind": "dev",
    "methods": {
      "_collectManaFromLand(address,uint256)": {
        "details": "this function collects mana from one land based on its id and returns the array of that mana"
      },
      "generateRandomLand()": {
        "details": "This function generates a land of a random type"
      },
      "getLandByOwner(address)": {
        "details": "This funtion returns the indexes of the lands that the address owns"
      },
      "isOwner()": {
        "returns": {
          "_0": "true if `msg.sender` is the owner of the contract."
        }
      },
      "owner()": {
        "returns": {
          "_0": "the address of the owner."
        }
      },
      "renounceOwnership()": {
        "details": "Allows the current owner to relinquish control of the contract."
      },
      "transferOwnership(address)": {
        "details": "Allows the current owner to transfer control of the contract to a newOwner.",
        "params": {
          "newOwner": "The address to transfer ownership to."
        }
      },
      "withdraw()": {
        "details": "Allows the owner of LandFactory to withdraw ether spent on lands"
      }
    },
    "version": 1
  },
  "userdoc": {
    "kind": "user",
    "methods": {
      "renounceOwnership()": {
        "notice": "Renouncing to ownership will leave the contract without an owner. It will not be possible to call the functions with the `onlyOwner` modifier anymore."
      }
    },
    "version": 1
  }
}