{
  "contractName": "PlainsWalkerFactory",
  "abi": [
    {
      "anonymous": false,
      "inputs": [
        {
          "indexed": false,
          "internalType": "uint256",
          "name": "PlainsWalkerId",
          "type": "uint256"
        },
        {
          "indexed": false,
          "internalType": "string",
          "name": "name",
          "type": "string"
        },
        {
          "indexed": false,
          "internalType": "uint256",
          "name": "dna",
          "type": "uint256"
        }
      ],
      "name": "NewPlainswalker",
      "type": "event"
    },
    {
      "anonymous": false,
      "inputs": [
        {
          "indexed": true,
          "internalType": "address",
          "name": "previousOwner",
          "type": "address"
        },
        {
          "indexed": true,
          "internalType": "address",
          "name": "newOwner",
          "type": "address"
        }
      ],
      "name": "OwnershipTransferred",
      "type": "event"
    },
    {
      "inputs": [],
      "name": "isOwner",
      "outputs": [
        {
          "internalType": "bool",
          "name": "",
          "type": "bool"
        }
      ],
      "stateMutability": "view",
      "type": "function"
    },
    {
      "inputs": [],
      "name": "owner",
      "outputs": [
        {
          "internalType": "address",
          "name": "",
          "type": "address"
        }
      ],
      "stateMutability": "view",
      "type": "function"
    },
    {
      "inputs": [
        {
          "internalType": "address",
          "name": "",
          "type": "address"
        }
      ],
      "name": "ownerPlainsWalkerCount",
      "outputs": [
        {
          "internalType": "uint256",
          "name": "",
          "type": "uint256"
        }
      ],
      "stateMutability": "view",
      "type": "function"
    },
    {
      "inputs": [
        {
          "internalType": "uint256",
          "name": "",
          "type": "uint256"
        }
      ],
      "name": "plainsWalkerToOwner",
      "outputs": [
        {
          "internalType": "address",
          "name": "",
          "type": "address"
        }
      ],
      "stateMutability": "view",
      "type": "function"
    },
    {
      "inputs": [],
      "name": "renounceOwnership",
      "outputs": [],
      "stateMutability": "nonpayable",
      "type": "function"
    },
    {
      "inputs": [
        {
          "internalType": "address",
          "name": "newOwner",
          "type": "address"
        }
      ],
      "name": "transferOwnership",
      "outputs": [],
      "stateMutability": "nonpayable",
      "type": "function"
    },
    {
      "inputs": [
        {
          "internalType": "string",
          "name": "_name",
          "type": "string"
        }
      ],
      "name": "createRandomPlainsWalker",
      "outputs": [],
      "stateMutability": "nonpayable",
      "type": "function"
    }
  ],
  "bytecode": "0x6080604052620186a060015534801561001757600080fd5b50336000806101000a81548173ffffffffffffffffffffffffffffffffffffffff021916908373ffffffffffffffffffffffffffffffffffffffff16021790555060008054906101000a900473ffffffffffffffffffffffffffffffffffffffff1673ffffffffffffffffffffffffffffffffffffffff16600073ffffffffffffffffffffffffffffffffffffffff167f8be0079c531659141344cd1fd0a4f28419497f9722a3daafe3b4186f6b6457e060405160405180910390a3610bc4806100e26000396000f3fe608060405234801561001057600080fd5b506004361061007d5760003560e01c80638dab6beb1161005b5780638dab6beb146101185780638f32d59b146101705780639421c7ca14610190578063f2fde38b146102095761007d565b8063715018a614610082578063745c79a71461008c5780638da5cb5b146100e4575b600080fd5b61008a61024d565b005b6100ce600480360360208110156100a257600080fd5b81019080803573ffffffffffffffffffffffffffffffffffffffff16906020019092919050505061031c565b6040518082815260200191505060405180910390f35b6100ec610334565b604051808273ffffffffffffffffffffffffffffffffffffffff16815260200191505060405180910390f35b6101446004803603602081101561012e57600080fd5b810190808035906020019092919050505061035d565b604051808273ffffffffffffffffffffffffffffffffffffffff16815260200191505060405180910390f35b610178610390565b60405180821515815260200191505060405180910390f35b610207600480360360208110156101a657600080fd5b81019080803590602001906401000000008111156101c357600080fd5b8201836020820111156101d557600080fd5b803590602001918460018302840111640100000000831117156101f757600080fd5b90919293919293905050506103e7565b005b61024b6004803603602081101561021f57600080fd5b81019080803573ffffffffffffffffffffffffffffffffffffffff1690602001909291905050506104ee565b005b610255610390565b61025e57600080fd5b600073ffffffffffffffffffffffffffffffffffffffff1660008054906101000a900473ffffffffffffffffffffffffffffffffffffffff1673ffffffffffffffffffffffffffffffffffffffff167f8be0079c531659141344cd1fd0a4f28419497f9722a3daafe3b4186f6b6457e060405160405180910390a360008060006101000a81548173ffffffffffffffffffffffffffffffffffffffff021916908373ffffffffffffffffffffffffffffffffffffffff160217905550565b60046020528060005260406000206000915090505481565b60008060009054906101000a900473ffffffffffffffffffffffffffffffffffffffff16905090565b60036020528060005260406000206000915054906101000a900473ffffffffffffffffffffffffffffffffffffffff1681565b60008060009054906101000a900473ffffffffffffffffffffffffffffffffffffffff1673ffffffffffffffffffffffffffffffffffffffff163373ffffffffffffffffffffffffffffffffffffffff1614905090565b60011515600560003373ffffffffffffffffffffffffffffffffffffffff1673ffffffffffffffffffffffffffffffffffffffff16815260200190815260200160002060009054906101000a900460ff161515141561044557600080fd5b600061049583838080601f016020809104026020016040519081016040528093929190818152602001838380828437600081840152601f19601f820116905080830192505050505050503361050b565b90506104e983838080601f016020809104026020016040519081016040528093929190818152602001838380828437600081840152601f19601f8201169050808301925050505050505060018360646105c8565b505050565b6104f6610390565b6104ff57600080fd5b610508816108c5565b50565b60008083836002805490506040516020018084805190602001908083835b6020831061054c5780518252602082019150602081019050602083039250610529565b6001836020036101000a0380198251168184511680821785525050505050509050018373ffffffffffffffffffffffffffffffffffffffff1660601b815260140182815260200193505050506040516020818303038152906040528051906020012060001c905060015481816105be57fe5b0691505092915050565b6105d06109bc565b606060026040518060c0016040528088815260200187151581526020018667ffffffffffffffff1681526020018561ffff16815260200184815260200183815250908060018154018082558091505060019003906000526020600020906004020160009091909190915060008201518160000190805190602001906106569291906109de565b5060208201518160010160006101000a81548160ff02191690831515021790555060408201518160010160016101000a81548167ffffffffffffffff021916908367ffffffffffffffff16021790555060608201518160010160096101000a81548161ffff021916908361ffff1602179055506080820151816002019060056106e0929190610a5e565b5060a08201518160030190805190602001906106fd929190610afb565b50505060006001600280549050039050336003600083815260200190815260200160002060006101000a81548173ffffffffffffffffffffffffffffffffffffffff021916908373ffffffffffffffffffffffffffffffffffffffff1602179055506001600560003373ffffffffffffffffffffffffffffffffffffffff1673ffffffffffffffffffffffffffffffffffffffff16815260200190815260200160002060006101000a81548160ff021916908315150217905550600460003373ffffffffffffffffffffffffffffffffffffffff1673ffffffffffffffffffffffffffffffffffffffff168152602001908152602001600020600081548092919060010191905055507fd6481780172941270ed8b26ea7ea362972fa87c40e168becbfe47dc366ba45eb81888760405180848152602001806020018367ffffffffffffffff168152602001828103825284818151815260200191508051906020019080838360005b83811015610880578082015181840152602081019050610865565b50505050905090810190601f1680156108ad5780820380516001836020036101000a031916815260200191505b5094505050505060405180910390a150505050505050565b600073ffffffffffffffffffffffffffffffffffffffff168173ffffffffffffffffffffffffffffffffffffffff1614156108ff57600080fd5b8073ffffffffffffffffffffffffffffffffffffffff1660008054906101000a900473ffffffffffffffffffffffffffffffffffffffff1673ffffffffffffffffffffffffffffffffffffffff167f8be0079c531659141344cd1fd0a4f28419497f9722a3daafe3b4186f6b6457e060405160405180910390a3806000806101000a81548173ffffffffffffffffffffffffffffffffffffffff021916908373ffffffffffffffffffffffffffffffffffffffff16021790555050565b6040518060a00160405280600590602082028036833780820191505090505090565b828054600181600116156101000203166002900490600052602060002090601f016020900481019282601f10610a1f57805160ff1916838001178555610a4d565b82800160010185558215610a4d579182015b82811115610a4c578251825591602001919060010190610a31565b5b509050610a5a9190610b48565b5090565b826005600f01601090048101928215610aea5791602002820160005b83821115610aba57835183826101000a81548161ffff021916908361ffff1602179055509260200192600201602081600101049283019260010302610a7a565b8015610ae85782816101000a81549061ffff0219169055600201602081600101049283019260010302610aba565b505b509050610af79190610b65565b5090565b828054828255906000526020600020908101928215610b37579160200282015b82811115610b36578251825591602001919060010190610b1b565b5b509050610b449190610b48565b5090565b5b80821115610b61576000816000905550600101610b49565b5090565b5b80821115610b8a57600081816101000a81549061ffff021916905550600101610b66565b509056fea264697066735822122059c31abf872a9fec20833d9072592e8105b8dd2e90fdf788f88b8373b7bcca3a64736f6c634300060c0033",
  "immutableReferences": {},
  "source": "pragma solidity >=0.4.22 <0.7.0;\n\nimport \"./Ownable.sol\";\nimport \"./SafeMath.sol\";\n\n/**\n * @dev Plains Walkers are the main way of interacting with this contract.\n *  They can Harvest mana from lands, \n *  summon creatures,\n *  direct creatures in combat\n *  {cast spells} yet to be developed\n *  {activate creature abilities} yet to be developed\n */\ncontract PlainsWalkerFactory is Ownable{\n\n    using SafeMath for uint256;\n    \n    // used to ensure that the dna is 99999 or less.\n    uint modulus = 100000;\n\n    // Is emitted whenever a new plainswalker is created.\n    event NewPlainswalker(uint PlainsWalkerId, string name, uint dna);\n\n    // PlainsWalker struct\n    struct PlainsWalker {\n        // Name of plainswalker\n        string name;\n        // We only want one active plainsWalker per address.\n        bool isActive;\n        // {plainsWalker dna (will be used when determining certain modifiers.)} modifiers not implemented.\n        uint64 dna;\n        // How much health does a given PlainsWalker have.\n        uint16 health;\n        // mana should be in this order ['Red', 'Green', 'Blue', 'Black', 'White'].\n        uint16[5] mana;\n        // A list of creature id's that map to this plainswalker.\n        uint[] creatureList;\n    }\n    \n    // The list of PlainsWalkers\n    PlainsWalker[] plainsWalkers;\n    // Maps plainswalkers to owners\n    mapping (uint => address) public plainsWalkerToOwner;\n    // Keeps count of how many plainswalkers each owner has.\n    mapping (address => uint) public ownerPlainsWalkerCount;\n    // Keeps track of if an owner already got their first free plainswalker.\n    mapping (address => bool) firstOwnerBool;\n\n    /**\n     * @dev Create a new plainswalker based on a name health and dna. \n     * Then accosiate it with the msg.sender\n     */\n    function _createPlainswalker(string memory _name, bool _isActive, uint64 _dna, uint16 _health) internal{\n        uint16[5] memory _mana;\n        uint[] memory _creatureList;\n        plainsWalkers.push(PlainsWalker(_name, _isActive, _dna, _health, _mana, _creatureList));\n        uint id = plainsWalkers.length - 1;\n        plainsWalkerToOwner[id] = msg.sender;\n        firstOwnerBool[msg.sender] = true;\n        ownerPlainsWalkerCount[msg.sender]++;\n        emit NewPlainswalker(id, _name, _dna);\n    }\n\n    /**\n     * @dev Generate the random dna for a plainsWalker\n     */\n    function _generateRandomDna(string memory _str, address _address) internal view returns (uint){\n        uint rand = uint(keccak256(abi.encodePacked(_str, _address, plainsWalkers.length)));\n        return rand % modulus;\n    }\n\n    /**\n     * @dev External function to create a persons first plainsWalker\n     */\n    function createRandomPlainsWalker(string calldata _name) external {\n        require(firstOwnerBool[msg.sender] != true);\n        uint64 randDna = uint64(_generateRandomDna(_name, msg.sender));\n        _createPlainswalker(_name, true, randDna, 100);\n    }\n}",
  "sourcePath": "/Users/johnminer/dev/mtg_on_blockchain/contracts/PlainsWalkerFactory.sol",
  "compiler": {
    "name": "solc",
    "version": "0.6.12+commit.27d51765.Emscripten.clang"
  },
  "schemaVersion": "3.3.0",
  "updatedAt": "2020-10-15T01:51:22.790Z",
  "devdoc": {
    "details": "Plains Walkers are the main way of interacting with this contract.  They can Harvest mana from lands,   summon creatures,  direct creatures in combat  {cast spells} yet to be developed  {activate creature abilities} yet to be developed",
    "kind": "dev",
    "methods": {
      "createRandomPlainsWalker(string)": {
        "details": "External function to create a persons first plainsWalker"
      },
      "isOwner()": {
        "returns": {
          "_0": "true if `msg.sender` is the owner of the contract."
        }
      },
      "owner()": {
        "returns": {
          "_0": "the address of the owner."
        }
      },
      "renounceOwnership()": {
        "details": "Allows the current owner to relinquish control of the contract."
      },
      "transferOwnership(address)": {
        "details": "Allows the current owner to transfer control of the contract to a newOwner.",
        "params": {
          "newOwner": "The address to transfer ownership to."
        }
      }
    },
    "version": 1
  },
  "userdoc": {
    "kind": "user",
    "methods": {
      "renounceOwnership()": {
        "notice": "Renouncing to ownership will leave the contract without an owner. It will not be possible to call the functions with the `onlyOwner` modifier anymore."
      }
    },
    "version": 1
  }
}