{
  "contractName": "PlainsWalkerHelper",
  "abi": [
    {
      "anonymous": false,
      "inputs": [
        {
          "indexed": false,
          "internalType": "uint256",
          "name": "PlainsWalkerId",
          "type": "uint256"
        },
        {
          "indexed": false,
          "internalType": "string",
          "name": "name",
          "type": "string"
        },
        {
          "indexed": false,
          "internalType": "uint256",
          "name": "dna",
          "type": "uint256"
        }
      ],
      "name": "NewPlainswalker",
      "type": "event"
    },
    {
      "anonymous": false,
      "inputs": [
        {
          "indexed": true,
          "internalType": "address",
          "name": "previousOwner",
          "type": "address"
        },
        {
          "indexed": true,
          "internalType": "address",
          "name": "newOwner",
          "type": "address"
        }
      ],
      "name": "OwnershipTransferred",
      "type": "event"
    },
    {
      "inputs": [
        {
          "internalType": "string",
          "name": "_name",
          "type": "string"
        }
      ],
      "name": "createRandomPlainsWalker",
      "outputs": [],
      "stateMutability": "nonpayable",
      "type": "function"
    },
    {
      "inputs": [],
      "name": "isOwner",
      "outputs": [
        {
          "internalType": "bool",
          "name": "",
          "type": "bool"
        }
      ],
      "stateMutability": "view",
      "type": "function"
    },
    {
      "inputs": [],
      "name": "owner",
      "outputs": [
        {
          "internalType": "address",
          "name": "",
          "type": "address"
        }
      ],
      "stateMutability": "view",
      "type": "function"
    },
    {
      "inputs": [
        {
          "internalType": "address",
          "name": "",
          "type": "address"
        }
      ],
      "name": "ownerPlainsWalkerCount",
      "outputs": [
        {
          "internalType": "uint256",
          "name": "",
          "type": "uint256"
        }
      ],
      "stateMutability": "view",
      "type": "function"
    },
    {
      "inputs": [
        {
          "internalType": "uint256",
          "name": "",
          "type": "uint256"
        }
      ],
      "name": "plainsWalkerToOwner",
      "outputs": [
        {
          "internalType": "address",
          "name": "",
          "type": "address"
        }
      ],
      "stateMutability": "view",
      "type": "function"
    },
    {
      "inputs": [],
      "name": "renounceOwnership",
      "outputs": [],
      "stateMutability": "nonpayable",
      "type": "function"
    },
    {
      "inputs": [
        {
          "internalType": "address",
          "name": "newOwner",
          "type": "address"
        }
      ],
      "name": "transferOwnership",
      "outputs": [],
      "stateMutability": "nonpayable",
      "type": "function"
    },
    {
      "inputs": [],
      "name": "getPlainsWalkerFee",
      "outputs": [
        {
          "internalType": "uint256",
          "name": "",
          "type": "uint256"
        }
      ],
      "stateMutability": "view",
      "type": "function"
    },
    {
      "inputs": [
        {
          "internalType": "uint256",
          "name": "_fee",
          "type": "uint256"
        }
      ],
      "name": "setPlainsWalkerFee",
      "outputs": [],
      "stateMutability": "nonpayable",
      "type": "function"
    },
    {
      "inputs": [
        {
          "internalType": "string",
          "name": "_name",
          "type": "string"
        }
      ],
      "name": "purchasePlainsWalker",
      "outputs": [],
      "stateMutability": "payable",
      "type": "function"
    },
    {
      "inputs": [
        {
          "internalType": "address",
          "name": "_owner",
          "type": "address"
        }
      ],
      "name": "getPlainsWalkersByOwner",
      "outputs": [
        {
          "internalType": "uint256[]",
          "name": "",
          "type": "uint256[]"
        }
      ],
      "stateMutability": "view",
      "type": "function"
    },
    {
      "inputs": [
        {
          "internalType": "uint256",
          "name": "_plainsWalkerId",
          "type": "uint256"
        },
        {
          "internalType": "string",
          "name": "_newName",
          "type": "string"
        }
      ],
      "name": "changeName",
      "outputs": [],
      "stateMutability": "nonpayable",
      "type": "function"
    },
    {
      "inputs": [
        {
          "internalType": "uint256",
          "name": "_id",
          "type": "uint256"
        }
      ],
      "name": "getPlainswalkerInfoById",
      "outputs": [
        {
          "internalType": "string",
          "name": "name",
          "type": "string"
        },
        {
          "internalType": "bool",
          "name": "isActive",
          "type": "bool"
        },
        {
          "internalType": "uint16",
          "name": "health",
          "type": "uint16"
        },
        {
          "internalType": "uint16[5]",
          "name": "mana",
          "type": "uint16[5]"
        },
        {
          "internalType": "uint256[]",
          "name": "creatureIndex",
          "type": "uint256[]"
        }
      ],
      "stateMutability": "view",
      "type": "function"
    }
  ],
  "bytecode": "0x6080604052620186a060015566470de4df82000060065534801561002257600080fd5b50336000806101000a81548173ffffffffffffffffffffffffffffffffffffffff021916908373ffffffffffffffffffffffffffffffffffffffff16021790555060008054906101000a900473ffffffffffffffffffffffffffffffffffffffff1673ffffffffffffffffffffffffffffffffffffffff16600073ffffffffffffffffffffffffffffffffffffffff167f8be0079c531659141344cd1fd0a4f28419497f9722a3daafe3b4186f6b6457e060405160405180910390a3611541806100ed6000396000f3fe6080604052600436106100c25760003560e01c80639421c7ca1161007f578063e22ee80411610059578063e22ee80414610422578063e90a2ea3146104c8578063f0e27093146104f3578063f2fde38b14610632576100c2565b80639421c7ca146102d1578063b1f0522f14610357578063c39cbef114610392576100c2565b8063715018a6146100c7578063745c79a7146100de5780637bba53e0146101435780638da5cb5b146101fe5780638dab6beb1461023f5780638f32d59b146102a4575b600080fd5b3480156100d357600080fd5b506100dc610683565b005b3480156100ea57600080fd5b5061012d6004803603602081101561010157600080fd5b81019080803573ffffffffffffffffffffffffffffffffffffffff169060200190929190505050610752565b6040518082815260200191505060405180910390f35b6101fc6004803603602081101561015957600080fd5b810190808035906020019064010000000081111561017657600080fd5b82018360208201111561018857600080fd5b803590602001918460018302840111640100000000831117156101aa57600080fd5b91908080601f016020809104026020016040519081016040528093929190818152602001838380828437600081840152601f19601f82011690508083019250505050505050919291929050505061076a565b005b34801561020a57600080fd5b50610213610798565b604051808273ffffffffffffffffffffffffffffffffffffffff16815260200191505060405180910390f35b34801561024b57600080fd5b506102786004803603602081101561026257600080fd5b81019080803590602001909291905050506107c1565b604051808273ffffffffffffffffffffffffffffffffffffffff16815260200191505060405180910390f35b3480156102b057600080fd5b506102b96107f4565b60405180821515815260200191505060405180910390f35b3480156102dd57600080fd5b50610355600480360360208110156102f457600080fd5b810190808035906020019064010000000081111561031157600080fd5b82018360208201111561032357600080fd5b8035906020019184600183028401116401000000008311171561034557600080fd5b909192939192939050505061084b565b005b34801561036357600080fd5b506103906004803603602081101561037a57600080fd5b8101908080359060200190929190505050610952565b005b34801561039e57600080fd5b50610420600480360360408110156103b557600080fd5b8101908080359060200190929190803590602001906401000000008111156103dc57600080fd5b8201836020820111156103ee57600080fd5b8035906020019184600183028401116401000000008311171561041057600080fd5b909192939192939050505061096d565b005b34801561042e57600080fd5b506104716004803603602081101561044557600080fd5b81019080803573ffffffffffffffffffffffffffffffffffffffff169060200190929190505050610a0d565b6040518080602001828103825283818151815260200191508051906020019060200280838360005b838110156104b4578082015181840152602081019050610499565b505050509050019250505060405180910390f35b3480156104d457600080fd5b506104dd610b4a565b6040518082815260200191505060405180910390f35b3480156104ff57600080fd5b5061052c6004803603602081101561051657600080fd5b8101908080359060200190929190505050610b54565b604051808060200186151581526020018561ffff16815260200184600560200280838360005b8381101561056d578082015181840152602081019050610552565b5050505090500180602001838103835288818151815260200191508051906020019080838360005b838110156105b0578082015181840152602081019050610595565b50505050905090810190601f1680156105dd5780820380516001836020036101000a031916815260200191505b50838103825284818151815260200191508051906020019060200280838360005b838110156106195780820151818401526020810190506105fe565b5050505090500197505050505050505060405180910390f35b34801561063e57600080fd5b506106816004803603602081101561065557600080fd5b81019080803573ffffffffffffffffffffffffffffffffffffffff169060200190929190505050610deb565b005b61068b6107f4565b61069457600080fd5b600073ffffffffffffffffffffffffffffffffffffffff1660008054906101000a900473ffffffffffffffffffffffffffffffffffffffff1673ffffffffffffffffffffffffffffffffffffffff167f8be0079c531659141344cd1fd0a4f28419497f9722a3daafe3b4186f6b6457e060405160405180910390a360008060006101000a81548173ffffffffffffffffffffffffffffffffffffffff021916908373ffffffffffffffffffffffffffffffffffffffff160217905550565b60046020528060005260406000206000915090505481565b600654341461077857600080fd5b60006107848233610e08565b9050610794826000836000610ec5565b5050565b60008060009054906101000a900473ffffffffffffffffffffffffffffffffffffffff16905090565b60036020528060005260406000206000915054906101000a900473ffffffffffffffffffffffffffffffffffffffff1681565b60008060009054906101000a900473ffffffffffffffffffffffffffffffffffffffff1673ffffffffffffffffffffffffffffffffffffffff163373ffffffffffffffffffffffffffffffffffffffff1614905090565b60011515600560003373ffffffffffffffffffffffffffffffffffffffff1673ffffffffffffffffffffffffffffffffffffffff16815260200190815260200160002060009054906101000a900460ff16151514156108a957600080fd5b60006108f983838080601f016020809104026020016040519081016040528093929190818152602001838380828437600081840152601f19601f8201169050808301925050505050505033610e08565b905061094d83838080601f016020809104026020016040519081016040528093929190818152602001838380828437600081840152601f19601f820116905080830192505050505050506001836064610ec5565b505050565b61095a6107f4565b61096357600080fd5b8060068190555050565b826003600082815260200190815260200160002060009054906101000a900473ffffffffffffffffffffffffffffffffffffffff1673ffffffffffffffffffffffffffffffffffffffff163373ffffffffffffffffffffffffffffffffffffffff16146109d957600080fd5b8282600286815481106109e857fe5b90600052602060002090600402016000019190610a069291906112b9565b5050505050565b606080600460008473ffffffffffffffffffffffffffffffffffffffff1673ffffffffffffffffffffffffffffffffffffffff1681526020019081526020016000205467ffffffffffffffff81118015610a6657600080fd5b50604051908082528060200260200182016040528015610a955781602001602082028036833780820191505090505b5090506000805b600280549050811015610b3f578473ffffffffffffffffffffffffffffffffffffffff166003600083815260200190815260200160002060009054906101000a900473ffffffffffffffffffffffffffffffffffffffff1673ffffffffffffffffffffffffffffffffffffffff161415610b325780838381518110610b1d57fe5b60200260200101818152505081806001019250505b8080600101915050610a9c565b508192505050919050565b6000600654905090565b6060600080610b61611339565b6060856003600082815260200190815260200160002060009054906101000a900473ffffffffffffffffffffffffffffffffffffffff1673ffffffffffffffffffffffffffffffffffffffff163373ffffffffffffffffffffffffffffffffffffffff1614610bcf57600080fd5b60028781548110610bdc57fe5b906000526020600020906004020160000160028881548110610bfa57fe5b906000526020600020906004020160010160009054906101000a900460ff1660028981548110610c2657fe5b906000526020600020906004020160010160099054906101000a900461ffff1660028a81548110610c5357fe5b906000526020600020906004020160020160028b81548110610c7157fe5b9060005260206000209060040201600301848054600181600116156101000203166002900480601f016020809104026020016040519081016040528092919081815260200182805460018160011615610100020316600290048015610d175780601f10610cec57610100808354040283529160200191610d17565b820191906000526020600020905b815481529060010190602001808311610cfa57829003601f168201915b5050505050945081600580602002604051908101604052809291908260058015610d7e576020028201916000905b82829054906101000a900461ffff1661ffff1681526020019060020190602082600101049283019260010382029150808411610d455790505b5050505050915080805480602002602001604051908101604052809291908181526020018280548015610dd057602002820191906000526020600020905b815481526020019060010190808311610dbc575b50505050509050955095509550955095505091939590929450565b610df36107f4565b610dfc57600080fd5b610e05816111c2565b50565b60008083836002805490506040516020018084805190602001908083835b60208310610e495780518252602082019150602081019050602083039250610e26565b6001836020036101000a0380198251168184511680821785525050505050509050018373ffffffffffffffffffffffffffffffffffffffff1660601b815260140182815260200193505050506040516020818303038152906040528051906020012060001c90506001548181610ebb57fe5b0691505092915050565b610ecd611339565b606060026040518060c0016040528088815260200187151581526020018667ffffffffffffffff1681526020018561ffff1681526020018481526020018381525090806001815401808255809150506001900390600052602060002090600402016000909190919091506000820151816000019080519060200190610f5392919061135b565b5060208201518160010160006101000a81548160ff02191690831515021790555060408201518160010160016101000a81548167ffffffffffffffff021916908367ffffffffffffffff16021790555060608201518160010160096101000a81548161ffff021916908361ffff160217905550608082015181600201906005610fdd9291906113db565b5060a0820151816003019080519060200190610ffa929190611478565b50505060006001600280549050039050336003600083815260200190815260200160002060006101000a81548173ffffffffffffffffffffffffffffffffffffffff021916908373ffffffffffffffffffffffffffffffffffffffff1602179055506001600560003373ffffffffffffffffffffffffffffffffffffffff1673ffffffffffffffffffffffffffffffffffffffff16815260200190815260200160002060006101000a81548160ff021916908315150217905550600460003373ffffffffffffffffffffffffffffffffffffffff1673ffffffffffffffffffffffffffffffffffffffff168152602001908152602001600020600081548092919060010191905055507fd6481780172941270ed8b26ea7ea362972fa87c40e168becbfe47dc366ba45eb81888760405180848152602001806020018367ffffffffffffffff168152602001828103825284818151815260200191508051906020019080838360005b8381101561117d578082015181840152602081019050611162565b50505050905090810190601f1680156111aa5780820380516001836020036101000a031916815260200191505b5094505050505060405180910390a150505050505050565b600073ffffffffffffffffffffffffffffffffffffffff168173ffffffffffffffffffffffffffffffffffffffff1614156111fc57600080fd5b8073ffffffffffffffffffffffffffffffffffffffff1660008054906101000a900473ffffffffffffffffffffffffffffffffffffffff1673ffffffffffffffffffffffffffffffffffffffff167f8be0079c531659141344cd1fd0a4f28419497f9722a3daafe3b4186f6b6457e060405160405180910390a3806000806101000a81548173ffffffffffffffffffffffffffffffffffffffff021916908373ffffffffffffffffffffffffffffffffffffffff16021790555050565b828054600181600116156101000203166002900490600052602060002090601f016020900481019282601f106112fa57803560ff1916838001178555611328565b82800160010185558215611328579182015b8281111561132757823582559160200191906001019061130c565b5b50905061133591906114c5565b5090565b6040518060a00160405280600590602082028036833780820191505090505090565b828054600181600116156101000203166002900490600052602060002090601f016020900481019282601f1061139c57805160ff19168380011785556113ca565b828001600101855582156113ca579182015b828111156113c95782518255916020019190600101906113ae565b5b5090506113d791906114c5565b5090565b826005600f016010900481019282156114675791602002820160005b8382111561143757835183826101000a81548161ffff021916908361ffff16021790555092602001926002016020816001010492830192600103026113f7565b80156114655782816101000a81549061ffff0219169055600201602081600101049283019260010302611437565b505b50905061147491906114e2565b5090565b8280548282559060005260206000209081019282156114b4579160200282015b828111156114b3578251825591602001919060010190611498565b5b5090506114c191906114c5565b5090565b5b808211156114de5760008160009055506001016114c6565b5090565b5b8082111561150757600081816101000a81549061ffff0219169055506001016114e3565b509056fea2646970667358221220742098a15a4da90c8659ac39e6e847ee32e3417450d63a4b4ef8c207a515e78164736f6c634300060c0033",
  "immutableReferences": {},
  "source": "pragma solidity >=0.4.22 <0.7.0;\n\nimport \"./PlainsWalkerFactory.sol\";\n\n\n/**\n * @dev An extention of plainswalker factory that includes more helper and getter functions\n */\ncontract PlainsWalkerHelper is PlainsWalkerFactory{\n\n    // price of a new plainsWalker\n    uint plainsWalkerFee = 0.02 ether;\n\n    /**\n     * @dev A function to tell users how much a plainsWalker costs\n     */\n    function getPlainsWalkerFee() external view returns(uint){\n        return plainsWalkerFee;\n    }\n    \n    /**\n     * @dev A function to set how much a plainsWalker costs\n     */\n    function setPlainsWalkerFee(uint _fee) external onlyOwner {\n        plainsWalkerFee = _fee;\n    }\n    \n    /**\n     * @dev A function to purchase another plainswalker\n     */\n    function purchasePlainsWalker(string memory _name) external payable {\n        require(msg.value == plainsWalkerFee);\n        uint64 randDna = uint64(_generateRandomDna(_name, msg.sender));\n        _createPlainswalker(_name, false, randDna, 0);\n    }\n\n    /**\n     * @dev A modifier to check if the msg.sender owns the plainswalker.\n     */\n    modifier ownerOfPlainsWalker(uint _plainsWalkerId) {\n        require(msg.sender == plainsWalkerToOwner[_plainsWalkerId]);\n        _;\n    }\n    \n    /**\n     * @dev Find plainsWalkers by owner addresses.\n     */\n    function getPlainsWalkersByOwner(address _owner) public view returns(uint[] memory) {\n        uint[] memory result = new uint[](ownerPlainsWalkerCount[_owner]);\n        uint counter = 0;\n        for (uint i = 0; i < plainsWalkers.length; i++) {\n            if (plainsWalkerToOwner[i] == _owner) {\n                result[counter] = i;\n                counter++;\n            }\n        }\n        return result;\n    }\n\n    /**\n     * @dev change the name of a plainsWalker if you own it.\n     */\n    function changeName(uint _plainsWalkerId, string calldata _newName) external ownerOfPlainsWalker(_plainsWalkerId) {\n        plainsWalkers[_plainsWalkerId].name = _newName;\n    }\n\n    /**\n     * @dev Get information on a plainsWalker through its id.\n     */\n    function getPlainswalkerInfoById(uint _id) external view ownerOfPlainsWalker(_id) returns(string memory name, bool isActive, uint16 health, uint16[5] memory mana, uint[] memory creatureIndex){\n        return (plainsWalkers[_id].name, plainsWalkers[_id].isActive, plainsWalkers[_id].health, plainsWalkers[_id].mana, plainsWalkers[_id].creatureList);\n    }\n}",
  "sourcePath": "/Users/johnminer/dev/mtg_on_blockchain/contracts/PlainsWalkerHelper.sol",
  "compiler": {
    "name": "solc",
    "version": "0.6.12+commit.27d51765.Emscripten.clang"
  },
  "schemaVersion": "3.3.0",
  "updatedAt": "2020-10-16T20:35:17.009Z",
  "devdoc": {
    "details": "An extention of plainswalker factory that includes more helper and getter functions",
    "kind": "dev",
    "methods": {
      "changeName(uint256,string)": {
        "details": "change the name of a plainsWalker if you own it."
      },
      "createRandomPlainsWalker(string)": {
        "details": "External function to create a persons first plainsWalker"
      },
      "getPlainsWalkerFee()": {
        "details": "A function to tell users how much a plainsWalker costs"
      },
      "getPlainsWalkersByOwner(address)": {
        "details": "Find plainsWalkers by owner addresses."
      },
      "getPlainswalkerInfoById(uint256)": {
        "details": "Get information on a plainsWalker through its id."
      },
      "isOwner()": {
        "returns": {
          "_0": "true if `msg.sender` is the owner of the contract."
        }
      },
      "owner()": {
        "returns": {
          "_0": "the address of the owner."
        }
      },
      "purchasePlainsWalker(string)": {
        "details": "A function to purchase another plainswalker"
      },
      "renounceOwnership()": {
        "details": "Allows the current owner to relinquish control of the contract."
      },
      "setPlainsWalkerFee(uint256)": {
        "details": "A function to set how much a plainsWalker costs"
      },
      "transferOwnership(address)": {
        "details": "Allows the current owner to transfer control of the contract to a newOwner.",
        "params": {
          "newOwner": "The address to transfer ownership to."
        }
      }
    },
    "version": 1
  },
  "userdoc": {
    "kind": "user",
    "methods": {
      "renounceOwnership()": {
        "notice": "Renouncing to ownership will leave the contract without an owner. It will not be possible to call the functions with the `onlyOwner` modifier anymore."
      }
    },
    "version": 1
  }
}