{
  "contractName": "PlainsWalkerHelper",
  "abi": [
    {
      "anonymous": false,
      "inputs": [
        {
          "indexed": false,
          "internalType": "uint256",
          "name": "PlainsWalkerId",
          "type": "uint256"
        },
        {
          "indexed": false,
          "internalType": "string",
          "name": "name",
          "type": "string"
        },
        {
          "indexed": false,
          "internalType": "uint256",
          "name": "dna",
          "type": "uint256"
        }
      ],
      "name": "NewPlainswalker",
      "type": "event"
    },
    {
      "anonymous": false,
      "inputs": [
        {
          "indexed": true,
          "internalType": "address",
          "name": "previousOwner",
          "type": "address"
        },
        {
          "indexed": true,
          "internalType": "address",
          "name": "newOwner",
          "type": "address"
        }
      ],
      "name": "OwnershipTransferred",
      "type": "event"
    },
    {
      "inputs": [
        {
          "internalType": "string",
          "name": "_name",
          "type": "string"
        }
      ],
      "name": "createRandomPlainsWalker",
      "outputs": [],
      "stateMutability": "nonpayable",
      "type": "function"
    },
    {
      "inputs": [],
      "name": "isOwner",
      "outputs": [
        {
          "internalType": "bool",
          "name": "",
          "type": "bool"
        }
      ],
      "stateMutability": "view",
      "type": "function"
    },
    {
      "inputs": [],
      "name": "owner",
      "outputs": [
        {
          "internalType": "address",
          "name": "",
          "type": "address"
        }
      ],
      "stateMutability": "view",
      "type": "function"
    },
    {
      "inputs": [
        {
          "internalType": "address",
          "name": "",
          "type": "address"
        }
      ],
      "name": "ownerPlainsWalkerCount",
      "outputs": [
        {
          "internalType": "uint256",
          "name": "",
          "type": "uint256"
        }
      ],
      "stateMutability": "view",
      "type": "function"
    },
    {
      "inputs": [
        {
          "internalType": "uint256",
          "name": "",
          "type": "uint256"
        }
      ],
      "name": "plainsWalkerToOwner",
      "outputs": [
        {
          "internalType": "address",
          "name": "",
          "type": "address"
        }
      ],
      "stateMutability": "view",
      "type": "function"
    },
    {
      "inputs": [],
      "name": "renounceOwnership",
      "outputs": [],
      "stateMutability": "nonpayable",
      "type": "function"
    },
    {
      "inputs": [
        {
          "internalType": "address",
          "name": "newOwner",
          "type": "address"
        }
      ],
      "name": "transferOwnership",
      "outputs": [],
      "stateMutability": "nonpayable",
      "type": "function"
    },
    {
      "inputs": [],
      "name": "getPlainsWalkerFee",
      "outputs": [
        {
          "internalType": "uint256",
          "name": "",
          "type": "uint256"
        }
      ],
      "stateMutability": "view",
      "type": "function"
    },
    {
      "inputs": [
        {
          "internalType": "uint256",
          "name": "_fee",
          "type": "uint256"
        }
      ],
      "name": "setPlainsWalkerFee",
      "outputs": [],
      "stateMutability": "nonpayable",
      "type": "function"
    },
    {
      "inputs": [
        {
          "internalType": "string",
          "name": "_name",
          "type": "string"
        }
      ],
      "name": "purchasePlainsWalker",
      "outputs": [],
      "stateMutability": "payable",
      "type": "function"
    },
    {
      "inputs": [
        {
          "internalType": "address",
          "name": "_owner",
          "type": "address"
        }
      ],
      "name": "getPlainsWalkersByOwner",
      "outputs": [
        {
          "internalType": "uint256[]",
          "name": "",
          "type": "uint256[]"
        }
      ],
      "stateMutability": "view",
      "type": "function"
    },
    {
      "inputs": [
        {
          "internalType": "uint256",
          "name": "_plainsWalkerId",
          "type": "uint256"
        },
        {
          "internalType": "string",
          "name": "_newName",
          "type": "string"
        }
      ],
      "name": "changeName",
      "outputs": [],
      "stateMutability": "nonpayable",
      "type": "function"
    },
    {
      "inputs": [
        {
          "internalType": "uint256",
          "name": "_id",
          "type": "uint256"
        }
      ],
      "name": "getPlainswalkerInfoById",
      "outputs": [
        {
          "internalType": "string",
          "name": "name",
          "type": "string"
        },
        {
          "internalType": "bool",
          "name": "isActive",
          "type": "bool"
        },
        {
          "internalType": "uint16",
          "name": "health",
          "type": "uint16"
        },
        {
          "internalType": "uint16[5]",
          "name": "mana",
          "type": "uint16[5]"
        }
      ],
      "stateMutability": "view",
      "type": "function"
    }
  ],
  "bytecode": "0x6080604052620186a060015566470de4df82000060065534801561002257600080fd5b50336000806101000a81548173ffffffffffffffffffffffffffffffffffffffff021916908373ffffffffffffffffffffffffffffffffffffffff16021790555060008054906101000a900473ffffffffffffffffffffffffffffffffffffffff1673ffffffffffffffffffffffffffffffffffffffff16600073ffffffffffffffffffffffffffffffffffffffff167f8be0079c531659141344cd1fd0a4f28419497f9722a3daafe3b4186f6b6457e060405160405180910390a3611483806100ed6000396000f3fe6080604052600436106100c25760003560e01c80639421c7ca1161007f578063e22ee80411610059578063e22ee80414610422578063e90a2ea3146104c8578063f0e27093146104f3578063f2fde38b146105ea576100c2565b80639421c7ca146102d1578063b1f0522f14610357578063c39cbef114610392576100c2565b8063715018a6146100c7578063745c79a7146100de5780637bba53e0146101435780638da5cb5b146101fe5780638dab6beb1461023f5780638f32d59b146102a4575b600080fd5b3480156100d357600080fd5b506100dc61063b565b005b3480156100ea57600080fd5b5061012d6004803603602081101561010157600080fd5b81019080803573ffffffffffffffffffffffffffffffffffffffff16906020019092919050505061070a565b6040518082815260200191505060405180910390f35b6101fc6004803603602081101561015957600080fd5b810190808035906020019064010000000081111561017657600080fd5b82018360208201111561018857600080fd5b803590602001918460018302840111640100000000831117156101aa57600080fd5b91908080601f016020809104026020016040519081016040528093929190818152602001838380828437600081840152601f19601f820116905080830192505050505050509192919290505050610722565b005b34801561020a57600080fd5b50610213610750565b604051808273ffffffffffffffffffffffffffffffffffffffff16815260200191505060405180910390f35b34801561024b57600080fd5b506102786004803603602081101561026257600080fd5b8101908080359060200190929190505050610779565b604051808273ffffffffffffffffffffffffffffffffffffffff16815260200191505060405180910390f35b3480156102b057600080fd5b506102b96107ac565b60405180821515815260200191505060405180910390f35b3480156102dd57600080fd5b50610355600480360360208110156102f457600080fd5b810190808035906020019064010000000081111561031157600080fd5b82018360208201111561032357600080fd5b8035906020019184600183028401116401000000008311171561034557600080fd5b9091929391929390505050610803565b005b34801561036357600080fd5b506103906004803603602081101561037a57600080fd5b810190808035906020019092919050505061090a565b005b34801561039e57600080fd5b50610420600480360360408110156103b557600080fd5b8101908080359060200190929190803590602001906401000000008111156103dc57600080fd5b8201836020820111156103ee57600080fd5b8035906020019184600183028401116401000000008311171561041057600080fd5b9091929391929390505050610925565b005b34801561042e57600080fd5b506104716004803603602081101561044557600080fd5b81019080803573ffffffffffffffffffffffffffffffffffffffff1690602001909291905050506109c5565b6040518080602001828103825283818151815260200191508051906020019060200280838360005b838110156104b4578082015181840152602081019050610499565b505050509050019250505060405180910390f35b3480156104d457600080fd5b506104dd610b02565b6040518082815260200191505060405180910390f35b3480156104ff57600080fd5b5061052c6004803603602081101561051657600080fd5b8101908080359060200190929190505050610b0c565b604051808060200185151581526020018461ffff16815260200183600560200280838360005b8381101561056d578082015181840152602081019050610552565b50505050905001828103825286818151815260200191508051906020019080838360005b838110156105ac578082015181840152602081019050610591565b50505050905090810190601f1680156105d95780820380516001836020036101000a031916815260200191505b509550505050505060405180910390f35b3480156105f657600080fd5b506106396004803603602081101561060d57600080fd5b81019080803573ffffffffffffffffffffffffffffffffffffffff169060200190929190505050610d2d565b005b6106436107ac565b61064c57600080fd5b600073ffffffffffffffffffffffffffffffffffffffff1660008054906101000a900473ffffffffffffffffffffffffffffffffffffffff1673ffffffffffffffffffffffffffffffffffffffff167f8be0079c531659141344cd1fd0a4f28419497f9722a3daafe3b4186f6b6457e060405160405180910390a360008060006101000a81548173ffffffffffffffffffffffffffffffffffffffff021916908373ffffffffffffffffffffffffffffffffffffffff160217905550565b60046020528060005260406000206000915090505481565b600654341461073057600080fd5b600061073c8233610d4a565b905061074c826000836000610e07565b5050565b60008060009054906101000a900473ffffffffffffffffffffffffffffffffffffffff16905090565b60036020528060005260406000206000915054906101000a900473ffffffffffffffffffffffffffffffffffffffff1681565b60008060009054906101000a900473ffffffffffffffffffffffffffffffffffffffff1673ffffffffffffffffffffffffffffffffffffffff163373ffffffffffffffffffffffffffffffffffffffff1614905090565b60011515600560003373ffffffffffffffffffffffffffffffffffffffff1673ffffffffffffffffffffffffffffffffffffffff16815260200190815260200160002060009054906101000a900460ff161515141561086157600080fd5b60006108b183838080601f016020809104026020016040519081016040528093929190818152602001838380828437600081840152601f19601f8201169050808301925050505050505033610d4a565b905061090583838080601f016020809104026020016040519081016040528093929190818152602001838380828437600081840152601f19601f820116905080830192505050505050506001836064610e07565b505050565b6109126107ac565b61091b57600080fd5b8060068190555050565b826003600082815260200190815260200160002060009054906101000a900473ffffffffffffffffffffffffffffffffffffffff1673ffffffffffffffffffffffffffffffffffffffff163373ffffffffffffffffffffffffffffffffffffffff161461099157600080fd5b8282600286815481106109a057fe5b906000526020600020906004020160000191906109be9291906111fb565b5050505050565b606080600460008473ffffffffffffffffffffffffffffffffffffffff1673ffffffffffffffffffffffffffffffffffffffff1681526020019081526020016000205467ffffffffffffffff81118015610a1e57600080fd5b50604051908082528060200260200182016040528015610a4d5781602001602082028036833780820191505090505b5090506000805b600280549050811015610af7578473ffffffffffffffffffffffffffffffffffffffff166003600083815260200190815260200160002060009054906101000a900473ffffffffffffffffffffffffffffffffffffffff1673ffffffffffffffffffffffffffffffffffffffff161415610aea5780838381518110610ad557fe5b60200260200101818152505081806001019250505b8080600101915050610a54565b508192505050919050565b6000600654905090565b6060600080610b1961127b565b846003600082815260200190815260200160002060009054906101000a900473ffffffffffffffffffffffffffffffffffffffff1673ffffffffffffffffffffffffffffffffffffffff163373ffffffffffffffffffffffffffffffffffffffff1614610b8557600080fd5b60028681548110610b9257fe5b906000526020600020906004020160000160028781548110610bb057fe5b906000526020600020906004020160010160009054906101000a900460ff1660028881548110610bdc57fe5b906000526020600020906004020160010160099054906101000a900461ffff1660028981548110610c0957fe5b9060005260206000209060040201600201838054600181600116156101000203166002900480601f016020809104026020016040519081016040528092919081815260200182805460018160011615610100020316600290048015610caf5780601f10610c8457610100808354040283529160200191610caf565b820191906000526020600020905b815481529060010190602001808311610c9257829003601f168201915b5050505050935080600580602002604051908101604052809291908260058015610d16576020028201916000905b82829054906101000a900461ffff1661ffff1681526020019060020190602082600101049283019260010382029150808411610cdd5790505b505050505090509450945094509450509193509193565b610d356107ac565b610d3e57600080fd5b610d4781611104565b50565b60008083836002805490506040516020018084805190602001908083835b60208310610d8b5780518252602082019150602081019050602083039250610d68565b6001836020036101000a0380198251168184511680821785525050505050509050018373ffffffffffffffffffffffffffffffffffffffff1660601b815260140182815260200193505050506040516020818303038152906040528051906020012060001c90506001548181610dfd57fe5b0691505092915050565b610e0f61127b565b606060026040518060c0016040528088815260200187151581526020018667ffffffffffffffff1681526020018561ffff1681526020018481526020018381525090806001815401808255809150506001900390600052602060002090600402016000909190919091506000820151816000019080519060200190610e9592919061129d565b5060208201518160010160006101000a81548160ff02191690831515021790555060408201518160010160016101000a81548167ffffffffffffffff021916908367ffffffffffffffff16021790555060608201518160010160096101000a81548161ffff021916908361ffff160217905550608082015181600201906005610f1f92919061131d565b5060a0820151816003019080519060200190610f3c9291906113ba565b50505060006001600280549050039050336003600083815260200190815260200160002060006101000a81548173ffffffffffffffffffffffffffffffffffffffff021916908373ffffffffffffffffffffffffffffffffffffffff1602179055506001600560003373ffffffffffffffffffffffffffffffffffffffff1673ffffffffffffffffffffffffffffffffffffffff16815260200190815260200160002060006101000a81548160ff021916908315150217905550600460003373ffffffffffffffffffffffffffffffffffffffff1673ffffffffffffffffffffffffffffffffffffffff168152602001908152602001600020600081548092919060010191905055507fd6481780172941270ed8b26ea7ea362972fa87c40e168becbfe47dc366ba45eb81888760405180848152602001806020018367ffffffffffffffff168152602001828103825284818151815260200191508051906020019080838360005b838110156110bf5780820151818401526020810190506110a4565b50505050905090810190601f1680156110ec5780820380516001836020036101000a031916815260200191505b5094505050505060405180910390a150505050505050565b600073ffffffffffffffffffffffffffffffffffffffff168173ffffffffffffffffffffffffffffffffffffffff16141561113e57600080fd5b8073ffffffffffffffffffffffffffffffffffffffff1660008054906101000a900473ffffffffffffffffffffffffffffffffffffffff1673ffffffffffffffffffffffffffffffffffffffff167f8be0079c531659141344cd1fd0a4f28419497f9722a3daafe3b4186f6b6457e060405160405180910390a3806000806101000a81548173ffffffffffffffffffffffffffffffffffffffff021916908373ffffffffffffffffffffffffffffffffffffffff16021790555050565b828054600181600116156101000203166002900490600052602060002090601f016020900481019282601f1061123c57803560ff191683800117855561126a565b8280016001018555821561126a579182015b8281111561126957823582559160200191906001019061124e565b5b5090506112779190611407565b5090565b6040518060a00160405280600590602082028036833780820191505090505090565b828054600181600116156101000203166002900490600052602060002090601f016020900481019282601f106112de57805160ff191683800117855561130c565b8280016001018555821561130c579182015b8281111561130b5782518255916020019190600101906112f0565b5b5090506113199190611407565b5090565b826005600f016010900481019282156113a95791602002820160005b8382111561137957835183826101000a81548161ffff021916908361ffff1602179055509260200192600201602081600101049283019260010302611339565b80156113a75782816101000a81549061ffff0219169055600201602081600101049283019260010302611379565b505b5090506113b69190611424565b5090565b8280548282559060005260206000209081019282156113f6579160200282015b828111156113f55782518255916020019190600101906113da565b5b5090506114039190611407565b5090565b5b80821115611420576000816000905550600101611408565b5090565b5b8082111561144957600081816101000a81549061ffff021916905550600101611425565b509056fea26469706673582212200c162e562a55ecca345af2bf724891aa58035150d2b5cb473b63264f1b07579264736f6c634300060c0033",
  "immutableReferences": {},
  "source": "pragma solidity >=0.4.22 <0.7.0;\n\nimport \"./PlainsWalkerFactory.sol\";\n\n\n/**\n * @dev An extention of plainswalker factory that includes more helper and getter functions\n */\ncontract PlainsWalkerHelper is PlainsWalkerFactory{\n\n    // price of a new plainsWalker\n    uint plainsWalkerFee = 0.02 ether;\n\n    /**\n     * @dev A function to tell users how much a plainsWalker costs\n     */\n    function getPlainsWalkerFee() external view returns(uint){\n        return plainsWalkerFee;\n    }\n    \n    /**\n     * @dev A function to set how much a plainsWalker costs\n     */\n    function setPlainsWalkerFee(uint _fee) external onlyOwner {\n        plainsWalkerFee = _fee;\n    }\n    \n    /**\n     * @dev A function to purchase another plainswalker\n     */\n    function purchasePlainsWalker(string memory _name) external payable {\n        require(msg.value == plainsWalkerFee);\n        uint64 randDna = uint64(_generateRandomDna(_name, msg.sender));\n        _createPlainswalker(_name, false, randDna, 0);\n    }\n\n    /**\n     * @dev A modifier to check if the msg.sender owns the plainswalker.\n     */\n    modifier ownerOfPlainsWalker(uint _plainsWalkerId) {\n        require(msg.sender == plainsWalkerToOwner[_plainsWalkerId]);\n        _;\n    }\n    \n    /**\n     * @dev Find plainsWalkers by owner addresses.\n     */\n    function getPlainsWalkersByOwner(address _owner) public view returns(uint[] memory) {\n        uint[] memory result = new uint[](ownerPlainsWalkerCount[_owner]);\n        uint counter = 0;\n        for (uint i = 0; i < plainsWalkers.length; i++) {\n            if (plainsWalkerToOwner[i] == _owner) {\n                result[counter] = i;\n                counter++;\n            }\n        }\n        return result;\n    }\n\n    /**\n     * @dev change the name of a plainsWalker if you own it.\n     */\n    function changeName(uint _plainsWalkerId, string calldata _newName) external ownerOfPlainsWalker(_plainsWalkerId) {\n        plainsWalkers[_plainsWalkerId].name = _newName;\n    }\n\n    /**\n     * @dev Get information on a plainsWalker through its id.\n     */\n    function getPlainswalkerInfoById(uint _id) external view ownerOfPlainsWalker(_id) returns(string memory name, bool isActive, uint16 health, uint16[5] memory mana){\n        return (plainsWalkers[_id].name, plainsWalkers[_id].isActive, plainsWalkers[_id].health, plainsWalkers[_id].mana);\n    }\n}",
  "sourcePath": "/Users/johnminer/dev/mtg_on_blockchain/contracts/PlainsWalkerHelper.sol",
  "compiler": {
    "name": "solc",
    "version": "0.6.12+commit.27d51765.Emscripten.clang"
  },
  "schemaVersion": "3.3.0",
  "updatedAt": "2020-10-15T01:51:22.792Z",
  "devdoc": {
    "details": "An extention of plainswalker factory that includes more helper and getter functions",
    "kind": "dev",
    "methods": {
      "changeName(uint256,string)": {
        "details": "change the name of a plainsWalker if you own it."
      },
      "createRandomPlainsWalker(string)": {
        "details": "External function to create a persons first plainsWalker"
      },
      "getPlainsWalkerFee()": {
        "details": "A function to tell users how much a plainsWalker costs"
      },
      "getPlainsWalkersByOwner(address)": {
        "details": "Find plainsWalkers by owner addresses."
      },
      "getPlainswalkerInfoById(uint256)": {
        "details": "Get information on a plainsWalker through its id."
      },
      "isOwner()": {
        "returns": {
          "_0": "true if `msg.sender` is the owner of the contract."
        }
      },
      "owner()": {
        "returns": {
          "_0": "the address of the owner."
        }
      },
      "purchasePlainsWalker(string)": {
        "details": "A function to purchase another plainswalker"
      },
      "renounceOwnership()": {
        "details": "Allows the current owner to relinquish control of the contract."
      },
      "setPlainsWalkerFee(uint256)": {
        "details": "A function to set how much a plainsWalker costs"
      },
      "transferOwnership(address)": {
        "details": "Allows the current owner to transfer control of the contract to a newOwner.",
        "params": {
          "newOwner": "The address to transfer ownership to."
        }
      }
    },
    "version": 1
  },
  "userdoc": {
    "kind": "user",
    "methods": {
      "renounceOwnership()": {
        "notice": "Renouncing to ownership will leave the contract without an owner. It will not be possible to call the functions with the `onlyOwner` modifier anymore."
      }
    },
    "version": 1
  }
}